{
  "contractName": "PlasmaDonation",
  "abi": [
    {
      "inputs": [],
      "stateMutability": "nonpayable",
      "type": "constructor"
    },
    {
      "inputs": [
        {
          "internalType": "address",
          "name": "",
          "type": "address"
        }
      ],
      "name": "donors",
      "outputs": [
        {
          "internalType": "address",
          "name": "ethDonor",
          "type": "address"
        },
        {
          "internalType": "string",
          "name": "hashOfDonorsData",
          "type": "string"
        },
        {
          "internalType": "address",
          "name": "associatedHospital",
          "type": "address"
        },
        {
          "internalType": "bool",
          "name": "isDonorEligible",
          "type": "bool"
        },
        {
          "internalType": "bool",
          "name": "exist",
          "type": "bool"
        }
      ],
      "stateMutability": "view",
      "type": "function",
      "constant": true
    },
    {
      "inputs": [
        {
          "internalType": "address",
          "name": "",
          "type": "address"
        }
      ],
      "name": "hospitals",
      "outputs": [
        {
          "internalType": "address",
          "name": "ethHospital",
          "type": "address"
        },
        {
          "internalType": "string",
          "name": "hospitalName",
          "type": "string"
        },
        {
          "internalType": "string",
          "name": "hashOfHospitalsData",
          "type": "string"
        },
        {
          "internalType": "bool",
          "name": "exist",
          "type": "bool"
        }
      ],
      "stateMutability": "view",
      "type": "function",
      "constant": true
    },
    {
      "inputs": [],
      "name": "plasmaManager",
      "outputs": [
        {
          "internalType": "address",
          "name": "",
          "type": "address"
        }
      ],
      "stateMutability": "view",
      "type": "function",
      "constant": true
    },
    {
      "inputs": [
        {
          "internalType": "address",
          "name": "",
          "type": "address"
        }
      ],
      "name": "seekers",
      "outputs": [
        {
          "internalType": "address",
          "name": "ethSeeker",
          "type": "address"
        },
        {
          "internalType": "string",
          "name": "hashOfSeekersData",
          "type": "string"
        },
        {
          "internalType": "address",
          "name": "associatedHospital",
          "type": "address"
        },
        {
          "internalType": "bool",
          "name": "isSeekerEligible",
          "type": "bool"
        },
        {
          "internalType": "bool",
          "name": "exist",
          "type": "bool"
        }
      ],
      "stateMutability": "view",
      "type": "function",
      "constant": true
    },
    {
      "inputs": [],
      "name": "totalCompletedTransfusions",
      "outputs": [
        {
          "internalType": "uint256",
          "name": "",
          "type": "uint256"
        }
      ],
      "stateMutability": "view",
      "type": "function",
      "constant": true
    },
    {
      "inputs": [],
      "name": "totalDonors",
      "outputs": [
        {
          "internalType": "uint256",
          "name": "",
          "type": "uint256"
        }
      ],
      "stateMutability": "view",
      "type": "function",
      "constant": true
    },
    {
      "inputs": [],
      "name": "totalHospitals",
      "outputs": [
        {
          "internalType": "uint256",
          "name": "",
          "type": "uint256"
        }
      ],
      "stateMutability": "view",
      "type": "function",
      "constant": true
    },
    {
      "inputs": [],
      "name": "totalSeekers",
      "outputs": [
        {
          "internalType": "uint256",
          "name": "",
          "type": "uint256"
        }
      ],
      "stateMutability": "view",
      "type": "function",
      "constant": true
    },
    {
      "inputs": [
        {
          "internalType": "uint256",
          "name": "",
          "type": "uint256"
        }
      ],
      "name": "transfusions",
      "outputs": [
        {
          "internalType": "uint256",
          "name": "indexOfTransfusion",
          "type": "uint256"
        },
        {
          "internalType": "address",
          "name": "ethSeeker",
          "type": "address"
        },
        {
          "internalType": "address",
          "name": "ethDonor",
          "type": "address"
        },
        {
          "internalType": "address",
          "name": "ethHospital",
          "type": "address"
        },
        {
          "internalType": "enum PlasmaDonation.status",
          "name": "stateOfTransfusion",
          "type": "uint8"
        },
        {
          "internalType": "string",
          "name": "storageTime",
          "type": "string"
        },
        {
          "internalType": "string",
          "name": "updatedOn",
          "type": "string"
        },
        {
          "internalType": "bool",
          "name": "exist",
          "type": "bool"
        }
      ],
      "stateMutability": "view",
      "type": "function",
      "constant": true
    },
    {
      "inputs": [
        {
          "internalType": "address",
          "name": "_ethSeeker",
          "type": "address"
        }
      ],
      "name": "validateSeeker",
      "outputs": [],
      "stateMutability": "nonpayable",
      "type": "function"
    },
    {
      "inputs": [
        {
          "internalType": "string",
          "name": "_hashOfSeekersData",
          "type": "string"
        },
        {
          "internalType": "address",
          "name": "_associatedHospital",
          "type": "address"
        }
      ],
      "name": "addSeeker",
      "outputs": [],
      "stateMutability": "nonpayable",
      "type": "function"
    },
    {
      "inputs": [
        {
          "internalType": "string",
          "name": "_hashOfDonorsData",
          "type": "string"
        }
      ],
      "name": "addDonor",
      "outputs": [],
      "stateMutability": "nonpayable",
      "type": "function"
    },
    {
      "inputs": [
        {
          "internalType": "address",
          "name": "_ethHospital",
          "type": "address"
        },
        {
          "internalType": "string",
          "name": "_hospitalName",
          "type": "string"
        },
        {
          "internalType": "string",
          "name": "_hashOfHospitalsData",
          "type": "string"
        }
      ],
      "name": "addHospital",
      "outputs": [],
      "stateMutability": "nonpayable",
      "type": "function"
    },
    {
      "inputs": [
        {
          "internalType": "address",
          "name": "_ethSeeker",
          "type": "address"
        }
      ],
      "name": "removeSeeker",
      "outputs": [],
      "stateMutability": "nonpayable",
      "type": "function"
    },
    {
      "inputs": [
        {
          "internalType": "address",
          "name": "_ethDonor",
          "type": "address"
        }
      ],
      "name": "removeDonor",
      "outputs": [],
      "stateMutability": "nonpayable",
      "type": "function"
    },
    {
      "inputs": [
        {
          "internalType": "address",
          "name": "_ethHospital",
          "type": "address"
        }
      ],
      "name": "removeHospital",
      "outputs": [],
      "stateMutability": "nonpayable",
      "type": "function"
    },
    {
      "inputs": [
        {
          "internalType": "address",
          "name": "_ethDonor",
          "type": "address"
        }
      ],
      "name": "validateDonor",
      "outputs": [],
      "stateMutability": "nonpayable",
      "type": "function"
    },
    {
      "inputs": [
        {
          "internalType": "address",
          "name": "_ethDonor",
          "type": "address"
        },
        {
          "internalType": "string",
          "name": "_updatedOn",
          "type": "string"
        }
      ],
      "name": "Donation",
      "outputs": [],
      "stateMutability": "nonpayable",
      "type": "function"
    },
    {
      "inputs": [
        {
          "internalType": "uint256",
          "name": "index",
          "type": "uint256"
        },
        {
          "internalType": "string",
          "name": "_updatedOn",
          "type": "string"
        }
      ],
      "name": "Storage",
      "outputs": [],
      "stateMutability": "nonpayable",
      "type": "function"
    },
    {
      "inputs": [
        {
          "internalType": "uint256",
          "name": "index",
          "type": "uint256"
        },
        {
          "internalType": "address",
          "name": "_ethSeeker",
          "type": "address"
        },
        {
          "internalType": "string",
          "name": "_updatedOn",
          "type": "string"
        },
        {
          "internalType": "string",
          "name": "_storageTime",
          "type": "string"
        }
      ],
      "name": "Transfusion",
      "outputs": [],
      "stateMutability": "nonpayable",
      "type": "function"
    },
    {
      "inputs": [
        {
          "internalType": "uint256",
          "name": "index",
          "type": "uint256"
        },
        {
          "internalType": "string",
          "name": "_updatedOn",
          "type": "string"
        }
      ],
      "name": "Complete",
      "outputs": [],
      "stateMutability": "nonpayable",
      "type": "function"
    },
    {
      "inputs": [],
      "name": "totalTransfusions",
      "outputs": [
        {
          "internalType": "uint256",
          "name": "",
          "type": "uint256"
        }
      ],
      "stateMutability": "view",
      "type": "function",
      "constant": true
    }
  ],
  "bytecode": "0x60806040526000805560006001556000600255600060045534801561002357600080fd5b5033600360006101000a81548173ffffffffffffffffffffffffffffffffffffffff021916908373ffffffffffffffffffffffffffffffffffffffff160217905550613e37806100746000396000f3fe608060405234801561001057600080fd5b50600436106101425760003560e01c8063828566fc116100b8578063aedfcf951161007c578063aedfcf9514610a2a578063c3c72d8614610a48578063ca0cdea814610b23578063cf98cab814610c2c578063f093cf8014610c70578063fb5c839814610dbf57610142565b8063828566fc146106605780638775b6a7146107d25780639f5e05b01461095e578063a7f77f66146109a2578063a9698906146109e657610142565b8063265c30c91161010a578063265c30c9146103375780632a5ff5f614610355578063491a5af314610399578063686f625e146104a257806374254290146104d6578063782b51861461059b57610142565b806306d1cd1614610147578063073c560f146101655780631865b87f146102405780632006f84d146102fb57806325c302e414610319575b600080fd5b61014f610f3b565b6040518082815260200191505060405180910390f35b61023e6004803603604081101561017b57600080fd5b810190808035906020019064010000000081111561019857600080fd5b8201836020820111156101aa57600080fd5b803590602001918460018302840111640100000000831117156101cc57600080fd5b91908080601f016020809104026020016040519081016040528093929190818152602001838380828437600081840152601f19601f820116905080830192505050505050509192919290803573ffffffffffffffffffffffffffffffffffffffff169060200190929190505050610f48565b005b6102f96004803603602081101561025657600080fd5b810190808035906020019064010000000081111561027357600080fd5b82018360208201111561028557600080fd5b803590602001918460018302840111640100000000831117156102a757600080fd5b91908080601f016020809104026020016040519081016040528093929190818152602001838380828437600081840152601f19601f820116905080830192505050505050509192919290505050611120565b005b6103036112b5565b6040518082815260200191505060405180910390f35b6103216112bb565b6040518082815260200191505060405180910390f35b61033f6112c1565b6040518082815260200191505060405180910390f35b6103976004803603602081101561036b57600080fd5b81019080803573ffffffffffffffffffffffffffffffffffffffff1690602001909291905050506112c7565b005b6103db600480360360208110156103af57600080fd5b81019080803573ffffffffffffffffffffffffffffffffffffffff1690602001909291905050506115d8565b604051808673ffffffffffffffffffffffffffffffffffffffff168152602001806020018573ffffffffffffffffffffffffffffffffffffffff16815260200184151581526020018315158152602001828103825286818151815260200191508051906020019080838360005b83811015610463578082015181840152602081019050610448565b50505050905090810190601f1680156104905780820380516001836020036101000a031916815260200191505b50965050505050505060405180910390f35b6104aa611700565b604051808273ffffffffffffffffffffffffffffffffffffffff16815260200191505060405180910390f35b610599600480360360408110156104ec57600080fd5b81019080803590602001909291908035906020019064010000000081111561051357600080fd5b82018360208201111561052557600080fd5b8035906020019184600183028401116401000000008311171561054757600080fd5b91908080601f016020809104026020016040519081016040528093929190818152602001838380828437600081840152601f19601f820116905080830192505050505050509192919290505050611726565b005b61065e600480360360408110156105b157600080fd5b8101908080359060200190929190803590602001906401000000008111156105d857600080fd5b8201836020820111156105ea57600080fd5b8035906020019184600183028401116401000000008311171561060c57600080fd5b91908080601f016020809104026020016040519081016040528093929190818152602001838380828437600081840152601f19601f820116905080830192505050505050509192919290505050611bde565b005b6107d06004803603606081101561067657600080fd5b81019080803573ffffffffffffffffffffffffffffffffffffffff169060200190929190803590602001906401000000008111156106b357600080fd5b8201836020820111156106c557600080fd5b803590602001918460018302840111640100000000831117156106e757600080fd5b91908080601f016020809104026020016040519081016040528093929190818152602001838380828437600081840152601f19601f8201169050808301925050505050505091929192908035906020019064010000000081111561074a57600080fd5b82018360208201111561075c57600080fd5b8035906020019184600183028401116401000000008311171561077e57600080fd5b91908080601f016020809104026020016040519081016040528093929190818152602001838380828437600081840152601f19601f820116905080830192505050505050509192919290505050611e58565b005b6107fe600480360360208110156107e857600080fd5b81019080803590602001909291905050506120ae565b604051808981526020018873ffffffffffffffffffffffffffffffffffffffff1681526020018773ffffffffffffffffffffffffffffffffffffffff1681526020018673ffffffffffffffffffffffffffffffffffffffff16815260200185600381111561086857fe5b815260200180602001806020018415158152602001838103835286818151815260200191508051906020019080838360005b838110156108b557808201518184015260208101905061089a565b50505050905090810190601f1680156108e25780820380516001836020036101000a031916815260200191505b50838103825285818151815260200191508051906020019080838360005b8381101561091b578082015181840152602081019050610900565b50505050905090810190601f1680156109485780820380516001836020036101000a031916815260200191505b509a505050505050505050505060405180910390f35b6109a06004803603602081101561097457600080fd5b81019080803573ffffffffffffffffffffffffffffffffffffffff1690602001909291905050506122b0565b005b6109e4600480360360208110156109b857600080fd5b81019080803573ffffffffffffffffffffffffffffffffffffffff169060200190929190505050612581565b005b610a28600480360360208110156109fc57600080fd5b81019080803573ffffffffffffffffffffffffffffffffffffffff1690602001909291905050506127ad565b005b610a326129ad565b6040518082815260200191505060405180910390f35b610b2160048036036040811015610a5e57600080fd5b81019080803573ffffffffffffffffffffffffffffffffffffffff16906020019092919080359060200190640100000000811115610a9b57600080fd5b820183602082011115610aad57600080fd5b80359060200191846001830284011164010000000083111715610acf57600080fd5b91908080601f016020809104026020016040519081016040528093929190818152602001838380828437600081840152601f19601f8201169050808301925050505050505091929192905050506129b3565b005b610b6560048036036020811015610b3957600080fd5b81019080803573ffffffffffffffffffffffffffffffffffffffff169060200190929190505050612ec5565b604051808673ffffffffffffffffffffffffffffffffffffffff168152602001806020018573ffffffffffffffffffffffffffffffffffffffff16815260200184151581526020018315158152602001828103825286818151815260200191508051906020019080838360005b83811015610bed578082015181840152602081019050610bd2565b50505050905090810190601f168015610c1a5780820380516001836020036101000a031916815260200191505b50965050505050505060405180910390f35b610c6e60048036036020811015610c4257600080fd5b81019080803573ffffffffffffffffffffffffffffffffffffffff169060200190929190505050612fed565b005b610cb260048036036020811015610c8657600080fd5b81019080803573ffffffffffffffffffffffffffffffffffffffff169060200190929190505050613325565b604051808573ffffffffffffffffffffffffffffffffffffffff16815260200180602001806020018415158152602001838103835286818151815260200191508051906020019080838360005b83811015610d1a578082015181840152602081019050610cff565b50505050905090810190601f168015610d475780820380516001836020036101000a031916815260200191505b50838103825285818151815260200191508051906020019080838360005b83811015610d80578082015181840152602081019050610d65565b50505050905090810190601f168015610dad5780820380516001836020036101000a031916815260200191505b50965050505050505060405180910390f35b610f3960048036036080811015610dd557600080fd5b8101908080359060200190929190803573ffffffffffffffffffffffffffffffffffffffff16906020019092919080359060200190640100000000811115610e1c57600080fd5b820183602082011115610e2e57600080fd5b80359060200191846001830284011164010000000083111715610e5057600080fd5b91908080601f016020809104026020016040519081016040528093929190818152602001838380828437600081840152601f19601f82011690508083019250505050505050919291929080359060200190640100000000811115610eb357600080fd5b820183602082011115610ec557600080fd5b80359060200191846001830284011164010000000083111715610ee757600080fd5b91908080601f016020809104026020016040519081016040528093929190818152602001838380828437600081840152601f19601f8201169050808301925050505050505091929192905050506134b2565b005b6000600880549050905090565b600560003373ffffffffffffffffffffffffffffffffffffffff1673ffffffffffffffffffffffffffffffffffffffff16815260200190815260200160002060020160159054906101000a900460ff1615610fee576040517f08c379a0000000000000000000000000000000000000000000000000000000008152600401808060200182810382526032815260200180613dd06032913960400191505060405180910390fd5b6000600560003373ffffffffffffffffffffffffffffffffffffffff1673ffffffffffffffffffffffffffffffffffffffff1681526020019081526020016000209050338160000160006101000a81548173ffffffffffffffffffffffffffffffffffffffff021916908373ffffffffffffffffffffffffffffffffffffffff1602179055508281600101908051906020019061108c929190613838565b50818160020160006101000a81548173ffffffffffffffffffffffffffffffffffffffff021916908373ffffffffffffffffffffffffffffffffffffffff16021790555060018160020160156101000a81548160ff02191690831515021790555060008160020160146101000a81548160ff0219169083151502179055506000808154809291906001019190505550505050565b600660003373ffffffffffffffffffffffffffffffffffffffff1673ffffffffffffffffffffffffffffffffffffffff16815260200190815260200160002060020160159054906101000a900460ff16156111c6576040517f08c379a0000000000000000000000000000000000000000000000000000000008152600401808060200182810382526031815260200180613c736031913960400191505060405180910390fd5b6000600660003373ffffffffffffffffffffffffffffffffffffffff1673ffffffffffffffffffffffffffffffffffffffff1681526020019081526020016000209050338160000160006101000a81548173ffffffffffffffffffffffffffffffffffffffff021916908373ffffffffffffffffffffffffffffffffffffffff16021790555081816001019080519060200190611264929190613838565b5060018160020160156101000a81548160ff02191690831515021790555060008160020160146101000a81548160ff0219169083151502179055506001600081548092919060010191905055505050565b60005481565b60015481565b60025481565b80600560008273ffffffffffffffffffffffffffffffffffffffff1673ffffffffffffffffffffffffffffffffffffffff16815260200190815260200160002060020160159054906101000a900460ff1661136d576040517f08c379a000000000000000000000000000000000000000000000000000000000815260040180806020018281038252603b815260200180613ca4603b913960400191505060405180910390fd5b33600760008273ffffffffffffffffffffffffffffffffffffffff1673ffffffffffffffffffffffffffffffffffffffff16815260200190815260200160002060030160009054906101000a900460ff16611413576040517f08c379a000000000000000000000000000000000000000000000000000000000815260040180806020018281038252603d8152602001806139fb603d913960400191505060405180910390fd5b600560008473ffffffffffffffffffffffffffffffffffffffff1673ffffffffffffffffffffffffffffffffffffffff16815260200190815260200160002060020160009054906101000a900473ffffffffffffffffffffffffffffffffffffffff1673ffffffffffffffffffffffffffffffffffffffff163373ffffffffffffffffffffffffffffffffffffffff16146114f9576040517f08c379a0000000000000000000000000000000000000000000000000000000008152600401808060200182810382526038815260200180613cdf6038913960400191505060405180910390fd5b600560008473ffffffffffffffffffffffffffffffffffffffff1673ffffffffffffffffffffffffffffffffffffffff168152602001908152602001600020600080820160006101000a81549073ffffffffffffffffffffffffffffffffffffffff021916905560018201600061157091906138c6565b6002820160006101000a81549073ffffffffffffffffffffffffffffffffffffffff02191690556002820160146101000a81549060ff02191690556002820160156101000a81549060ff02191690555050600080815480929190600190039190505550505050565b60056020528060005260406000206000915090508060000160009054906101000a900473ffffffffffffffffffffffffffffffffffffffff1690806001018054600181600116156101000203166002900480601f0160208091040260200160405190810160405280929190818152602001828054600181600116156101000203166002900480156116aa5780601f1061167f576101008083540402835291602001916116aa565b820191906000526020600020905b81548152906001019060200180831161168d57829003601f168201915b5050505050908060020160009054906101000a900473ffffffffffffffffffffffffffffffffffffffff16908060020160149054906101000a900460ff16908060020160159054906101000a900460ff16905085565b600360009054906101000a900473ffffffffffffffffffffffffffffffffffffffff1681565b6008828154811061173357fe5b906000526020600020906007020160010160009054906101000a900473ffffffffffffffffffffffffffffffffffffffff16600560008273ffffffffffffffffffffffffffffffffffffffff1673ffffffffffffffffffffffffffffffffffffffff16815260200190815260200160002060020160159054906101000a900460ff1661180a576040517f08c379a000000000000000000000000000000000000000000000000000000000815260040180806020018281038252603b815260200180613ca4603b913960400191505060405180910390fd5b6008838154811061181757fe5b906000526020600020906007020160020160009054906101000a900473ffffffffffffffffffffffffffffffffffffffff16600660008273ffffffffffffffffffffffffffffffffffffffff1673ffffffffffffffffffffffffffffffffffffffff16815260200190815260200160002060020160159054906101000a900460ff166118ee576040517f08c379a000000000000000000000000000000000000000000000000000000000815260040180806020018281038252603a815260200180613bdc603a913960400191505060405180910390fd5b33600760008273ffffffffffffffffffffffffffffffffffffffff1673ffffffffffffffffffffffffffffffffffffffff16815260200190815260200160002060030160009054906101000a900460ff16611994576040517f08c379a000000000000000000000000000000000000000000000000000000000815260040180806020018281038252603d8152602001806139fb603d913960400191505060405180910390fd5b600260038111156119a157fe5b600886815481106119ae57fe5b906000526020600020906007020160030160149054906101000a900460ff1660038111156119d857fe5b14611a2e576040517f08c379a000000000000000000000000000000000000000000000000000000000815260040180806020018281038252603e815260200180613a78603e913960400191505060405180910390fd5b6005600060088781548110611a3f57fe5b906000526020600020906007020160010160009054906101000a900473ffffffffffffffffffffffffffffffffffffffff1673ffffffffffffffffffffffffffffffffffffffff1673ffffffffffffffffffffffffffffffffffffffff16815260200190815260200160002060020160009054906101000a900473ffffffffffffffffffffffffffffffffffffffff1673ffffffffffffffffffffffffffffffffffffffff163373ffffffffffffffffffffffffffffffffffffffff1614611b52576040517f08c379a000000000000000000000000000000000000000000000000000000000815260040180806020018281038252606081526020018061392c6060913960600191505060405180910390fd5b600360088681548110611b6157fe5b906000526020600020906007020160030160146101000a81548160ff02191690836003811115611b8d57fe5b02179055508360088681548110611ba057fe5b90600052602060002090600702016005019080519060200190611bc4929190613838565b506004600081548092919060010191905055505050505050565b33600760008273ffffffffffffffffffffffffffffffffffffffff1673ffffffffffffffffffffffffffffffffffffffff16815260200190815260200160002060030160009054906101000a900460ff16611c84576040517f08c379a000000000000000000000000000000000000000000000000000000000815260040180806020018281038252603d8152602001806139fb603d913960400191505060405180910390fd5b60006003811115611c9157fe5b60088481548110611c9e57fe5b906000526020600020906007020160030160149054906101000a900460ff166003811115611cc857fe5b14611d1e576040517f08c379a0000000000000000000000000000000000000000000000000000000008152600401808060200182810382526048815260200180613b436048913960600191505060405180910390fd5b3373ffffffffffffffffffffffffffffffffffffffff1660088481548110611d4257fe5b906000526020600020906007020160030160009054906101000a900473ffffffffffffffffffffffffffffffffffffffff1673ffffffffffffffffffffffffffffffffffffffff1614611de0576040517f08c379a0000000000000000000000000000000000000000000000000000000008152600401808060200182810382526051815260200180613d176051913960600191505060405180910390fd5b600160088481548110611def57fe5b906000526020600020906007020160030160146101000a81548160ff02191690836003811115611e1b57fe5b02179055508160088481548110611e2e57fe5b90600052602060002090600702016005019080519060200190611e52929190613838565b50505050565b600360009054906101000a900473ffffffffffffffffffffffffffffffffffffffff1673ffffffffffffffffffffffffffffffffffffffff163373ffffffffffffffffffffffffffffffffffffffff1614611efe576040517f08c379a0000000000000000000000000000000000000000000000000000000008152600401808060200182810382526038815260200180613c166038913960400191505060405180910390fd5b600760008473ffffffffffffffffffffffffffffffffffffffff1673ffffffffffffffffffffffffffffffffffffffff16815260200190815260200160002060030160009054906101000a900460ff1615611fc1576040517f08c379a000000000000000000000000000000000000000000000000000000000815260040180806020018281038252601f8152602001807f5468697320486f73706974616c20697320616c7265616479206164646564210081525060200191505060405180910390fd5b6000600760008573ffffffffffffffffffffffffffffffffffffffff1673ffffffffffffffffffffffffffffffffffffffff1681526020019081526020016000209050838160000160006101000a81548173ffffffffffffffffffffffffffffffffffffffff021916908373ffffffffffffffffffffffffffffffffffffffff1602179055508281600101908051906020019061205f929190613838565b5081816002019080519060200190612078929190613838565b5060018160030160006101000a81548160ff02191690831515021790555060026000815480929190600101919050555050505050565b600881815481106120be57600080fd5b90600052602060002090600702016000915090508060000154908060010160009054906101000a900473ffffffffffffffffffffffffffffffffffffffff16908060020160009054906101000a900473ffffffffffffffffffffffffffffffffffffffff16908060030160009054906101000a900473ffffffffffffffffffffffffffffffffffffffff16908060030160149054906101000a900460ff1690806004018054600181600116156101000203166002900480601f0160208091040260200160405190810160405280929190818152602001828054600181600116156101000203166002900480156121f55780601f106121ca576101008083540402835291602001916121f5565b820191906000526020600020905b8154815290600101906020018083116121d857829003601f168201915b505050505090806005018054600181600116156101000203166002900480601f0160208091040260200160405190810160405280929190818152602001828054600181600116156101000203166002900480156122935780601f1061226857610100808354040283529160200191612293565b820191906000526020600020905b81548152906001019060200180831161227657829003601f168201915b5050505050908060060160009054906101000a900460ff16905088565b80600660008273ffffffffffffffffffffffffffffffffffffffff1673ffffffffffffffffffffffffffffffffffffffff16815260200190815260200160002060020160159054906101000a900460ff16612356576040517f08c379a000000000000000000000000000000000000000000000000000000000815260040180806020018281038252603a815260200180613bdc603a913960400191505060405180910390fd5b600760003373ffffffffffffffffffffffffffffffffffffffff1673ffffffffffffffffffffffffffffffffffffffff16815260200190815260200160002060030160009054906101000a900460ff166123fb576040517f08c379a0000000000000000000000000000000000000000000000000000000008152600401808060200182810382526048815260200180613afb6048913960600191505060405180910390fd5b600660008373ffffffffffffffffffffffffffffffffffffffff1673ffffffffffffffffffffffffffffffffffffffff16815260200190815260200160002060020160149054906101000a900460ff16156124a1576040517f08c379a00000000000000000000000000000000000000000000000000000000081526004018080602001828103825260248152602001806139d76024913960400191505060405180910390fd5b33600660008473ffffffffffffffffffffffffffffffffffffffff1673ffffffffffffffffffffffffffffffffffffffff16815260200190815260200160002060020160006101000a81548173ffffffffffffffffffffffffffffffffffffffff021916908373ffffffffffffffffffffffffffffffffffffffff1602179055506001600660008473ffffffffffffffffffffffffffffffffffffffff1673ffffffffffffffffffffffffffffffffffffffff16815260200190815260200160002060020160146101000a81548160ff0219169083151502179055505050565b80600660008273ffffffffffffffffffffffffffffffffffffffff1673ffffffffffffffffffffffffffffffffffffffff16815260200190815260200160002060020160159054906101000a900460ff16612627576040517f08c379a000000000000000000000000000000000000000000000000000000000815260040180806020018281038252603a815260200180613bdc603a913960400191505060405180910390fd5b33600760008273ffffffffffffffffffffffffffffffffffffffff1673ffffffffffffffffffffffffffffffffffffffff16815260200190815260200160002060030160009054906101000a900460ff166126cd576040517f08c379a000000000000000000000000000000000000000000000000000000000815260040180806020018281038252603d8152602001806139fb603d913960400191505060405180910390fd5b600660008473ffffffffffffffffffffffffffffffffffffffff1673ffffffffffffffffffffffffffffffffffffffff168152602001908152602001600020600080820160006101000a81549073ffffffffffffffffffffffffffffffffffffffff021916905560018201600061274491906138c6565b6002820160006101000a81549073ffffffffffffffffffffffffffffffffffffffff02191690556002820160146101000a81549060ff02191690556002820160156101000a81549060ff0219169055505060016000815480929190600190039190505550505050565b600360009054906101000a900473ffffffffffffffffffffffffffffffffffffffff1673ffffffffffffffffffffffffffffffffffffffff163373ffffffffffffffffffffffffffffffffffffffff1614612853576040517f08c379a0000000000000000000000000000000000000000000000000000000008152600401808060200182810382526038815260200180613c166038913960400191505060405180910390fd5b80600760008273ffffffffffffffffffffffffffffffffffffffff1673ffffffffffffffffffffffffffffffffffffffff16815260200190815260200160002060030160009054906101000a900460ff166128f9576040517f08c379a000000000000000000000000000000000000000000000000000000000815260040180806020018281038252603d8152602001806139fb603d913960400191505060405180910390fd5b600760008373ffffffffffffffffffffffffffffffffffffffff1673ffffffffffffffffffffffffffffffffffffffff168152602001908152602001600020600080820160006101000a81549073ffffffffffffffffffffffffffffffffffffffff021916905560018201600061297091906138c6565b60028201600061298091906138c6565b6003820160006101000a81549060ff02191690555050600260008154809291906001900391905055505050565b60045481565b81600660008273ffffffffffffffffffffffffffffffffffffffff1673ffffffffffffffffffffffffffffffffffffffff16815260200190815260200160002060020160159054906101000a900460ff16612a59576040517f08c379a000000000000000000000000000000000000000000000000000000000815260040180806020018281038252603a815260200180613bdc603a913960400191505060405180910390fd5b33600760008273ffffffffffffffffffffffffffffffffffffffff1673ffffffffffffffffffffffffffffffffffffffff16815260200190815260200160002060030160009054906101000a900460ff16612aff576040517f08c379a000000000000000000000000000000000000000000000000000000000815260040180806020018281038252603d8152602001806139fb603d913960400191505060405180910390fd5b600660008573ffffffffffffffffffffffffffffffffffffffff1673ffffffffffffffffffffffffffffffffffffffff16815260200190815260200160002060020160149054906101000a900460ff16612ba4576040517f08c379a0000000000000000000000000000000000000000000000000000000008152600401808060200182810382526051815260200180613b8b6051913960600191505060405180910390fd5b3373ffffffffffffffffffffffffffffffffffffffff16600660008673ffffffffffffffffffffffffffffffffffffffff1673ffffffffffffffffffffffffffffffffffffffff16815260200190815260200160002060020160009054906101000a900473ffffffffffffffffffffffffffffffffffffffff1673ffffffffffffffffffffffffffffffffffffffff1614612c8a576040517f08c379a000000000000000000000000000000000000000000000000000000000815260040180806020018281038252604b81526020018061398c604b913960600191505060405180910390fd5b60006040518061010001604052806008805490508152602001600073ffffffffffffffffffffffffffffffffffffffff1681526020018673ffffffffffffffffffffffffffffffffffffffff1681526020013373ffffffffffffffffffffffffffffffffffffffff16815260200160006003811115612d0557fe5b815260200160405180602001604052806000815250815260200185815260200160011515815250905060088190806001815401808255809150506001900390600052602060002090600702016000909190919091506000820151816000015560208201518160010160006101000a81548173ffffffffffffffffffffffffffffffffffffffff021916908373ffffffffffffffffffffffffffffffffffffffff16021790555060408201518160020160006101000a81548173ffffffffffffffffffffffffffffffffffffffff021916908373ffffffffffffffffffffffffffffffffffffffff16021790555060608201518160030160006101000a81548173ffffffffffffffffffffffffffffffffffffffff021916908373ffffffffffffffffffffffffffffffffffffffff16021790555060808201518160030160146101000a81548160ff02191690836003811115612e5d57fe5b021790555060a0820151816004019080519060200190612e7e929190613838565b5060c0820151816005019080519060200190612e9b929190613838565b5060e08201518160060160006101000a81548160ff02191690831515021790555050505050505050565b60066020528060005260406000206000915090508060000160009054906101000a900473ffffffffffffffffffffffffffffffffffffffff1690806001018054600181600116156101000203166002900480601f016020809104026020016040519081016040528092919081815260200182805460018160011615610100020316600290048015612f975780601f10612f6c57610100808354040283529160200191612f97565b820191906000526020600020905b815481529060010190602001808311612f7a57829003601f168201915b5050505050908060020160009054906101000a900473ffffffffffffffffffffffffffffffffffffffff16908060020160149054906101000a900460ff16908060020160159054906101000a900460ff16905085565b80600560008273ffffffffffffffffffffffffffffffffffffffff1673ffffffffffffffffffffffffffffffffffffffff16815260200190815260200160002060020160159054906101000a900460ff16613093576040517f08c379a000000000000000000000000000000000000000000000000000000000815260040180806020018281038252603b815260200180613ca4603b913960400191505060405180910390fd5b33600760008273ffffffffffffffffffffffffffffffffffffffff1673ffffffffffffffffffffffffffffffffffffffff16815260200190815260200160002060030160009054906101000a900460ff16613139576040517f08c379a000000000000000000000000000000000000000000000000000000000815260040180806020018281038252603d8152602001806139fb603d913960400191505060405180910390fd5b600560008473ffffffffffffffffffffffffffffffffffffffff1673ffffffffffffffffffffffffffffffffffffffff16815260200190815260200160002060020160009054906101000a900473ffffffffffffffffffffffffffffffffffffffff1673ffffffffffffffffffffffffffffffffffffffff163373ffffffffffffffffffffffffffffffffffffffff161461321f576040517f08c379a0000000000000000000000000000000000000000000000000000000008152600401808060200182810382526068815260200180613d686068913960800191505060405180910390fd5b600560008473ffffffffffffffffffffffffffffffffffffffff1673ffffffffffffffffffffffffffffffffffffffff16815260200190815260200160002060020160149054906101000a900460ff16156132c5576040517f08c379a0000000000000000000000000000000000000000000000000000000008152600401808060200182810382526025815260200180613c4e6025913960400191505060405180910390fd5b6001600560008573ffffffffffffffffffffffffffffffffffffffff1673ffffffffffffffffffffffffffffffffffffffff16815260200190815260200160002060020160146101000a81548160ff021916908315150217905550505050565b60076020528060005260406000206000915090508060000160009054906101000a900473ffffffffffffffffffffffffffffffffffffffff1690806001018054600181600116156101000203166002900480601f0160208091040260200160405190810160405280929190818152602001828054600181600116156101000203166002900480156133f75780601f106133cc576101008083540402835291602001916133f7565b820191906000526020600020905b8154815290600101906020018083116133da57829003601f168201915b505050505090806002018054600181600116156101000203166002900480601f0160208091040260200160405190810160405280929190818152602001828054600181600116156101000203166002900480156134955780601f1061346a57610100808354040283529160200191613495565b820191906000526020600020905b81548152906001019060200180831161347857829003601f168201915b5050505050908060030160009054906101000a900460ff16905084565b600160038111156134bf57fe5b600885815481106134cc57fe5b906000526020600020906007020160030160149054906101000a900460ff1660038111156134f657fe5b1461354c576040517f08c379a0000000000000000000000000000000000000000000000000000000008152600401808060200182810382526045815260200180613ab66045913960600191505060405180910390fd5b600560008473ffffffffffffffffffffffffffffffffffffffff1673ffffffffffffffffffffffffffffffffffffffff16815260200190815260200160002060020160159054906101000a900460ff1680156135f45750600760003373ffffffffffffffffffffffffffffffffffffffff1673ffffffffffffffffffffffffffffffffffffffff16815260200190815260200160002060030160009054906101000a900460ff165b613649576040517f08c379a0000000000000000000000000000000000000000000000000000000008152600401808060200182810382526040815260200180613a386040913960400191505060405180910390fd5b600560008473ffffffffffffffffffffffffffffffffffffffff1673ffffffffffffffffffffffffffffffffffffffff16815260200190815260200160002060020160009054906101000a900473ffffffffffffffffffffffffffffffffffffffff1673ffffffffffffffffffffffffffffffffffffffff163373ffffffffffffffffffffffffffffffffffffffff161461372f576040517f08c379a000000000000000000000000000000000000000000000000000000000815260040180806020018281038252606081526020018061392c6060913960600191505060405180910390fd5b826008858154811061373d57fe5b906000526020600020906007020160010160006101000a81548173ffffffffffffffffffffffffffffffffffffffff021916908373ffffffffffffffffffffffffffffffffffffffff16021790555060026008858154811061379b57fe5b906000526020600020906007020160030160146101000a81548160ff021916908360038111156137c757fe5b021790555081600885815481106137da57fe5b906000526020600020906007020160050190805190602001906137fe929190613838565b50806008858154811061380d57fe5b90600052602060002090600702016004019080519060200190613831929190613838565b5050505050565b828054600181600116156101000203166002900490600052602060002090601f01602090048101928261386e57600085556138b5565b82601f1061388757805160ff19168380011785556138b5565b828001600101855582156138b5579182015b828111156138b4578251825591602001919060010190613899565b5b5090506138c2919061390e565b5090565b50805460018160011615610100020316600290046000825580601f106138ec575061390b565b601f01602090049060005260206000209081019061390a919061390e565b5b50565b5b8082111561392757600081600090555060010161390f565b509056fe546865207472616e73667573696f6e2064657461696c732063616e206f6e6c792062652061646465642062792074686520686f73706974616c20696e207768696368207468652070617469656e74206973206265696e6720747265617465642e446f6e6174696f6e20696e666f726d6174696f6e206d7573742062652061646465642062792074686520686f73706974616c2077686f2076616c6964617465642074686520646f6e6f722e54686520446f6e6f722068617320616c7265616479206265656e2076616c696461746564486f73706974616c20776974682074686520676976656e206164647265737320646f65736e277420657869737420696e20746865206e6574776f726b2e436865636b20616761696e207468617420626f7468207365656b657220616e6420686f73706974616c2061726520616464656420696e746f206e6574776f726b5468652072657175657374206f66207472616e667573696f6e206d75737420626520617070726f766564207072696f7220746f207468697320737465702e4265666f726520676f696e672061686561642077697468207472616e73667573696f6e20706861736520616464207468652073746f7261676520696e666f726d6174696f6e596f75206d757374206265206164646564206173206120686f73706974616c20746f20746865206e6574776f726b20746f20706572666f726d2074686973206f7065726174696f6e4265666f726520676f696e672061686561642077697468207468652073746f72616765207068617365206164642074686520646f6e6174696f6e20696e666f726d6174696f6e2e2046697273742074686520646f6e6f72206e6565647320746f2062652076616c6964617465642062792074686520686f73706974616c20696e206f7264657220746f20616464207472616e73667573696f6e446f6e6f7220776974682074686520676976656e206164647265737320646f65736e277420657869737420696e20746865206e6574776f726b2e596f7520646f206e6f7420686176652074686520617574686f7269747920746f20706572666f726d2074686973206f7065726174696f6e21546865207365656b65722068617320616c7265616479206265656e2076616c6964617465645573657220776974682074686973206164647265737320616c726561647920657869737473206173206120646f6e6f72215365656b657220776974682074686520676976656e206164647265737320646f65736e277420657869737420696e20746865206e6574776f726b2e596f7520646f206e6f7420686176652074686520617574686f7269747920746f20706572666f726d2074686973206f7065726174696f6e2e4f6e6c7920746865206173736f63696174656420686f73706974616c206861732074686520617574686f7269747920746f206d6f6469667920746865207374617465206f66207472616e73667573696f6e4163636573732044656e6965642120596f7520646f206e6f7420686176652074686520617574686f7269747920746f2076616c69646174652061732070617469656e74206973206e6f74206173736f6369617465642077697468207468697320686f73706974616c5573657220776974682074686973206164647265737320616c7265616479206578697374732061732061207365656b657221a26469706673582212202d1a1b9382d51bb9f9ce6c53d938bf59341fcf2a0b0bfade9a310f0c2ac64b6a64736f6c63430007060033",
  "immutableReferences": {},
  "source": "// SPDX-License-Identifier: GPL-3.0\r\npragma solidity >=0.7.0 <0.9.0;\r\n\r\ncontract PlasmaDonation {\r\n    uint256 public totalSeekers = 0; //state variable that keeps the track of total seekers in the system.\r\n    uint256 public totalDonors = 0; //state variable that keeps the track of total Donors in the system.\r\n    uint256 public totalHospitals = 0; //state variable that keeps track of total Hospitals in the system.\r\n\r\n    //state variable that stores address of creator of contract with access of admin level.\r\n    address public plasmaManager;\r\n\r\n    //enumeration that stores the status of transfusion\r\n    enum status {\r\n        requestInitiated,\r\n        requestAdded,\r\n        requestApproved,\r\n        requestCompleted\r\n    }\r\n\r\n    //State variable that keeps track of successfully completed transfusions\r\n    uint256 public totalCompletedTransfusions = 0;\r\n\r\n    //structure to create a new datatype Seeker\r\n    struct Seeker {\r\n        address ethSeeker;\r\n        string hashOfSeekersData;\r\n        address associatedHospital;\r\n        bool isSeekerEligible;\r\n        bool exist;\r\n    }\r\n\r\n    //mappings that store data of Seeker.\r\n    mapping(address => Seeker) public seekers;\r\n\r\n    //structure to create a new datatype Donor.\r\n    struct Donor {\r\n        address ethDonor;\r\n        string hashOfDonorsData;\r\n        address associatedHospital;\r\n        bool isDonorEligible;\r\n        bool exist;\r\n    }\r\n\r\n    //mappings that store data of Donor.\r\n    mapping(address => Donor) public donors;\r\n\r\n    //structure to create a new datatype Hospital.\r\n    struct Hospital {\r\n        address ethHospital;\r\n        string hospitalName;\r\n        string hashOfHospitalsData;\r\n        bool exist;\r\n    }\r\n    //mappings that store data of Hospital.\r\n    mapping(address => Hospital) public hospitals;\r\n\r\n    //structure to create a new datatype TransfusionState\r\n    struct TransfusionState {\r\n        uint256 indexOfTransfusion;\r\n        address ethSeeker;\r\n        address ethDonor;\r\n        address ethHospital;\r\n        status stateOfTransfusion;\r\n        string storageTime;\r\n        string updatedOn;\r\n        bool exist;\r\n    }\r\n\r\n    //Array of transfusions;\r\n    TransfusionState[] public transfusions;\r\n\r\n    //Assures that the function is only invoked by the plasma Manager\r\n    modifier onlyManager() {\r\n        require(\r\n            msg.sender == plasmaManager,\r\n            \"You do not have the authority to perform this operation!\"\r\n        );\r\n        _;\r\n    }\r\n\r\n    //Checks the existence of Seeker in Network.\r\n    modifier checkSeekerExist(address _ethSeeker) {\r\n        require(\r\n            seekers[_ethSeeker].exist,\r\n            \"Seeker with the given address doesn't exist in the network.\"\r\n        );\r\n        _;\r\n    }\r\n\r\n    //Checks existence of Donor in the Network.\r\n    modifier checkDonorExist(address _ethDonor) {\r\n        require(\r\n            donors[_ethDonor].exist,\r\n            \"Donor with the given address doesn't exist in the network.\"\r\n        );\r\n        _;\r\n    }\r\n\r\n    //Checks existence of Hospital in Network.\r\n    modifier checkHospitalExist(address _ethHospital) {\r\n        require(\r\n            hospitals[_ethHospital].exist,\r\n            \"Hospital with the given address doesn't exist in the network.\"\r\n        );\r\n        _;\r\n    }\r\n\r\n    //The constructor assigns the deployer of contract as plasmaManager.\r\n    constructor() {\r\n        plasmaManager = msg.sender;\r\n    }\r\n\r\n    //The hospital with which the seeker is associated validates the seeker and verifies that s/he is eligible or not.\r\n    function validateSeeker(address _ethSeeker)\r\n        public\r\n        checkSeekerExist(_ethSeeker)\r\n        checkHospitalExist(msg.sender)\r\n    {\r\n        require(\r\n            msg.sender == seekers[_ethSeeker].associatedHospital,\r\n            \"Access Denied! You do not have the authority to validate as patient is not associated with this hospital\"\r\n        );\r\n        require(\r\n            !seekers[_ethSeeker].isSeekerEligible,\r\n            \"The seeker has already been validated\"\r\n        );\r\n        seekers[_ethSeeker].isSeekerEligible = true;\r\n    }\r\n\r\n    //Adds the seeker data onto the network.\r\n    function addSeeker(\r\n        string memory _hashOfSeekersData,\r\n        address _associatedHospital\r\n    ) public {\r\n        //checks whether the seeker is already added or not.\r\n        require(\r\n            !seekers[msg.sender].exist,\r\n            \"User with this address already exists as a seeker!\"\r\n        );\r\n        Seeker storage seeker = seekers[msg.sender];\r\n        seeker.ethSeeker = msg.sender;\r\n        seeker.hashOfSeekersData = _hashOfSeekersData;\r\n        seeker.associatedHospital = _associatedHospital;\r\n        seeker.exist = true; //Indicates that the seeker is now a part of the network.\r\n        seeker.isSeekerEligible = false;\r\n        totalSeekers++;\r\n    }\r\n\r\n    // Donor is added to the network.\r\n    function addDonor(string memory _hashOfDonorsData) public {\r\n        //checks whether the donor is already added or not.\r\n        require(\r\n            !donors[msg.sender].exist,\r\n            \"User with this address already exists as a donor!\"\r\n        );\r\n        Donor storage donor = donors[msg.sender];\r\n        donor.ethDonor = msg.sender;\r\n        donor.hashOfDonorsData = _hashOfDonorsData;\r\n        donor.exist = true; //Indicates that the donor is now a part of the network.\r\n        donor.isDonorEligible = false;\r\n        totalDonors++;\r\n    }\r\n\r\n    // Hospital is added to the network.\r\n    function addHospital(\r\n        address _ethHospital,\r\n        string memory _hospitalName,\r\n        string memory _hashOfHospitalsData\r\n    ) public onlyManager {\r\n        //checks whether the hospital is already added or not.\r\n        require(\r\n            !hospitals[_ethHospital].exist,\r\n            \"This Hospital is already added!\"\r\n        );\r\n\r\n        Hospital storage hospital = hospitals[_ethHospital];\r\n        hospital.ethHospital = _ethHospital;\r\n        hospital.hospitalName = _hospitalName;\r\n        hospital.hashOfHospitalsData = _hashOfHospitalsData;\r\n        hospital.exist = true; //Indicates that the hospital is now a part of the network.\r\n        totalHospitals++;\r\n    }\r\n\r\n    //removes the seeker if S/he turns out to be malicious. This operation can only be performed by the hospital.\r\n    function removeSeeker(address _ethSeeker)\r\n        public\r\n        checkSeekerExist(_ethSeeker)\r\n        checkHospitalExist(msg.sender)\r\n    {\r\n        require(\r\n            msg.sender == seekers[_ethSeeker].associatedHospital,\r\n            \"You do not have the authority to perform this operation.\"\r\n        );\r\n        delete seekers[_ethSeeker]; // deletes the information of seeker from mappings seeker.\r\n        totalSeekers--;\r\n    }\r\n\r\n    //removes the donor if S/he turns out to be malicious. This operation can only be performed by any Hospital.\r\n    function removeDonor(address _ethDonor)\r\n        public\r\n        checkDonorExist(_ethDonor)\r\n        checkHospitalExist(msg.sender)\r\n    {\r\n        delete donors[_ethDonor];\r\n        totalDonors--;\r\n    }\r\n\r\n    //removes the hospital if it turns out to be malicious. This operation can only be performed by Manager.\r\n    function removeHospital(address _ethHospital)\r\n        public\r\n        onlyManager\r\n        checkHospitalExist(_ethHospital)\r\n    {\r\n        delete hospitals[_ethHospital];\r\n        totalHospitals--;\r\n    }\r\n\r\n    //Hospital validates the Donor before collecting Plasma.\r\n    function validateDonor(address _ethDonor)\r\n        public\r\n        checkDonorExist(_ethDonor)\r\n    {\r\n        require(\r\n            hospitals[msg.sender].exist,\r\n            \"You must be added as a hospital to the network to perform this operation\"\r\n        );\r\n        require(\r\n            !donors[_ethDonor].isDonorEligible,\r\n            \"The Donor has already been validated\"\r\n        );\r\n        donors[_ethDonor].associatedHospital = msg.sender;\r\n        donors[_ethDonor].isDonorEligible = true;\r\n    }\r\n\r\n    //Information about the Donation when the plasma is collected from the donor before transfusing it to any patient.\r\n    function Donation(address _ethDonor, string memory _updatedOn)\r\n        public\r\n        checkDonorExist(_ethDonor)\r\n        checkHospitalExist(msg.sender)\r\n    {\r\n        require(\r\n            donors[_ethDonor].isDonorEligible,\r\n            \"First the donor needs to be validated by the hospital in order to add transfusion\"\r\n        );\r\n        require(\r\n            donors[_ethDonor].associatedHospital == msg.sender,\r\n            \"Donation information must be added by the hospital who validated the donor.\"\r\n        );\r\n\r\n        TransfusionState memory newTransfusion =\r\n            TransfusionState({\r\n                indexOfTransfusion: transfusions.length,\r\n                ethSeeker: //As the plasma is not transfused yet, initializing seekers address.\r\n                0x0000000000000000000000000000000000000000,\r\n                ethDonor: _ethDonor,\r\n                ethHospital: msg.sender,\r\n                stateOfTransfusion: status.requestInitiated,\r\n                storageTime: \"\", //initializing the storage time\r\n                updatedOn: _updatedOn, //adding the donation timestamp to the array timeStamps.\r\n                exist: true\r\n            });\r\n        transfusions.push(newTransfusion);\r\n    }\r\n\r\n    //Adding the storage phase information.\r\n    function Storage(uint256 index, string memory _updatedOn)\r\n        public\r\n        checkHospitalExist(msg.sender)\r\n    {\r\n        require(\r\n            transfusions[index].stateOfTransfusion == status.requestInitiated,\r\n            \"Before going ahead with the storage phase add the donation information. \"\r\n        );\r\n        require(\r\n            transfusions[index].ethHospital == msg.sender,\r\n            \"Only the associated hospital has the authority to modify the state of transfusion\"\r\n        );\r\n\r\n        transfusions[index].stateOfTransfusion = status.requestAdded;\r\n        transfusions[index].updatedOn = _updatedOn;\r\n    }\r\n\r\n    //Associating the patient that is transfused with the donor's Plasma.\r\n    function Transfusion(\r\n        uint256 index,\r\n        address _ethSeeker,\r\n        string memory _updatedOn,\r\n        string memory _storageTime\r\n    ) public {\r\n        require(\r\n            transfusions[index].stateOfTransfusion == status.requestAdded,\r\n            \"Before going ahead with transfusion phase add the storage information\"\r\n        );\r\n        require(\r\n            seekers[_ethSeeker].exist && hospitals[msg.sender].exist,\r\n            \"Check again that both seeker and hospital are added into network\"\r\n        );\r\n        require(\r\n            msg.sender == seekers[_ethSeeker].associatedHospital,\r\n            \"The transfusion details can only be added by the hospital in which the patient is being treated.\"\r\n        );\r\n\r\n        transfusions[index].ethSeeker = _ethSeeker;\r\n        transfusions[index].stateOfTransfusion = status.requestApproved;\r\n        transfusions[index].updatedOn = _updatedOn;\r\n        transfusions[index].storageTime = _storageTime;\r\n    }\r\n\r\n    //The Transfusion completed successfully.\r\n    function Complete(uint256 index, string memory _updatedOn)\r\n        public\r\n        checkSeekerExist(transfusions[index].ethSeeker)\r\n        checkDonorExist(transfusions[index].ethDonor)\r\n        checkHospitalExist(msg.sender)\r\n    {\r\n        require(\r\n            transfusions[index].stateOfTransfusion == status.requestApproved,\r\n            \"The request of tranfusion must be approved prior to this step.\"\r\n        );\r\n        require(\r\n            msg.sender ==\r\n                seekers[transfusions[index].ethSeeker].associatedHospital,\r\n            \"The transfusion details can only be added by the hospital in which the patient is being treated.\"\r\n        );\r\n\r\n        transfusions[index].stateOfTransfusion = status.requestCompleted;\r\n        transfusions[index].updatedOn = _updatedOn;\r\n        totalCompletedTransfusions++;\r\n    }\r\n\r\n    //returns total existing transfusions in the system.\r\n    function totalTransfusions() public view returns (uint256) {\r\n        return transfusions.length;\r\n    }\r\n}\r\n",
  "sourcePath": "C:/Users/Dell/Desktop/Plasma Donation/contracts/PlasmaDonation.sol",
  "compiler": {
    "name": "solc",
    "version": "0.7.6+commit.7338295f.Emscripten.clang"
  },
  "schemaVersion": "3.3.4",
  "updatedAt": "2021-04-16T04:02:10.156Z",
  "networkType": "ethereum",
  "devdoc": {
    "kind": "dev",
    "methods": {},
    "version": 1
  },
  "userdoc": {
    "kind": "user",
    "methods": {},
    "version": 1
  }
}