{
  "contractName": "PlasmaDonation",
  "abi": [
    {
      "inputs": [],
      "stateMutability": "nonpayable",
      "type": "constructor"
    },
    {
      "inputs": [
        {
          "internalType": "address",
          "name": "",
          "type": "address"
        }
      ],
      "name": "donors",
      "outputs": [
        {
          "internalType": "address",
          "name": "ethDonor",
          "type": "address"
        },
        {
          "internalType": "string",
          "name": "hashOfDonorsData",
          "type": "string"
        },
        {
          "internalType": "address",
          "name": "associatedHospital",
          "type": "address"
        },
        {
          "internalType": "bool",
          "name": "isDonorEligible",
          "type": "bool"
        },
        {
          "internalType": "bool",
          "name": "exist",
          "type": "bool"
        }
      ],
      "stateMutability": "view",
      "type": "function",
      "constant": true
    },
    {
      "inputs": [
        {
          "internalType": "address",
          "name": "",
          "type": "address"
        }
      ],
      "name": "hospitals",
      "outputs": [
        {
          "internalType": "address",
          "name": "ethHospital",
          "type": "address"
        },
        {
          "internalType": "string",
          "name": "hospitalName",
          "type": "string"
        },
        {
          "internalType": "string",
          "name": "hashOfHospitalsData",
          "type": "string"
        },
        {
          "internalType": "bool",
          "name": "exist",
          "type": "bool"
        }
      ],
      "stateMutability": "view",
      "type": "function",
      "constant": true
    },
    {
      "inputs": [
        {
          "internalType": "address",
          "name": "",
          "type": "address"
        }
      ],
      "name": "indexOfDonor",
      "outputs": [
        {
          "internalType": "uint256",
          "name": "",
          "type": "uint256"
        }
      ],
      "stateMutability": "view",
      "type": "function",
      "constant": true
    },
    {
      "inputs": [
        {
          "internalType": "address",
          "name": "",
          "type": "address"
        }
      ],
      "name": "indexOfHospital",
      "outputs": [
        {
          "internalType": "uint256",
          "name": "",
          "type": "uint256"
        }
      ],
      "stateMutability": "view",
      "type": "function",
      "constant": true
    },
    {
      "inputs": [
        {
          "internalType": "address",
          "name": "",
          "type": "address"
        }
      ],
      "name": "indexOfSeeker",
      "outputs": [
        {
          "internalType": "uint256",
          "name": "",
          "type": "uint256"
        }
      ],
      "stateMutability": "view",
      "type": "function",
      "constant": true
    },
    {
      "inputs": [],
      "name": "plasmaManager",
      "outputs": [
        {
          "internalType": "address",
          "name": "",
          "type": "address"
        }
      ],
      "stateMutability": "view",
      "type": "function",
      "constant": true
    },
    {
      "inputs": [
        {
          "internalType": "address",
          "name": "",
          "type": "address"
        }
      ],
      "name": "seekers",
      "outputs": [
        {
          "internalType": "address",
          "name": "ethSeeker",
          "type": "address"
        },
        {
          "internalType": "string",
          "name": "hashOfSeekersData",
          "type": "string"
        },
        {
          "internalType": "address",
          "name": "associatedHospital",
          "type": "address"
        },
        {
          "internalType": "bool",
          "name": "isSeekerEligible",
          "type": "bool"
        },
        {
          "internalType": "bool",
          "name": "exist",
          "type": "bool"
        }
      ],
      "stateMutability": "view",
      "type": "function",
      "constant": true
    },
    {
      "inputs": [],
      "name": "totalCompletedTransfusions",
      "outputs": [
        {
          "internalType": "uint256",
          "name": "",
          "type": "uint256"
        }
      ],
      "stateMutability": "view",
      "type": "function",
      "constant": true
    },
    {
      "inputs": [
        {
          "internalType": "uint256",
          "name": "",
          "type": "uint256"
        }
      ],
      "name": "totalDonors",
      "outputs": [
        {
          "internalType": "address",
          "name": "",
          "type": "address"
        }
      ],
      "stateMutability": "view",
      "type": "function",
      "constant": true
    },
    {
      "inputs": [
        {
          "internalType": "uint256",
          "name": "",
          "type": "uint256"
        }
      ],
      "name": "totalHospitals",
      "outputs": [
        {
          "internalType": "address",
          "name": "",
          "type": "address"
        }
      ],
      "stateMutability": "view",
      "type": "function",
      "constant": true
    },
    {
      "inputs": [
        {
          "internalType": "uint256",
          "name": "",
          "type": "uint256"
        }
      ],
      "name": "totalSeekers",
      "outputs": [
        {
          "internalType": "address",
          "name": "",
          "type": "address"
        }
      ],
      "stateMutability": "view",
      "type": "function",
      "constant": true
    },
    {
      "inputs": [
        {
          "internalType": "uint256",
          "name": "",
          "type": "uint256"
        }
      ],
      "name": "transfusions",
      "outputs": [
        {
          "internalType": "uint256",
          "name": "indexOfTransfusion",
          "type": "uint256"
        },
        {
          "internalType": "address",
          "name": "ethSeeker",
          "type": "address"
        },
        {
          "internalType": "address",
          "name": "ethDonor",
          "type": "address"
        },
        {
          "internalType": "address",
          "name": "ethHospital",
          "type": "address"
        },
        {
          "internalType": "enum PlasmaDonation.status",
          "name": "stateOfTransfusion",
          "type": "uint8"
        },
        {
          "internalType": "string",
          "name": "storageTime",
          "type": "string"
        },
        {
          "internalType": "string",
          "name": "updatedOn",
          "type": "string"
        },
        {
          "internalType": "bool",
          "name": "exist",
          "type": "bool"
        }
      ],
      "stateMutability": "view",
      "type": "function",
      "constant": true
    },
    {
      "inputs": [
        {
          "internalType": "address",
          "name": "_ethSeeker",
          "type": "address"
        }
      ],
      "name": "validateSeeker",
      "outputs": [],
      "stateMutability": "nonpayable",
      "type": "function"
    },
    {
      "inputs": [
        {
          "internalType": "string",
          "name": "_hashOfSeekersData",
          "type": "string"
        },
        {
          "internalType": "address",
          "name": "_associatedHospital",
          "type": "address"
        }
      ],
      "name": "addSeeker",
      "outputs": [],
      "stateMutability": "nonpayable",
      "type": "function"
    },
    {
      "inputs": [
        {
          "internalType": "string",
          "name": "_hashOfDonorsData",
          "type": "string"
        }
      ],
      "name": "addDonor",
      "outputs": [],
      "stateMutability": "nonpayable",
      "type": "function"
    },
    {
      "inputs": [
        {
          "internalType": "address",
          "name": "_ethHospital",
          "type": "address"
        },
        {
          "internalType": "string",
          "name": "_hospitalName",
          "type": "string"
        },
        {
          "internalType": "string",
          "name": "_hashOfHospitalsData",
          "type": "string"
        }
      ],
      "name": "addHospital",
      "outputs": [],
      "stateMutability": "nonpayable",
      "type": "function"
    },
    {
      "inputs": [
        {
          "internalType": "address",
          "name": "_ethSeeker",
          "type": "address"
        }
      ],
      "name": "removeSeeker",
      "outputs": [],
      "stateMutability": "nonpayable",
      "type": "function"
    },
    {
      "inputs": [
        {
          "internalType": "address",
          "name": "_ethDonor",
          "type": "address"
        }
      ],
      "name": "removeDonor",
      "outputs": [],
      "stateMutability": "nonpayable",
      "type": "function"
    },
    {
      "inputs": [
        {
          "internalType": "address",
          "name": "_ethHospital",
          "type": "address"
        }
      ],
      "name": "removeHospital",
      "outputs": [],
      "stateMutability": "nonpayable",
      "type": "function"
    },
    {
      "inputs": [
        {
          "internalType": "address",
          "name": "_ethDonor",
          "type": "address"
        }
      ],
      "name": "validateDonor",
      "outputs": [],
      "stateMutability": "nonpayable",
      "type": "function"
    },
    {
      "inputs": [
        {
          "internalType": "address",
          "name": "_ethDonor",
          "type": "address"
        },
        {
          "internalType": "string",
          "name": "_updatedOn",
          "type": "string"
        }
      ],
      "name": "Donation",
      "outputs": [],
      "stateMutability": "nonpayable",
      "type": "function"
    },
    {
      "inputs": [
        {
          "internalType": "uint256",
          "name": "index",
          "type": "uint256"
        },
        {
          "internalType": "string",
          "name": "_updatedOn",
          "type": "string"
        }
      ],
      "name": "Storage",
      "outputs": [],
      "stateMutability": "nonpayable",
      "type": "function"
    },
    {
      "inputs": [
        {
          "internalType": "uint256",
          "name": "index",
          "type": "uint256"
        },
        {
          "internalType": "address",
          "name": "_ethSeeker",
          "type": "address"
        },
        {
          "internalType": "string",
          "name": "_updatedOn",
          "type": "string"
        },
        {
          "internalType": "string",
          "name": "_storageTime",
          "type": "string"
        }
      ],
      "name": "Tranfusion",
      "outputs": [],
      "stateMutability": "nonpayable",
      "type": "function"
    },
    {
      "inputs": [
        {
          "internalType": "uint256",
          "name": "index",
          "type": "uint256"
        },
        {
          "internalType": "string",
          "name": "_updatedOn",
          "type": "string"
        }
      ],
      "name": "Complete",
      "outputs": [],
      "stateMutability": "nonpayable",
      "type": "function"
    },
    {
      "inputs": [],
      "name": "viewTotalEntities",
      "outputs": [
        {
          "internalType": "uint256",
          "name": "",
          "type": "uint256"
        },
        {
          "internalType": "uint256",
          "name": "",
          "type": "uint256"
        },
        {
          "internalType": "uint256",
          "name": "",
          "type": "uint256"
        },
        {
          "internalType": "uint256",
          "name": "",
          "type": "uint256"
        }
      ],
      "stateMutability": "view",
      "type": "function",
      "constant": true
    },
    {
      "inputs": [],
      "name": "totalTransfusions",
      "outputs": [
        {
          "internalType": "uint256",
          "name": "",
          "type": "uint256"
        }
      ],
      "stateMutability": "view",
      "type": "function",
      "constant": true
    },
    {
      "inputs": [
        {
          "internalType": "uint256",
          "name": "index",
          "type": "uint256"
        }
      ],
      "name": "getTransfusion",
      "outputs": [
        {
          "internalType": "uint256",
          "name": "",
          "type": "uint256"
        },
        {
          "internalType": "address",
          "name": "",
          "type": "address"
        },
        {
          "internalType": "address",
          "name": "",
          "type": "address"
        },
        {
          "internalType": "address",
          "name": "",
          "type": "address"
        },
        {
          "internalType": "uint256",
          "name": "",
          "type": "uint256"
        },
        {
          "internalType": "string",
          "name": "",
          "type": "string"
        },
        {
          "internalType": "string",
          "name": "",
          "type": "string"
        }
      ],
      "stateMutability": "view",
      "type": "function",
      "constant": true
    }
  ],
  "bytecode": "0x6080604052600060045534801561001557600080fd5b5033600360006101000a81548173ffffffffffffffffffffffffffffffffffffffff021916908373ffffffffffffffffffffffffffffffffffffffff160217905550614ea5806100666000396000f3fe608060405234801561001057600080fd5b50600436106101a95760003560e01c8063782b5186116100f9578063a9c7ad5a11610097578063ca0cdea811610071578063ca0cdea81461100f578063cf98cab814611118578063eeb920b71461115c578063f093cf80146111b4576101a9565b8063a9c7ad5a14610d9a578063aedfcf9514610f16578063c3c72d8614610f34576101a9565b80638775b6a7116100d35780638775b6a714610b425780639f5e05b014610cce578063a7f77f6614610d12578063a969890614610d56576101a9565b8063782b5186146108b35780638121d25d14610978578063828566fc146109d0576101a9565b806330af783a116101665780635ec4a024116101405780635ec4a024146105ea57806361001ac614610762578063686f625e146107ba57806374254290146107ee576101a9565b806330af783a146104315780633d8af0d514610489578063491a5af3146104e1576101a9565b806306d1cd16146101ae578063073c560f146101cc5780631865b87f146102a75780631ae0063d146103625780632a5ff5f61461039557806330629cdf146103d9575b600080fd5b6101b6611303565b6040518082815260200191505060405180910390f35b6102a5600480360360408110156101e257600080fd5b81019080803590602001906401000000008111156101ff57600080fd5b82018360208201111561021157600080fd5b8035906020019184600183028401116401000000008311171561023357600080fd5b91908080601f016020809104026020016040519081016040528093929190818152602001838380828437600081840152601f19601f820116905080830192505050505050509192919290803573ffffffffffffffffffffffffffffffffffffffff169060200190929190505050611310565b005b610360600480360360208110156102bd57600080fd5b81019080803590602001906401000000008111156102da57600080fd5b8201836020820111156102ec57600080fd5b8035906020019184600183028401116401000000008311171561030e57600080fd5b91908080601f016020809104026020016040519081016040528093929190818152602001838380828437600081840152601f19601f820116905080830192505050505050509192919290505050611583565b005b61036a6117b2565b6040518085815260200184815260200183815260200182815260200194505050505060405180910390f35b6103d7600480360360208110156103ab57600080fd5b81019080803573ffffffffffffffffffffffffffffffffffffffff1690602001909291905050506117de565b005b61041b600480360360208110156103ef57600080fd5b81019080803573ffffffffffffffffffffffffffffffffffffffff169060200190929190505050611d4a565b6040518082815260200191505060405180910390f35b61045d6004803603602081101561044757600080fd5b8101908080359060200190929190505050611d62565b604051808273ffffffffffffffffffffffffffffffffffffffff16815260200191505060405180910390f35b6104b56004803603602081101561049f57600080fd5b8101908080359060200190929190505050611da1565b604051808273ffffffffffffffffffffffffffffffffffffffff16815260200191505060405180910390f35b610523600480360360208110156104f757600080fd5b81019080803573ffffffffffffffffffffffffffffffffffffffff169060200190929190505050611de0565b604051808673ffffffffffffffffffffffffffffffffffffffff168152602001806020018573ffffffffffffffffffffffffffffffffffffffff16815260200184151581526020018315158152602001828103825286818151815260200191508051906020019080838360005b838110156105ab578082015181840152602081019050610590565b50505050905090810190601f1680156105d85780820380516001836020036101000a031916815260200191505b50965050505050505060405180910390f35b6106166004803603602081101561060057600080fd5b8101908080359060200190929190505050611f08565b604051808881526020018773ffffffffffffffffffffffffffffffffffffffff1681526020018673ffffffffffffffffffffffffffffffffffffffff1681526020018573ffffffffffffffffffffffffffffffffffffffff1681526020018481526020018060200180602001838103835285818151815260200191508051906020019080838360005b838110156106ba57808201518184015260208101905061069f565b50505050905090810190601f1680156106e75780820380516001836020036101000a031916815260200191505b50838103825284818151815260200191508051906020019080838360005b83811015610720578082015181840152602081019050610705565b50505050905090810190601f16801561074d5780820380516001836020036101000a031916815260200191505b50995050505050505050505060405180910390f35b6107a46004803603602081101561077857600080fd5b81019080803573ffffffffffffffffffffffffffffffffffffffff1690602001909291905050506121b3565b6040518082815260200191505060405180910390f35b6107c26121cb565b604051808273ffffffffffffffffffffffffffffffffffffffff16815260200191505060405180910390f35b6108b16004803603604081101561080457600080fd5b81019080803590602001909291908035906020019064010000000081111561082b57600080fd5b82018360208201111561083d57600080fd5b8035906020019184600183028401116401000000008311171561085f57600080fd5b91908080601f016020809104026020016040519081016040528093929190818152602001838380828437600081840152601f19601f8201169050808301925050505050505091929192905050506121f1565b005b610976600480360360408110156108c957600080fd5b8101908080359060200190929190803590602001906401000000008111156108f057600080fd5b82018360208201111561090257600080fd5b8035906020019184600183028401116401000000008311171561092457600080fd5b91908080601f016020809104026020016040519081016040528093929190818152602001838380828437600081840152601f19601f8201169050808301925050505050505091929192905050506126a9565b005b6109ba6004803603602081101561098e57600080fd5b81019080803573ffffffffffffffffffffffffffffffffffffffff169060200190929190505050612923565b6040518082815260200191505060405180910390f35b610b40600480360360608110156109e657600080fd5b81019080803573ffffffffffffffffffffffffffffffffffffffff16906020019092919080359060200190640100000000811115610a2357600080fd5b820183602082011115610a3557600080fd5b80359060200191846001830284011164010000000083111715610a5757600080fd5b91908080601f016020809104026020016040519081016040528093929190818152602001838380828437600081840152601f19601f82011690508083019250505050505050919291929080359060200190640100000000811115610aba57600080fd5b820183602082011115610acc57600080fd5b80359060200191846001830284011164010000000083111715610aee57600080fd5b91908080601f016020809104026020016040519081016040528093929190818152602001838380828437600081840152601f19601f82011690508083019250505050505050919291929050505061293b565b005b610b6e60048036036020811015610b5857600080fd5b8101908080359060200190929190505050612c2b565b604051808981526020018873ffffffffffffffffffffffffffffffffffffffff1681526020018773ffffffffffffffffffffffffffffffffffffffff1681526020018673ffffffffffffffffffffffffffffffffffffffff168152602001856003811115610bd857fe5b815260200180602001806020018415158152602001838103835286818151815260200191508051906020019080838360005b83811015610c25578082015181840152602081019050610c0a565b50505050905090810190601f168015610c525780820380516001836020036101000a031916815260200191505b50838103825285818151815260200191508051906020019080838360005b83811015610c8b578082015181840152602081019050610c70565b50505050905090810190601f168015610cb85780820380516001836020036101000a031916815260200191505b509a505050505050505050505060405180910390f35b610d1060048036036020811015610ce457600080fd5b81019080803573ffffffffffffffffffffffffffffffffffffffff169060200190929190505050612e2d565b005b610d5460048036036020811015610d2857600080fd5b81019080803573ffffffffffffffffffffffffffffffffffffffff1690602001909291905050506131a5565b005b610d9860048036036020811015610d6c57600080fd5b81019080803573ffffffffffffffffffffffffffffffffffffffff169060200190929190505050613629565b005b610f1460048036036080811015610db057600080fd5b8101908080359060200190929190803573ffffffffffffffffffffffffffffffffffffffff16906020019092919080359060200190640100000000811115610df757600080fd5b820183602082011115610e0957600080fd5b80359060200191846001830284011164010000000083111715610e2b57600080fd5b91908080601f016020809104026020016040519081016040528093929190818152602001838380828437600081840152601f19601f82011690508083019250505050505050919291929080359060200190640100000000811115610e8e57600080fd5b820183602082011115610ea057600080fd5b80359060200191846001830284011164010000000083111715610ec257600080fd5b91908080601f016020809104026020016040519081016040528093929190818152602001838380828437600081840152601f19601f820116905080830192505050505050509192919290505050613a84565b005b610f1e613e0a565b6040518082815260200191505060405180910390f35b61100d60048036036040811015610f4a57600080fd5b81019080803573ffffffffffffffffffffffffffffffffffffffff16906020019092919080359060200190640100000000811115610f8757600080fd5b820183602082011115610f9957600080fd5b80359060200191846001830284011164010000000083111715610fbb57600080fd5b91908080601f016020809104026020016040519081016040528093929190818152602001838380828437600081840152601f19601f820116905080830192505050505050509192919290505050613e10565b005b6110516004803603602081101561102557600080fd5b81019080803573ffffffffffffffffffffffffffffffffffffffff169060200190929190505050614322565b604051808673ffffffffffffffffffffffffffffffffffffffff168152602001806020018573ffffffffffffffffffffffffffffffffffffffff16815260200184151581526020018315158152602001828103825286818151815260200191508051906020019080838360005b838110156110d95780820151818401526020810190506110be565b50505050905090810190601f1680156111065780820380516001836020036101000a031916815260200191505b50965050505050505060405180910390f35b61115a6004803603602081101561112e57600080fd5b81019080803573ffffffffffffffffffffffffffffffffffffffff16906020019092919050505061444a565b005b6111886004803603602081101561117257600080fd5b81019080803590602001909291905050506146db565b604051808273ffffffffffffffffffffffffffffffffffffffff16815260200191505060405180910390f35b6111f6600480360360208110156111ca57600080fd5b81019080803573ffffffffffffffffffffffffffffffffffffffff16906020019092919050505061471a565b604051808573ffffffffffffffffffffffffffffffffffffffff16815260200180602001806020018415158152602001838103835286818151815260200191508051906020019080838360005b8381101561125e578082015181840152602081019050611243565b50505050905090810190601f16801561128b5780820380516001836020036101000a031916815260200191505b50838103825285818151815260200191508051906020019080838360005b838110156112c45780820151818401526020810190506112a9565b50505050905090810190601f1680156112f15780820380516001836020036101000a031916815260200191505b50965050505050505060405180910390f35b6000600b80549050905090565b600560003373ffffffffffffffffffffffffffffffffffffffff1673ffffffffffffffffffffffffffffffffffffffff16815260200190815260200160002060020160159054906101000a900460ff16156113b6576040517f08c379a0000000000000000000000000000000000000000000000000000000008152600401808060200182810382526032815260200180614e3e6032913960400191505060405180910390fd5b6000600560003373ffffffffffffffffffffffffffffffffffffffff1673ffffffffffffffffffffffffffffffffffffffff1681526020019081526020016000209050338160000160006101000a81548173ffffffffffffffffffffffffffffffffffffffff021916908373ffffffffffffffffffffffffffffffffffffffff160217905550828160010190805190602001906114549291906148a7565b50818160020160006101000a81548173ffffffffffffffffffffffffffffffffffffffff021916908373ffffffffffffffffffffffffffffffffffffffff16021790555060018160020160156101000a81548160ff02191690831515021790555060008160020160146101000a81548160ff0219169083151502179055506000339080600181540180825580915050600190039060005260206000200160009091909190916101000a81548173ffffffffffffffffffffffffffffffffffffffff021916908373ffffffffffffffffffffffffffffffffffffffff160217905550600080549050600660003373ffffffffffffffffffffffffffffffffffffffff1673ffffffffffffffffffffffffffffffffffffffff16815260200190815260200160002081905550505050565b600760003373ffffffffffffffffffffffffffffffffffffffff1673ffffffffffffffffffffffffffffffffffffffff16815260200190815260200160002060020160159054906101000a900460ff1615611629576040517f08c379a0000000000000000000000000000000000000000000000000000000008152600401808060200182810382526031815260200180614d326031913960400191505060405180910390fd5b6000600760003373ffffffffffffffffffffffffffffffffffffffff1673ffffffffffffffffffffffffffffffffffffffff1681526020019081526020016000209050338160000160006101000a81548173ffffffffffffffffffffffffffffffffffffffff021916908373ffffffffffffffffffffffffffffffffffffffff160217905550818160010190805190602001906116c79291906148a7565b5060018160020160156101000a81548160ff02191690831515021790555060008160020160146101000a81548160ff0219169083151502179055506001339080600181540180825580915050600190039060005260206000200160009091909190916101000a81548173ffffffffffffffffffffffffffffffffffffffff021916908373ffffffffffffffffffffffffffffffffffffffff160217905550600180549050600860003373ffffffffffffffffffffffffffffffffffffffff1673ffffffffffffffffffffffffffffffffffffffff168152602001908152602001600020819055505050565b600080600080600080549050600180549050600280549050600b80549050935093509350935090919293565b80600560008273ffffffffffffffffffffffffffffffffffffffff1673ffffffffffffffffffffffffffffffffffffffff16815260200190815260200160002060020160159054906101000a900460ff16611884576040517f08c379a000000000000000000000000000000000000000000000000000000000815260040180806020018281038252603b815260200180614d63603b913960400191505060405180910390fd5b33600960008273ffffffffffffffffffffffffffffffffffffffff1673ffffffffffffffffffffffffffffffffffffffff16815260200190815260200160002060030160009054906101000a900460ff1661192a576040517f08c379a000000000000000000000000000000000000000000000000000000000815260040180806020018281038252603d815260200180614aba603d913960400191505060405180910390fd5b600560008473ffffffffffffffffffffffffffffffffffffffff1673ffffffffffffffffffffffffffffffffffffffff16815260200190815260200160002060020160009054906101000a900473ffffffffffffffffffffffffffffffffffffffff1673ffffffffffffffffffffffffffffffffffffffff163373ffffffffffffffffffffffffffffffffffffffff1614611a10576040517f08c379a0000000000000000000000000000000000000000000000000000000008152600401808060200182810382526038815260200180614d9e6038913960400191505060405180910390fd5b600560008473ffffffffffffffffffffffffffffffffffffffff1673ffffffffffffffffffffffffffffffffffffffff168152602001908152602001600020600080820160006101000a81549073ffffffffffffffffffffffffffffffffffffffff0219169055600182016000611a879190614935565b6002820160006101000a81549073ffffffffffffffffffffffffffffffffffffffff02191690556002820160146101000a81549060ff02191690556002820160156101000a81549060ff0219169055505060006001600660008673ffffffffffffffffffffffffffffffffffffffff1673ffffffffffffffffffffffffffffffffffffffff16815260200190815260200160002054039050600160008054905003811415611b74576000805480611b3a57fe5b6001900381819060005260206000200160006101000a81549073ffffffffffffffffffffffffffffffffffffffff02191690559055611d01565b60008181548110611b8157fe5b9060005260206000200160006101000a81549073ffffffffffffffffffffffffffffffffffffffff0219169055600060016000805490500381548110611bc357fe5b9060005260206000200160009054906101000a900473ffffffffffffffffffffffffffffffffffffffff1660008281548110611bfb57fe5b9060005260206000200160006101000a81548173ffffffffffffffffffffffffffffffffffffffff021916908373ffffffffffffffffffffffffffffffffffffffff1602179055506000805480611c4e57fe5b6001900381819060005260206000200160006101000a81549073ffffffffffffffffffffffffffffffffffffffff021916905590556001810160066000808481548110611c9757fe5b9060005260206000200160009054906101000a900473ffffffffffffffffffffffffffffffffffffffff1673ffffffffffffffffffffffffffffffffffffffff1673ffffffffffffffffffffffffffffffffffffffff168152602001908152602001600020819055505b600660008573ffffffffffffffffffffffffffffffffffffffff1673ffffffffffffffffffffffffffffffffffffffff1681526020019081526020016000206000905550505050565b60086020528060005260406000206000915090505481565b60008181548110611d7257600080fd5b906000526020600020016000915054906101000a900473ffffffffffffffffffffffffffffffffffffffff1681565b60018181548110611db157600080fd5b906000526020600020016000915054906101000a900473ffffffffffffffffffffffffffffffffffffffff1681565b60056020528060005260406000206000915090508060000160009054906101000a900473ffffffffffffffffffffffffffffffffffffffff1690806001018054600181600116156101000203166002900480601f016020809104026020016040519081016040528092919081815260200182805460018160011615610100020316600290048015611eb25780601f10611e8757610100808354040283529160200191611eb2565b820191906000526020600020905b815481529060010190602001808311611e9557829003601f168201915b5050505050908060020160009054906101000a900473ffffffffffffffffffffffffffffffffffffffff16908060020160149054906101000a900460ff16908060020160159054906101000a900460ff16905085565b6000806000806000606080600b8881548110611f2057fe5b906000526020600020906007020160000154600b8981548110611f3f57fe5b906000526020600020906007020160010160009054906101000a900473ffffffffffffffffffffffffffffffffffffffff16600b8a81548110611f7e57fe5b906000526020600020906007020160020160009054906101000a900473ffffffffffffffffffffffffffffffffffffffff16600b8b81548110611fbd57fe5b906000526020600020906007020160030160009054906101000a900473ffffffffffffffffffffffffffffffffffffffff16600b8c81548110611ffc57fe5b906000526020600020906007020160030160149054906101000a900460ff16600381111561202657fe5b600b8d8154811061203357fe5b9060005260206000209060070201600401600b8e8154811061205157fe5b9060005260206000209060070201600501818054600181600116156101000203166002900480601f0160208091040260200160405190810160405280929190818152602001828054600181600116156101000203166002900480156120f75780601f106120cc576101008083540402835291602001916120f7565b820191906000526020600020905b8154815290600101906020018083116120da57829003601f168201915b50505050509150808054600181600116156101000203166002900480601f0160208091040260200160405190810160405280929190818152602001828054600181600116156101000203166002900480156121935780601f1061216857610100808354040283529160200191612193565b820191906000526020600020905b81548152906001019060200180831161217657829003601f168201915b505050505090509650965096509650965096509650919395979092949650565b60066020528060005260406000206000915090505481565b600360009054906101000a900473ffffffffffffffffffffffffffffffffffffffff1681565b600b82815481106121fe57fe5b906000526020600020906007020160010160009054906101000a900473ffffffffffffffffffffffffffffffffffffffff16600560008273ffffffffffffffffffffffffffffffffffffffff1673ffffffffffffffffffffffffffffffffffffffff16815260200190815260200160002060020160159054906101000a900460ff166122d5576040517f08c379a000000000000000000000000000000000000000000000000000000000815260040180806020018281038252603b815260200180614d63603b913960400191505060405180910390fd5b600b83815481106122e257fe5b906000526020600020906007020160020160009054906101000a900473ffffffffffffffffffffffffffffffffffffffff16600760008273ffffffffffffffffffffffffffffffffffffffff1673ffffffffffffffffffffffffffffffffffffffff16815260200190815260200160002060020160159054906101000a900460ff166123b9576040517f08c379a000000000000000000000000000000000000000000000000000000000815260040180806020018281038252603a815260200180614c9b603a913960400191505060405180910390fd5b33600960008273ffffffffffffffffffffffffffffffffffffffff1673ffffffffffffffffffffffffffffffffffffffff16815260200190815260200160002060030160009054906101000a900460ff1661245f576040517f08c379a000000000000000000000000000000000000000000000000000000000815260040180806020018281038252603d815260200180614aba603d913960400191505060405180910390fd5b6002600381111561246c57fe5b600b868154811061247957fe5b906000526020600020906007020160030160149054906101000a900460ff1660038111156124a357fe5b146124f9576040517f08c379a000000000000000000000000000000000000000000000000000000000815260040180806020018281038252603e815260200180614b37603e913960400191505060405180910390fd5b60056000600b878154811061250a57fe5b906000526020600020906007020160010160009054906101000a900473ffffffffffffffffffffffffffffffffffffffff1673ffffffffffffffffffffffffffffffffffffffff1673ffffffffffffffffffffffffffffffffffffffff16815260200190815260200160002060020160009054906101000a900473ffffffffffffffffffffffffffffffffffffffff1673ffffffffffffffffffffffffffffffffffffffff163373ffffffffffffffffffffffffffffffffffffffff161461261d576040517f08c379a00000000000000000000000000000000000000000000000000000000081526004018080602001828103825260608152602001806149eb6060913960600191505060405180910390fd5b6003600b868154811061262c57fe5b906000526020600020906007020160030160146101000a81548160ff0219169083600381111561265857fe5b021790555083600b868154811061266b57fe5b9060005260206000209060070201600501908051906020019061268f9291906148a7565b506004600081548092919060010191905055505050505050565b33600960008273ffffffffffffffffffffffffffffffffffffffff1673ffffffffffffffffffffffffffffffffffffffff16815260200190815260200160002060030160009054906101000a900460ff1661274f576040517f08c379a000000000000000000000000000000000000000000000000000000000815260040180806020018281038252603d815260200180614aba603d913960400191505060405180910390fd5b6000600381111561275c57fe5b600b848154811061276957fe5b906000526020600020906007020160030160149054906101000a900460ff16600381111561279357fe5b146127e9576040517f08c379a0000000000000000000000000000000000000000000000000000000008152600401808060200182810382526048815260200180614c026048913960600191505060405180910390fd5b3373ffffffffffffffffffffffffffffffffffffffff16600b848154811061280d57fe5b906000526020600020906007020160030160009054906101000a900473ffffffffffffffffffffffffffffffffffffffff1673ffffffffffffffffffffffffffffffffffffffff16146128ab576040517f08c379a000000000000000000000000000000000000000000000000000000000815260040180806020018281038252605081526020018061499b6050913960600191505060405180910390fd5b6001600b84815481106128ba57fe5b906000526020600020906007020160030160146101000a81548160ff021916908360038111156128e657fe5b021790555081600b84815481106128f957fe5b9060005260206000209060070201600501908051906020019061291d9291906148a7565b50505050565b600a6020528060005260406000206000915090505481565b600360009054906101000a900473ffffffffffffffffffffffffffffffffffffffff1673ffffffffffffffffffffffffffffffffffffffff163373ffffffffffffffffffffffffffffffffffffffff16146129e1576040517f08c379a0000000000000000000000000000000000000000000000000000000008152600401808060200182810382526038815260200180614cd56038913960400191505060405180910390fd5b600960008473ffffffffffffffffffffffffffffffffffffffff1673ffffffffffffffffffffffffffffffffffffffff16815260200190815260200160002060030160009054906101000a900460ff1615612aa4576040517f08c379a000000000000000000000000000000000000000000000000000000000815260040180806020018281038252601f8152602001807f5468697320486f73706974616c20697320616c7265616479206164646564210081525060200191505060405180910390fd5b6000600960008573ffffffffffffffffffffffffffffffffffffffff1673ffffffffffffffffffffffffffffffffffffffff1681526020019081526020016000209050838160000160006101000a81548173ffffffffffffffffffffffffffffffffffffffff021916908373ffffffffffffffffffffffffffffffffffffffff16021790555082816001019080519060200190612b429291906148a7565b5081816002019080519060200190612b5b9291906148a7565b5060018160030160006101000a81548160ff0219169083151502179055506002849080600181540180825580915050600190039060005260206000200160009091909190916101000a81548173ffffffffffffffffffffffffffffffffffffffff021916908373ffffffffffffffffffffffffffffffffffffffff160217905550600280549050600a60008673ffffffffffffffffffffffffffffffffffffffff1673ffffffffffffffffffffffffffffffffffffffff1681526020019081526020016000208190555050505050565b600b8181548110612c3b57600080fd5b90600052602060002090600702016000915090508060000154908060010160009054906101000a900473ffffffffffffffffffffffffffffffffffffffff16908060020160009054906101000a900473ffffffffffffffffffffffffffffffffffffffff16908060030160009054906101000a900473ffffffffffffffffffffffffffffffffffffffff16908060030160149054906101000a900460ff1690806004018054600181600116156101000203166002900480601f016020809104026020016040519081016040528092919081815260200182805460018160011615610100020316600290048015612d725780601f10612d4757610100808354040283529160200191612d72565b820191906000526020600020905b815481529060010190602001808311612d5557829003601f168201915b505050505090806005018054600181600116156101000203166002900480601f016020809104026020016040519081016040528092919081815260200182805460018160011615610100020316600290048015612e105780601f10612de557610100808354040283529160200191612e10565b820191906000526020600020905b815481529060010190602001808311612df357829003601f168201915b5050505050908060060160009054906101000a900460ff16905088565b33600960008273ffffffffffffffffffffffffffffffffffffffff1673ffffffffffffffffffffffffffffffffffffffff16815260200190815260200160002060030160009054906101000a900460ff16612ed3576040517f08c379a000000000000000000000000000000000000000000000000000000000815260040180806020018281038252603d815260200180614aba603d913960400191505060405180910390fd5b81600760008273ffffffffffffffffffffffffffffffffffffffff1673ffffffffffffffffffffffffffffffffffffffff16815260200190815260200160002060020160159054906101000a900460ff16612f79576040517f08c379a000000000000000000000000000000000000000000000000000000000815260040180806020018281038252603a815260200180614c9b603a913960400191505060405180910390fd5b600960003373ffffffffffffffffffffffffffffffffffffffff1673ffffffffffffffffffffffffffffffffffffffff16815260200190815260200160002060030160009054906101000a900460ff1661301e576040517f08c379a0000000000000000000000000000000000000000000000000000000008152600401808060200182810382526048815260200180614bba6048913960600191505060405180910390fd5b600760008473ffffffffffffffffffffffffffffffffffffffff1673ffffffffffffffffffffffffffffffffffffffff16815260200190815260200160002060020160149054906101000a900460ff16156130c4576040517f08c379a0000000000000000000000000000000000000000000000000000000008152600401808060200182810382526024815260200180614a966024913960400191505060405180910390fd5b33600760008573ffffffffffffffffffffffffffffffffffffffff1673ffffffffffffffffffffffffffffffffffffffff16815260200190815260200160002060020160006101000a81548173ffffffffffffffffffffffffffffffffffffffff021916908373ffffffffffffffffffffffffffffffffffffffff1602179055506001600760008573ffffffffffffffffffffffffffffffffffffffff1673ffffffffffffffffffffffffffffffffffffffff16815260200190815260200160002060020160146101000a81548160ff021916908315150217905550505050565b80600760008273ffffffffffffffffffffffffffffffffffffffff1673ffffffffffffffffffffffffffffffffffffffff16815260200190815260200160002060020160159054906101000a900460ff1661324b576040517f08c379a000000000000000000000000000000000000000000000000000000000815260040180806020018281038252603a815260200180614c9b603a913960400191505060405180910390fd5b33600960008273ffffffffffffffffffffffffffffffffffffffff1673ffffffffffffffffffffffffffffffffffffffff16815260200190815260200160002060030160009054906101000a900460ff166132f1576040517f08c379a000000000000000000000000000000000000000000000000000000000815260040180806020018281038252603d815260200180614aba603d913960400191505060405180910390fd5b600760008473ffffffffffffffffffffffffffffffffffffffff1673ffffffffffffffffffffffffffffffffffffffff168152602001908152602001600020600080820160006101000a81549073ffffffffffffffffffffffffffffffffffffffff02191690556001820160006133689190614935565b6002820160006101000a81549073ffffffffffffffffffffffffffffffffffffffff02191690556002820160146101000a81549060ff02191690556002820160156101000a81549060ff0219169055505060006001600860008673ffffffffffffffffffffffffffffffffffffffff1673ffffffffffffffffffffffffffffffffffffffff16815260200190815260200160002054039050600180805490500381141561345457600180548061341a57fe5b6001900381819060005260206000200160006101000a81549073ffffffffffffffffffffffffffffffffffffffff021916905590556135e0565b6001818154811061346157fe5b9060005260206000200160006101000a81549073ffffffffffffffffffffffffffffffffffffffff0219169055600180808054905003815481106134a157fe5b9060005260206000200160009054906101000a900473ffffffffffffffffffffffffffffffffffffffff16600182815481106134d957fe5b9060005260206000200160006101000a81548173ffffffffffffffffffffffffffffffffffffffff021916908373ffffffffffffffffffffffffffffffffffffffff160217905550600180548061352c57fe5b6001900381819060005260206000200160006101000a81549073ffffffffffffffffffffffffffffffffffffffff0219169055905560018101600860006001848154811061357657fe5b9060005260206000200160009054906101000a900473ffffffffffffffffffffffffffffffffffffffff1673ffffffffffffffffffffffffffffffffffffffff1673ffffffffffffffffffffffffffffffffffffffff168152602001908152602001600020819055505b600860008573ffffffffffffffffffffffffffffffffffffffff1673ffffffffffffffffffffffffffffffffffffffff1681526020019081526020016000206000905550505050565b600360009054906101000a900473ffffffffffffffffffffffffffffffffffffffff1673ffffffffffffffffffffffffffffffffffffffff163373ffffffffffffffffffffffffffffffffffffffff16146136cf576040517f08c379a0000000000000000000000000000000000000000000000000000000008152600401808060200182810382526038815260200180614cd56038913960400191505060405180910390fd5b80600960008273ffffffffffffffffffffffffffffffffffffffff1673ffffffffffffffffffffffffffffffffffffffff16815260200190815260200160002060030160009054906101000a900460ff16613775576040517f08c379a000000000000000000000000000000000000000000000000000000000815260040180806020018281038252603d815260200180614aba603d913960400191505060405180910390fd5b600960008373ffffffffffffffffffffffffffffffffffffffff1673ffffffffffffffffffffffffffffffffffffffff168152602001908152602001600020600080820160006101000a81549073ffffffffffffffffffffffffffffffffffffffff02191690556001820160006137ec9190614935565b6002820160006137fc9190614935565b6003820160006101000a81549060ff0219169055505060006001600a60008573ffffffffffffffffffffffffffffffffffffffff1673ffffffffffffffffffffffffffffffffffffffff168152602001908152602001600020540390506001600280549050038114156138ae57600280548061387457fe5b6001900381819060005260206000200160006101000a81549073ffffffffffffffffffffffffffffffffffffffff02191690559055613a3c565b600281815481106138bb57fe5b9060005260206000200160006101000a81549073ffffffffffffffffffffffffffffffffffffffff02191690556002600160028054905003815481106138fd57fe5b9060005260206000200160009054906101000a900473ffffffffffffffffffffffffffffffffffffffff166002828154811061393557fe5b9060005260206000200160006101000a81548173ffffffffffffffffffffffffffffffffffffffff021916908373ffffffffffffffffffffffffffffffffffffffff160217905550600280548061398857fe5b6001900381819060005260206000200160006101000a81549073ffffffffffffffffffffffffffffffffffffffff0219169055905560018101600a6000600284815481106139d257fe5b9060005260206000200160009054906101000a900473ffffffffffffffffffffffffffffffffffffffff1673ffffffffffffffffffffffffffffffffffffffff1673ffffffffffffffffffffffffffffffffffffffff168152602001908152602001600020819055505b600a60008473ffffffffffffffffffffffffffffffffffffffff1673ffffffffffffffffffffffffffffffffffffffff16815260200190815260200160002060009055505050565b60016003811115613a9157fe5b600b8581548110613a9e57fe5b906000526020600020906007020160030160149054906101000a900460ff166003811115613ac857fe5b14613b1e576040517f08c379a0000000000000000000000000000000000000000000000000000000008152600401808060200182810382526045815260200180614b756045913960600191505060405180910390fd5b600560008473ffffffffffffffffffffffffffffffffffffffff1673ffffffffffffffffffffffffffffffffffffffff16815260200190815260200160002060020160159054906101000a900460ff168015613bc65750600960003373ffffffffffffffffffffffffffffffffffffffff1673ffffffffffffffffffffffffffffffffffffffff16815260200190815260200160002060030160009054906101000a900460ff165b613c1b576040517f08c379a0000000000000000000000000000000000000000000000000000000008152600401808060200182810382526040815260200180614af76040913960400191505060405180910390fd5b600560008473ffffffffffffffffffffffffffffffffffffffff1673ffffffffffffffffffffffffffffffffffffffff16815260200190815260200160002060020160009054906101000a900473ffffffffffffffffffffffffffffffffffffffff1673ffffffffffffffffffffffffffffffffffffffff163373ffffffffffffffffffffffffffffffffffffffff1614613d01576040517f08c379a00000000000000000000000000000000000000000000000000000000081526004018080602001828103825260608152602001806149eb6060913960600191505060405180910390fd5b82600b8581548110613d0f57fe5b906000526020600020906007020160010160006101000a81548173ffffffffffffffffffffffffffffffffffffffff021916908373ffffffffffffffffffffffffffffffffffffffff1602179055506002600b8581548110613d6d57fe5b906000526020600020906007020160030160146101000a81548160ff02191690836003811115613d9957fe5b021790555081600b8581548110613dac57fe5b90600052602060002090600702016005019080519060200190613dd09291906148a7565b5080600b8581548110613ddf57fe5b90600052602060002090600702016004019080519060200190613e039291906148a7565b5050505050565b60045481565b81600760008273ffffffffffffffffffffffffffffffffffffffff1673ffffffffffffffffffffffffffffffffffffffff16815260200190815260200160002060020160159054906101000a900460ff16613eb6576040517f08c379a000000000000000000000000000000000000000000000000000000000815260040180806020018281038252603a815260200180614c9b603a913960400191505060405180910390fd5b33600960008273ffffffffffffffffffffffffffffffffffffffff1673ffffffffffffffffffffffffffffffffffffffff16815260200190815260200160002060030160009054906101000a900460ff16613f5c576040517f08c379a000000000000000000000000000000000000000000000000000000000815260040180806020018281038252603d815260200180614aba603d913960400191505060405180910390fd5b600760008573ffffffffffffffffffffffffffffffffffffffff1673ffffffffffffffffffffffffffffffffffffffff16815260200190815260200160002060020160149054906101000a900460ff16614001576040517f08c379a0000000000000000000000000000000000000000000000000000000008152600401808060200182810382526051815260200180614c4a6051913960600191505060405180910390fd5b3373ffffffffffffffffffffffffffffffffffffffff16600760008673ffffffffffffffffffffffffffffffffffffffff1673ffffffffffffffffffffffffffffffffffffffff16815260200190815260200160002060020160009054906101000a900473ffffffffffffffffffffffffffffffffffffffff1673ffffffffffffffffffffffffffffffffffffffff16146140e7576040517f08c379a000000000000000000000000000000000000000000000000000000000815260040180806020018281038252604b815260200180614a4b604b913960600191505060405180910390fd5b6000604051806101000160405280600b805490508152602001600073ffffffffffffffffffffffffffffffffffffffff1681526020018673ffffffffffffffffffffffffffffffffffffffff1681526020013373ffffffffffffffffffffffffffffffffffffffff1681526020016000600381111561416257fe5b8152602001604051806020016040528060008152508152602001858152602001600115158152509050600b8190806001815401808255809150506001900390600052602060002090600702016000909190919091506000820151816000015560208201518160010160006101000a81548173ffffffffffffffffffffffffffffffffffffffff021916908373ffffffffffffffffffffffffffffffffffffffff16021790555060408201518160020160006101000a81548173ffffffffffffffffffffffffffffffffffffffff021916908373ffffffffffffffffffffffffffffffffffffffff16021790555060608201518160030160006101000a81548173ffffffffffffffffffffffffffffffffffffffff021916908373ffffffffffffffffffffffffffffffffffffffff16021790555060808201518160030160146101000a81548160ff021916908360038111156142ba57fe5b021790555060a08201518160040190805190602001906142db9291906148a7565b5060c08201518160050190805190602001906142f89291906148a7565b5060e08201518160060160006101000a81548160ff02191690831515021790555050505050505050565b60076020528060005260406000206000915090508060000160009054906101000a900473ffffffffffffffffffffffffffffffffffffffff1690806001018054600181600116156101000203166002900480601f0160208091040260200160405190810160405280929190818152602001828054600181600116156101000203166002900480156143f45780601f106143c9576101008083540402835291602001916143f4565b820191906000526020600020905b8154815290600101906020018083116143d757829003601f168201915b5050505050908060020160009054906101000a900473ffffffffffffffffffffffffffffffffffffffff16908060020160149054906101000a900460ff16908060020160159054906101000a900460ff16905085565b80600560008273ffffffffffffffffffffffffffffffffffffffff1673ffffffffffffffffffffffffffffffffffffffff16815260200190815260200160002060020160159054906101000a900460ff166144f0576040517f08c379a000000000000000000000000000000000000000000000000000000000815260040180806020018281038252603b815260200180614d63603b913960400191505060405180910390fd5b600560008373ffffffffffffffffffffffffffffffffffffffff1673ffffffffffffffffffffffffffffffffffffffff16815260200190815260200160002060020160009054906101000a900473ffffffffffffffffffffffffffffffffffffffff1673ffffffffffffffffffffffffffffffffffffffff163373ffffffffffffffffffffffffffffffffffffffff16146145d6576040517f08c379a0000000000000000000000000000000000000000000000000000000008152600401808060200182810382526068815260200180614dd66068913960800191505060405180910390fd5b600560008373ffffffffffffffffffffffffffffffffffffffff1673ffffffffffffffffffffffffffffffffffffffff16815260200190815260200160002060020160149054906101000a900460ff161561467c576040517f08c379a0000000000000000000000000000000000000000000000000000000008152600401808060200182810382526025815260200180614d0d6025913960400191505060405180910390fd5b6001600560008473ffffffffffffffffffffffffffffffffffffffff1673ffffffffffffffffffffffffffffffffffffffff16815260200190815260200160002060020160146101000a81548160ff0219169083151502179055505050565b600281815481106146eb57600080fd5b906000526020600020016000915054906101000a900473ffffffffffffffffffffffffffffffffffffffff1681565b60096020528060005260406000206000915090508060000160009054906101000a900473ffffffffffffffffffffffffffffffffffffffff1690806001018054600181600116156101000203166002900480601f0160208091040260200160405190810160405280929190818152602001828054600181600116156101000203166002900480156147ec5780601f106147c1576101008083540402835291602001916147ec565b820191906000526020600020905b8154815290600101906020018083116147cf57829003601f168201915b505050505090806002018054600181600116156101000203166002900480601f01602080910402602001604051908101604052809291908181526020018280546001816001161561010002031660029004801561488a5780601f1061485f5761010080835404028352916020019161488a565b820191906000526020600020905b81548152906001019060200180831161486d57829003601f168201915b5050505050908060030160009054906101000a900460ff16905084565b828054600181600116156101000203166002900490600052602060002090601f0160209004810192826148dd5760008555614924565b82601f106148f657805160ff1916838001178555614924565b82800160010185558215614924579182015b82811115614923578251825591602001919060010190614908565b5b509050614931919061497d565b5090565b50805460018160011615610100020316600290046000825580601f1061495b575061497a565b601f016020900490600052602060002090810190614979919061497d565b5b50565b5b8082111561499657600081600090555060010161497e565b509056fe4f6e6c7920746865206173736f63696174656420686f73706974616c206861732074686520617574686f7269747920746f206d6f6469667920746865207374617465206f66207472616e667573696f6e546865207472616e73667573696f6e2064657461696c732063616e206f6e6c792062652061646465642062792074686520686f73706974616c20696e207768696368207468652070617469656e74206973206265696e6720747265617465642e446f6e6174696f6e20696e666f726d6174696f6e206d7573742062652061646465642062792074686520686f73706974616c2077686f2076616c6964617465642074686520646f6e6f722e54686520446f6e6f722068617320616c7265616479206265656e2076616c696461746564486f73706974616c20776974682074686520676976656e206164647265737320646f65736e277420657869737420696e20746865206e6574776f726b2e436865636b20616761696e207468617420626f7468207365656b657220616e6420686f73706974616c2061726520616464656420696e746f206e6574776f726b5468652072657175657374206f66207472616e667573696f6e206d75737420626520617070726f766564207072696f7220746f207468697320737465702e4265666f726520676f696e672061686561642077697468207472616e73667573696f6e20706861736520616464207468652073746f7261676520696e666f726d6174696f6e596f75206d757374206265206164646564206173206120686f73706974616c20746f20746865206e6574776f726b20746f20706572666f726d2074686973206f7065726174696f6e4265666f726520676f696e672061686561642077697468207468652073746f72616765207068617365206164642074686520646f6e6174696f6e20696e666f726d6174696f6e2e2046697273742074686520646f6e6f72206e6565647320746f2062652076616c6964617465642062792074686520686f73706974616c20696e206f7264657220746f20616464207472616e73667573696f6e446f6e6f7220776974682074686520676976656e206164647265737320646f65736e277420657869737420696e20746865206e6574776f726b2e596f7520646f206e6f7420686176652074686520617574686f7269747920746f20706572666f726d2074686973206f7065726174696f6e21546865207365656b65722068617320616c7265616479206265656e2076616c6964617465645573657220776974682074686973206164647265737320616c726561647920657869737473206173206120646f6e6f72215365656b657220776974682074686520676976656e206164647265737320646f65736e277420657869737420696e20746865206e6574776f726b2e596f7520646f206e6f7420686176652074686520617574686f7269747920746f20706572666f726d2074686973206f7065726174696f6e2e4163636573732044656e6965642120596f7520646f206e6f7420686176652074686520617574686f7269747920746f2076616c69646174652061732070617469656e74206973206e6f74206173736f6369617465642077697468207468697320686f73706974616c5573657220776974682074686973206164647265737320616c7265616479206578697374732061732061207365656b657221a26469706673582212207a8844488e722504a38ad529cdc5bdf444238c8fed3f7bbd3798a61dccb2b41764736f6c63430007060033",
  "immutableReferences": {},
  "source": "// SPDX-License-Identifier: GPL-3.0\r\npragma solidity >=0.7.0 <0.9.0;\r\n\r\ncontract PlasmaDonation {\r\n    //Array of addresses that can used to retrieve the entities using map functionality in the frontend.\r\n    address[] public totalSeekers; //array of addresses that keeps the track of total seekers in the system.\r\n    address[] public totalDonors; // array of addresses that keeps the track of total Donors in the system.\r\n    address[] public totalHospitals; //array of addresses that keeps track of total Hospitals in the system.\r\n\r\n    //state variable that stores address of creator of contract with access of admin level.\r\n    address public plasmaManager;\r\n\r\n    //enumeration that stores the status of transfusion\r\n    enum status {\r\n        requestInitiated,\r\n        requestAdded,\r\n        requestApproved,\r\n        requestCompleted\r\n    }\r\n\r\n    //State variable that keeps track of successfully completed transfusions\r\n    uint256 public totalCompletedTransfusions = 0;\r\n\r\n    //structure to create a new datatype Seeker\r\n    struct Seeker {\r\n        address ethSeeker;\r\n        string hashOfSeekersData;\r\n        address associatedHospital;\r\n        bool isSeekerEligible;\r\n        bool exist;\r\n    }\r\n\r\n    //mappings that store data of Seeker and the index at which the donor is stored respectively.\r\n    mapping(address => Seeker) public seekers;\r\n    mapping(address => uint256) public indexOfSeeker;\r\n\r\n    //structure to create a new datatype Donor.\r\n    struct Donor {\r\n        address ethDonor;\r\n        string hashOfDonorsData;\r\n        address associatedHospital;\r\n        bool isDonorEligible;\r\n        bool exist;\r\n    }\r\n\r\n    //mappings that store data of Donor and the index at which the donor is stored respectively.\r\n    mapping(address => Donor) public donors;\r\n    mapping(address => uint256) public indexOfDonor;\r\n\r\n    //structure to create a new datatype Hospital.\r\n    struct Hospital {\r\n        address ethHospital;\r\n        string hospitalName;\r\n        string hashOfHospitalsData;\r\n        bool exist;\r\n    }\r\n\r\n    //mappings that store data of Hospital and the index at which the donor is stored respectively.\r\n    mapping(address => Hospital) public hospitals;\r\n    mapping(address => uint256) public indexOfHospital;\r\n\r\n    //structure to create a new datatype TransfusionState\r\n    struct TransfusionState {\r\n        uint256 indexOfTransfusion;\r\n        address ethSeeker;\r\n        address ethDonor;\r\n        address ethHospital;\r\n        status stateOfTransfusion;\r\n        string storageTime;\r\n        string updatedOn;\r\n        bool exist;\r\n    }\r\n\r\n    //Array of transfusions;\r\n    TransfusionState[] public transfusions;\r\n\r\n    //Assures that the function is only invoked by the plasma Manager\r\n    modifier onlyManager() {\r\n        require(\r\n            msg.sender == plasmaManager,\r\n            \"You do not have the authority to perform this operation!\"\r\n        );\r\n        _;\r\n    }\r\n\r\n    //Checks the existence of Seeker in Network.\r\n    modifier checkSeekerExist(address _ethSeeker) {\r\n        require(\r\n            seekers[_ethSeeker].exist,\r\n            \"Seeker with the given address doesn't exist in the network.\"\r\n        );\r\n        _;\r\n    }\r\n\r\n    //Checks existence of Donor in the Network.\r\n    modifier checkDonorExist(address _ethDonor) {\r\n        require(\r\n            donors[_ethDonor].exist,\r\n            \"Donor with the given address doesn't exist in the network.\"\r\n        );\r\n        _;\r\n    }\r\n\r\n    //Checks existence of Hospital in Network.\r\n    modifier checkHospitalExist(address _ethHospital) {\r\n        require(\r\n            hospitals[_ethHospital].exist,\r\n            \"Hospital with the given address doesn't exist in the network.\"\r\n        );\r\n        _;\r\n    }\r\n\r\n    //The constructor assigns the deployer of contract's address to plasmaManager.\r\n    constructor() {\r\n        plasmaManager = msg.sender;\r\n    }\r\n\r\n    //The hospital with which the seeker is associated validates the seeker and verifies that s/he is eligible or not.\r\n    function validateSeeker(address _ethSeeker)\r\n        public\r\n        checkSeekerExist(_ethSeeker)\r\n    {\r\n        require(\r\n            msg.sender == seekers[_ethSeeker].associatedHospital,\r\n            \"Access Denied! You do not have the authority to validate as patient is not associated with this hospital\"\r\n        );\r\n        require(\r\n            !seekers[_ethSeeker].isSeekerEligible,\r\n            \"The seeker has already been validated\"\r\n        );\r\n        seekers[_ethSeeker].isSeekerEligible = true;\r\n    }\r\n\r\n    //Adds the seeker data onto the network.\r\n    function addSeeker(\r\n        string memory _hashOfSeekersData,\r\n        address _associatedHospital\r\n    ) public {\r\n        //checks whether the seeker is already added or not.\r\n        require(\r\n            !seekers[msg.sender].exist,\r\n            \"User with this address already exists as a seeker!\"\r\n        );\r\n        Seeker storage seeker = seekers[msg.sender];\r\n        seeker.ethSeeker = msg.sender;\r\n        seeker.hashOfSeekersData = _hashOfSeekersData;\r\n        seeker.associatedHospital = _associatedHospital;\r\n        seeker.exist = true; //Indicates that the seeker is now a part of the network.\r\n        seeker.isSeekerEligible = false;\r\n\r\n        totalSeekers.push(msg.sender); //Adding seeker's address.\r\n        indexOfSeeker[msg.sender] = totalSeekers.length; //store the index on which seeker is added.\r\n    }\r\n\r\n    // Donor is added to the network.\r\n    function addDonor(string memory _hashOfDonorsData) public {\r\n        //checks whether the donor is already added or not.\r\n        require(\r\n            !donors[msg.sender].exist,\r\n            \"User with this address already exists as a donor!\"\r\n        );\r\n        Donor storage donor = donors[msg.sender];\r\n        donor.ethDonor = msg.sender;\r\n        donor.hashOfDonorsData = _hashOfDonorsData;\r\n        donor.exist = true; //Indicates that the donor is now a part of the network.\r\n        donor.isDonorEligible = false;\r\n\r\n        totalDonors.push(msg.sender); //Adding donors address.\r\n        indexOfDonor[msg.sender] = totalDonors.length; //store the index on which donor is added.\r\n    }\r\n\r\n    // Hospital is added to the network.\r\n    function addHospital(\r\n        address _ethHospital,\r\n        string memory _hospitalName,\r\n        string memory _hashOfHospitalsData\r\n    ) public onlyManager {\r\n        //checks whether the hospital is already added or not.\r\n        require(\r\n            !hospitals[_ethHospital].exist,\r\n            \"This Hospital is already added!\"\r\n        );\r\n\r\n        Hospital storage hospital = hospitals[_ethHospital];\r\n        hospital.ethHospital = _ethHospital;\r\n        hospital.hospitalName = _hospitalName;\r\n        hospital.hashOfHospitalsData = _hashOfHospitalsData;\r\n        hospital.exist = true; //Indicates that the hospital is now a part of the network.\r\n\r\n        totalHospitals.push(_ethHospital); //After adding hospital to the network increments the statevariable to keep track of total Hospitals in the system.\r\n        indexOfHospital[_ethHospital] = totalHospitals.length;\r\n    }\r\n\r\n    //removes the seeker if S/he turns out to be malicious. This operation can only be performed by the hospital.\r\n    function removeSeeker(address _ethSeeker)\r\n        public\r\n        checkSeekerExist(_ethSeeker)\r\n        checkHospitalExist(msg.sender)\r\n    {\r\n        require(\r\n            msg.sender == seekers[_ethSeeker].associatedHospital,\r\n            \"You do not have the authority to perform this operation.\"\r\n        );\r\n        delete seekers[_ethSeeker]; // deletes the information of seeker from mappings seeker.\r\n        uint256 index = indexOfSeeker[_ethSeeker] - 1; // get the index on which the seeker with the address _ethSeeker is stored.\r\n        if (index == totalSeekers.length - 1) {\r\n            totalSeekers.pop(); // if the seeker is present at the last index just perform pop operation.\r\n        } else {\r\n            delete totalSeekers[index]; //deleting that address from array totolSeekers.\r\n            totalSeekers[index] = totalSeekers[totalSeekers.length - 1]; //copying the last element to the deleted element index.\r\n            totalSeekers.pop(); // pop the redundant last element.\r\n            indexOfSeeker[totalSeekers[index]] = index + 1; //set the index value of the last element in mapping.\r\n        }\r\n        delete indexOfSeeker[_ethSeeker]; //deleting the seeker from the mapping.\r\n    }\r\n\r\n    //removes the donor if S/he turns out to be malicious. This operation can only be performed by any Hospital.\r\n    function removeDonor(address _ethDonor)\r\n        public\r\n        checkDonorExist(_ethDonor)\r\n        checkHospitalExist(msg.sender)\r\n    {\r\n        delete donors[_ethDonor];\r\n        uint256 index = indexOfDonor[_ethDonor] - 1; //get the index on which the donor with the address _ethDonor is stored.\r\n        if (index == totalDonors.length - 1) {\r\n            totalDonors.pop();\r\n        } else {\r\n            delete totalDonors[index]; //deleting that address from array totalDonors.\r\n            totalDonors[index] = totalDonors[totalDonors.length - 1]; //copying the last element to the deleted element's index.\r\n            totalDonors.pop(); // removing the last element.\r\n            indexOfDonor[totalDonors[index]] = index + 1; //updating the index value of that last element.\r\n        }\r\n        delete indexOfDonor[_ethDonor]; //deleting the donor from the mapping.\r\n    }\r\n\r\n    //removes the hospital if it turns out to be malicious. This operation can only be performed by Manager.\r\n    function removeHospital(address _ethHospital)\r\n        public\r\n        onlyManager\r\n        checkHospitalExist(_ethHospital)\r\n    {\r\n        delete hospitals[_ethHospital];\r\n        uint256 index = indexOfHospital[_ethHospital] - 1; //get the index on which the hospital with address _ethHospital is stored.\r\n        if (index == totalHospitals.length - 1) {\r\n            totalHospitals.pop();\r\n        } else {\r\n            delete totalHospitals[index]; //deleting that address from array totalHospitals.\r\n            totalHospitals[index] = totalHospitals[totalHospitals.length - 1]; //copying the last eelement to the deleted element's index.\r\n            totalHospitals.pop(); //poping the last redundant element.\r\n            indexOfHospital[totalHospitals[index]] = index + 1; //setting the index of the last element\r\n        }\r\n        delete indexOfHospital[_ethHospital]; //deleting the hospital from the mapping.\r\n    }\r\n\r\n    //Hospital validates the Donor before collecting Plasma.\r\n    function validateDonor(address _ethDonor)\r\n        public\r\n        checkHospitalExist(msg.sender)\r\n        checkDonorExist(_ethDonor)\r\n    {\r\n        require(\r\n            hospitals[msg.sender].exist,\r\n            \"You must be added as a hospital to the network to perform this operation\"\r\n        );\r\n        require(\r\n            !donors[_ethDonor].isDonorEligible,\r\n            \"The Donor has already been validated\"\r\n        );\r\n        donors[_ethDonor].associatedHospital = msg.sender;\r\n        donors[_ethDonor].isDonorEligible = true;\r\n    }\r\n\r\n    //Information about the Donation when the plasma is collected from the donor before transfusing it to any patient.\r\n    function Donation(address _ethDonor, string memory _updatedOn)\r\n        public\r\n        checkDonorExist(_ethDonor)\r\n        checkHospitalExist(msg.sender)\r\n    {\r\n        require(\r\n            donors[_ethDonor].isDonorEligible,\r\n            \"First the donor needs to be validated by the hospital in order to add transfusion\"\r\n        );\r\n        require(\r\n            donors[_ethDonor].associatedHospital == msg.sender,\r\n            \"Donation information must be added by the hospital who validated the donor.\"\r\n        );\r\n\r\n        TransfusionState memory newTransfusion =\r\n            TransfusionState({\r\n                indexOfTransfusion: transfusions.length, //As the plasma is not transfused yet, initializing seekers address.\r\n                ethSeeker: 0x0000000000000000000000000000000000000000,\r\n                ethDonor: _ethDonor,\r\n                ethHospital: msg.sender,\r\n                stateOfTransfusion: status.requestInitiated,\r\n                storageTime: \"\", //initializing the storage time\r\n                updatedOn: _updatedOn, //adding the donation timestamp to the array timeStamps.\r\n                exist: true\r\n            });\r\n        transfusions.push(newTransfusion);\r\n    }\r\n\r\n    //Adding the storage phase information.\r\n    function Storage(uint256 index, string memory _updatedOn)\r\n        public\r\n        checkHospitalExist(msg.sender)\r\n    {\r\n        require(\r\n            transfusions[index].stateOfTransfusion == status.requestInitiated,\r\n            \"Before going ahead with the storage phase add the donation information. \"\r\n        );\r\n        require(\r\n            transfusions[index].ethHospital == msg.sender,\r\n            \"Only the associated hospital has the authority to modify the state of tranfusion\"\r\n        );\r\n\r\n        transfusions[index].stateOfTransfusion = status.requestAdded;\r\n        transfusions[index].updatedOn = _updatedOn;\r\n    }\r\n\r\n    //Associating the patient that is transfused with the donor's Plasma.\r\n    function Tranfusion(\r\n        uint256 index,\r\n        address _ethSeeker,\r\n        string memory _updatedOn,\r\n        string memory _storageTime\r\n    ) public {\r\n        require(\r\n            transfusions[index].stateOfTransfusion == status.requestAdded,\r\n            \"Before going ahead with transfusion phase add the storage information\"\r\n        );\r\n        require(\r\n            seekers[_ethSeeker].exist && hospitals[msg.sender].exist,\r\n            \"Check again that both seeker and hospital are added into network\"\r\n        );\r\n        require(\r\n            msg.sender == seekers[_ethSeeker].associatedHospital,\r\n            \"The transfusion details can only be added by the hospital in which the patient is being treated.\"\r\n        );\r\n\r\n        transfusions[index].ethSeeker = _ethSeeker;\r\n        transfusions[index].stateOfTransfusion = status.requestApproved;\r\n        transfusions[index].updatedOn = _updatedOn;\r\n        transfusions[index].storageTime = _storageTime;\r\n    }\r\n\r\n    //The Tranfusion completed successfully.\r\n    function Complete(uint256 index, string memory _updatedOn)\r\n        public\r\n        checkSeekerExist(transfusions[index].ethSeeker)\r\n        checkDonorExist(transfusions[index].ethDonor)\r\n        checkHospitalExist(msg.sender)\r\n    {\r\n        require(\r\n            transfusions[index].stateOfTransfusion == status.requestApproved,\r\n            \"The request of tranfusion must be approved prior to this step.\"\r\n        );\r\n        require(\r\n            msg.sender ==\r\n                seekers[transfusions[index].ethSeeker].associatedHospital,\r\n            \"The transfusion details can only be added by the hospital in which the patient is being treated.\"\r\n        );\r\n\r\n        transfusions[index].stateOfTransfusion = status.requestCompleted;\r\n        transfusions[index].updatedOn = _updatedOn;\r\n        totalCompletedTransfusions++;\r\n    }\r\n\r\n    function viewTotalEntities()\r\n        public\r\n        view\r\n        returns (\r\n            uint256,\r\n            uint256,\r\n            uint256,\r\n            uint256\r\n        )\r\n    {\r\n        return (\r\n            totalSeekers.length,\r\n            totalDonors.length,\r\n            totalHospitals.length,\r\n            transfusions.length\r\n        );\r\n    }\r\n\r\n    function totalTransfusions() public view returns (uint256) {\r\n        return transfusions.length;\r\n    }\r\n\r\n    function getTransfusion(uint256 index)\r\n        public\r\n        view\r\n        returns (\r\n            uint256,\r\n            address,\r\n            address,\r\n            address, \r\n            uint256,\r\n            string memory,\r\n            string memory\r\n        )\r\n    {\r\n        return (\r\n            transfusions[index].indexOfTransfusion,\r\n            transfusions[index].ethSeeker,\r\n            transfusions[index].ethDonor,\r\n            transfusions[index].ethHospital,\r\n            uint256(transfusions[index].stateOfTransfusion),\r\n            transfusions[index].storageTime,\r\n            transfusions[index].updatedOn\r\n        );\r\n    }\r\n}\r\n",
  "sourcePath": "C:/Users/Dell/Desktop/Plasma Donation/contracts/PlasmaDonation.sol",
  "compiler": {
    "name": "solc",
    "version": "0.7.6+commit.7338295f.Emscripten.clang"
  },
  "schemaVersion": "3.3.4",
  "updatedAt": "2021-04-13T13:26:56.073Z",
  "networkType": "ethereum",
  "devdoc": {
    "kind": "dev",
    "methods": {},
    "version": 1
  },
  "userdoc": {
    "kind": "user",
    "methods": {},
    "version": 1
  }
}