{
  "contractName": "PlasmaDonation",
  "abi": [
    {
      "inputs": [],
      "stateMutability": "nonpayable",
      "type": "constructor"
    },
    {
      "inputs": [
        {
          "internalType": "address",
          "name": "",
          "type": "address"
        }
      ],
      "name": "donors",
      "outputs": [
        {
          "internalType": "address",
          "name": "ethDonor",
          "type": "address"
        },
        {
          "internalType": "string",
          "name": "hashOfDonorsData",
          "type": "string"
        },
        {
          "internalType": "address",
          "name": "associatedHospital",
          "type": "address"
        },
        {
          "internalType": "bool",
          "name": "isDonorEligible",
          "type": "bool"
        },
        {
          "internalType": "bool",
          "name": "exist",
          "type": "bool"
        }
      ],
      "stateMutability": "view",
      "type": "function",
      "constant": true
    },
    {
      "inputs": [
        {
          "internalType": "address",
          "name": "",
          "type": "address"
        }
      ],
      "name": "hospitals",
      "outputs": [
        {
          "internalType": "address",
          "name": "ethHospital",
          "type": "address"
        },
        {
          "internalType": "string",
          "name": "hospitalName",
          "type": "string"
        },
        {
          "internalType": "string",
          "name": "hashOfHospitalsData",
          "type": "string"
        },
        {
          "internalType": "bool",
          "name": "isHospitalLegitimate",
          "type": "bool"
        },
        {
          "internalType": "bool",
          "name": "exist",
          "type": "bool"
        }
      ],
      "stateMutability": "view",
      "type": "function",
      "constant": true
    },
    {
      "inputs": [
        {
          "internalType": "address",
          "name": "",
          "type": "address"
        }
      ],
      "name": "indexOfDonor",
      "outputs": [
        {
          "internalType": "uint256",
          "name": "",
          "type": "uint256"
        }
      ],
      "stateMutability": "view",
      "type": "function",
      "constant": true
    },
    {
      "inputs": [
        {
          "internalType": "address",
          "name": "",
          "type": "address"
        }
      ],
      "name": "indexOfHospital",
      "outputs": [
        {
          "internalType": "uint256",
          "name": "",
          "type": "uint256"
        }
      ],
      "stateMutability": "view",
      "type": "function",
      "constant": true
    },
    {
      "inputs": [
        {
          "internalType": "address",
          "name": "",
          "type": "address"
        }
      ],
      "name": "indexOfSeeker",
      "outputs": [
        {
          "internalType": "uint256",
          "name": "",
          "type": "uint256"
        }
      ],
      "stateMutability": "view",
      "type": "function",
      "constant": true
    },
    {
      "inputs": [],
      "name": "plasmaManager",
      "outputs": [
        {
          "internalType": "address",
          "name": "",
          "type": "address"
        }
      ],
      "stateMutability": "view",
      "type": "function",
      "constant": true
    },
    {
      "inputs": [
        {
          "internalType": "address",
          "name": "",
          "type": "address"
        }
      ],
      "name": "seekers",
      "outputs": [
        {
          "internalType": "address",
          "name": "ethSeeker",
          "type": "address"
        },
        {
          "internalType": "string",
          "name": "hashOfSeekersData",
          "type": "string"
        },
        {
          "internalType": "address",
          "name": "associatedHospital",
          "type": "address"
        },
        {
          "internalType": "bool",
          "name": "isSeekerEligible",
          "type": "bool"
        },
        {
          "internalType": "bool",
          "name": "exist",
          "type": "bool"
        }
      ],
      "stateMutability": "view",
      "type": "function",
      "constant": true
    },
    {
      "inputs": [],
      "name": "totalCompletedTransfusions",
      "outputs": [
        {
          "internalType": "uint256",
          "name": "",
          "type": "uint256"
        }
      ],
      "stateMutability": "view",
      "type": "function",
      "constant": true
    },
    {
      "inputs": [
        {
          "internalType": "uint256",
          "name": "",
          "type": "uint256"
        }
      ],
      "name": "totalDonors",
      "outputs": [
        {
          "internalType": "address",
          "name": "",
          "type": "address"
        }
      ],
      "stateMutability": "view",
      "type": "function",
      "constant": true
    },
    {
      "inputs": [
        {
          "internalType": "uint256",
          "name": "",
          "type": "uint256"
        }
      ],
      "name": "totalHospitals",
      "outputs": [
        {
          "internalType": "address",
          "name": "",
          "type": "address"
        }
      ],
      "stateMutability": "view",
      "type": "function",
      "constant": true
    },
    {
      "inputs": [
        {
          "internalType": "uint256",
          "name": "",
          "type": "uint256"
        }
      ],
      "name": "totalSeekers",
      "outputs": [
        {
          "internalType": "address",
          "name": "",
          "type": "address"
        }
      ],
      "stateMutability": "view",
      "type": "function",
      "constant": true
    },
    {
      "inputs": [
        {
          "internalType": "uint256",
          "name": "",
          "type": "uint256"
        }
      ],
      "name": "transfusions",
      "outputs": [
        {
          "internalType": "uint256",
          "name": "indexOfTransfusion",
          "type": "uint256"
        },
        {
          "internalType": "address",
          "name": "ethSeeker",
          "type": "address"
        },
        {
          "internalType": "address",
          "name": "ethDonor",
          "type": "address"
        },
        {
          "internalType": "address",
          "name": "ethHospital",
          "type": "address"
        },
        {
          "internalType": "enum PlasmaDonation.status",
          "name": "stateOfTransfusion",
          "type": "uint8"
        },
        {
          "internalType": "string",
          "name": "storageTime",
          "type": "string"
        },
        {
          "internalType": "string",
          "name": "updatedOn",
          "type": "string"
        },
        {
          "internalType": "bool",
          "name": "exist",
          "type": "bool"
        }
      ],
      "stateMutability": "view",
      "type": "function",
      "constant": true
    },
    {
      "inputs": [
        {
          "internalType": "address",
          "name": "_ethSeeker",
          "type": "address"
        }
      ],
      "name": "validateSeeker",
      "outputs": [],
      "stateMutability": "nonpayable",
      "type": "function"
    },
    {
      "inputs": [
        {
          "internalType": "string",
          "name": "_hashOfSeekersData",
          "type": "string"
        },
        {
          "internalType": "address",
          "name": "_associatedHospital",
          "type": "address"
        }
      ],
      "name": "addSeeker",
      "outputs": [],
      "stateMutability": "nonpayable",
      "type": "function"
    },
    {
      "inputs": [
        {
          "internalType": "string",
          "name": "_hashOfDonorsData",
          "type": "string"
        }
      ],
      "name": "addDonor",
      "outputs": [],
      "stateMutability": "nonpayable",
      "type": "function"
    },
    {
      "inputs": [
        {
          "internalType": "address",
          "name": "_ethHospital",
          "type": "address"
        }
      ],
      "name": "validateHospital",
      "outputs": [],
      "stateMutability": "nonpayable",
      "type": "function"
    },
    {
      "inputs": [
        {
          "internalType": "address",
          "name": "_ethHospital",
          "type": "address"
        },
        {
          "internalType": "string",
          "name": "_hospitalName",
          "type": "string"
        },
        {
          "internalType": "string",
          "name": "_hashOfHospitalsData",
          "type": "string"
        }
      ],
      "name": "addHospital",
      "outputs": [],
      "stateMutability": "nonpayable",
      "type": "function"
    },
    {
      "inputs": [
        {
          "internalType": "address",
          "name": "_ethSeeker",
          "type": "address"
        }
      ],
      "name": "removeSeeker",
      "outputs": [],
      "stateMutability": "nonpayable",
      "type": "function"
    },
    {
      "inputs": [
        {
          "internalType": "address",
          "name": "_ethDonor",
          "type": "address"
        }
      ],
      "name": "removeDonor",
      "outputs": [],
      "stateMutability": "nonpayable",
      "type": "function"
    },
    {
      "inputs": [
        {
          "internalType": "address",
          "name": "_ethHospital",
          "type": "address"
        }
      ],
      "name": "removeHospital",
      "outputs": [],
      "stateMutability": "nonpayable",
      "type": "function"
    },
    {
      "inputs": [
        {
          "internalType": "address",
          "name": "_ethDonor",
          "type": "address"
        }
      ],
      "name": "validateDonor",
      "outputs": [],
      "stateMutability": "nonpayable",
      "type": "function"
    },
    {
      "inputs": [
        {
          "internalType": "address",
          "name": "_ethDonor",
          "type": "address"
        },
        {
          "internalType": "string",
          "name": "_updatedOn",
          "type": "string"
        }
      ],
      "name": "Donation",
      "outputs": [],
      "stateMutability": "nonpayable",
      "type": "function"
    },
    {
      "inputs": [
        {
          "internalType": "uint256",
          "name": "index",
          "type": "uint256"
        },
        {
          "internalType": "string",
          "name": "_updatedOn",
          "type": "string"
        }
      ],
      "name": "Storage",
      "outputs": [],
      "stateMutability": "nonpayable",
      "type": "function"
    },
    {
      "inputs": [
        {
          "internalType": "uint256",
          "name": "index",
          "type": "uint256"
        },
        {
          "internalType": "address",
          "name": "_ethSeeker",
          "type": "address"
        },
        {
          "internalType": "string",
          "name": "_updatedOn",
          "type": "string"
        },
        {
          "internalType": "string",
          "name": "_storageTime",
          "type": "string"
        }
      ],
      "name": "Tranfusion",
      "outputs": [],
      "stateMutability": "nonpayable",
      "type": "function"
    },
    {
      "inputs": [
        {
          "internalType": "uint256",
          "name": "index",
          "type": "uint256"
        },
        {
          "internalType": "string",
          "name": "_updatedOn",
          "type": "string"
        }
      ],
      "name": "Complete",
      "outputs": [],
      "stateMutability": "nonpayable",
      "type": "function"
    },
    {
      "inputs": [],
      "name": "viewAllSeekers",
      "outputs": [
        {
          "internalType": "address[]",
          "name": "",
          "type": "address[]"
        }
      ],
      "stateMutability": "view",
      "type": "function",
      "constant": true
    },
    {
      "inputs": [],
      "name": "viewAllDonors",
      "outputs": [
        {
          "internalType": "address[]",
          "name": "",
          "type": "address[]"
        }
      ],
      "stateMutability": "view",
      "type": "function",
      "constant": true
    },
    {
      "inputs": [],
      "name": "viewAllHospitals",
      "outputs": [
        {
          "internalType": "address[]",
          "name": "",
          "type": "address[]"
        }
      ],
      "stateMutability": "view",
      "type": "function",
      "constant": true
    }
  ],
  "bytecode": "0x6080604052600060045534801561001557600080fd5b5033600360006101000a81548173ffffffffffffffffffffffffffffffffffffffff021916908373ffffffffffffffffffffffffffffffffffffffff16021790555061501c806100666000396000f3fe608060405234801561001057600080fd5b50600436106101c45760003560e01c80638775b6a7116100f9578063b0742ce911610097578063cf98cab811610071578063cf98cab81461106c578063d1e5c633146110b0578063eeb920b71461110f578063f093cf8014611167576101c4565b8063b0742ce914610e44578063c3c72d8614610e88578063ca0cdea814610f63576101c4565b8063a7f77f66116100d3578063a7f77f6614610c22578063a969890614610c66578063a9c7ad5a14610caa578063aedfcf9514610e26576101c4565b80638775b6a7146109f35780639e6c344714610b7f5780639f5e05b014610bde576101c4565b806361001ac6116101665780637425429011610140578063742542901461069f578063782b5186146107645780638121d25d14610829578063828566fc14610881576101c4565b806361001ac6146105b4578063686f625e1461060c5780636f3f0de314610640576101c4565b806330629cdf116101a257806330629cdf146103a357806330af783a146103fb5780633d8af0d514610453578063491a5af3146104ab576101c4565b8063073c560f146101c95780631865b87f146102a45780632a5ff5f61461035f575b600080fd5b6102a2600480360360408110156101df57600080fd5b81019080803590602001906401000000008111156101fc57600080fd5b82018360208201111561020e57600080fd5b8035906020019184600183028401116401000000008311171561023057600080fd5b91908080601f016020809104026020016040519081016040528093929190818152602001838380828437600081840152601f19601f820116905080830192505050505050509192919290803573ffffffffffffffffffffffffffffffffffffffff1690602001909291905050506112bf565b005b61035d600480360360208110156102ba57600080fd5b81019080803590602001906401000000008111156102d757600080fd5b8201836020820111156102e957600080fd5b8035906020019184600183028401116401000000008311171561030b57600080fd5b91908080601f016020809104026020016040519081016040528093929190818152602001838380828437600081840152601f19601f820116905080830192505050505050509192919290505050611532565b005b6103a16004803603602081101561037557600080fd5b81019080803573ffffffffffffffffffffffffffffffffffffffff169060200190929190505050611761565b005b6103e5600480360360208110156103b957600080fd5b81019080803573ffffffffffffffffffffffffffffffffffffffff169060200190929190505050611ccd565b6040518082815260200191505060405180910390f35b6104276004803603602081101561041157600080fd5b8101908080359060200190929190505050611ce5565b604051808273ffffffffffffffffffffffffffffffffffffffff16815260200191505060405180910390f35b61047f6004803603602081101561046957600080fd5b8101908080359060200190929190505050611d24565b604051808273ffffffffffffffffffffffffffffffffffffffff16815260200191505060405180910390f35b6104ed600480360360208110156104c157600080fd5b81019080803573ffffffffffffffffffffffffffffffffffffffff169060200190929190505050611d63565b604051808673ffffffffffffffffffffffffffffffffffffffff168152602001806020018573ffffffffffffffffffffffffffffffffffffffff16815260200184151581526020018315158152602001828103825286818151815260200191508051906020019080838360005b8381101561057557808201518184015260208101905061055a565b50505050905090810190601f1680156105a25780820380516001836020036101000a031916815260200191505b50965050505050505060405180910390f35b6105f6600480360360208110156105ca57600080fd5b81019080803573ffffffffffffffffffffffffffffffffffffffff169060200190929190505050611e8b565b6040518082815260200191505060405180910390f35b610614611ea3565b604051808273ffffffffffffffffffffffffffffffffffffffff16815260200191505060405180910390f35b610648611ec9565b6040518080602001828103825283818151815260200191508051906020019060200280838360005b8381101561068b578082015181840152602081019050610670565b505050509050019250505060405180910390f35b610762600480360360408110156106b557600080fd5b8101908080359060200190929190803590602001906401000000008111156106dc57600080fd5b8201836020820111156106ee57600080fd5b8035906020019184600183028401116401000000008311171561071057600080fd5b91908080601f016020809104026020016040519081016040528093929190818152602001838380828437600081840152601f19601f820116905080830192505050505050509192919290505050611f57565b005b6108276004803603604081101561077a57600080fd5b8101908080359060200190929190803590602001906401000000008111156107a157600080fd5b8201836020820111156107b357600080fd5b803590602001918460018302840111640100000000831117156107d557600080fd5b91908080601f016020809104026020016040519081016040528093929190818152602001838380828437600081840152601f19601f82011690508083019250505050505050919291929050505061240f565b005b61086b6004803603602081101561083f57600080fd5b81019080803573ffffffffffffffffffffffffffffffffffffffff169060200190929190505050612689565b6040518082815260200191505060405180910390f35b6109f16004803603606081101561089757600080fd5b81019080803573ffffffffffffffffffffffffffffffffffffffff169060200190929190803590602001906401000000008111156108d457600080fd5b8201836020820111156108e657600080fd5b8035906020019184600183028401116401000000008311171561090857600080fd5b91908080601f016020809104026020016040519081016040528093929190818152602001838380828437600081840152601f19601f8201169050808301925050505050505091929192908035906020019064010000000081111561096b57600080fd5b82018360208201111561097d57600080fd5b8035906020019184600183028401116401000000008311171561099f57600080fd5b91908080601f016020809104026020016040519081016040528093929190818152602001838380828437600081840152601f19601f8201169050808301925050505050505091929192905050506126a1565b005b610a1f60048036036020811015610a0957600080fd5b8101908080359060200190929190505050612a36565b604051808981526020018873ffffffffffffffffffffffffffffffffffffffff1681526020018773ffffffffffffffffffffffffffffffffffffffff1681526020018673ffffffffffffffffffffffffffffffffffffffff168152602001856003811115610a8957fe5b815260200180602001806020018415158152602001838103835286818151815260200191508051906020019080838360005b83811015610ad6578082015181840152602081019050610abb565b50505050905090810190601f168015610b035780820380516001836020036101000a031916815260200191505b50838103825285818151815260200191508051906020019080838360005b83811015610b3c578082015181840152602081019050610b21565b50505050905090810190601f168015610b695780820380516001836020036101000a031916815260200191505b509a505050505050505050505060405180910390f35b610b87612c38565b6040518080602001828103825283818151815260200191508051906020019060200280838360005b83811015610bca578082015181840152602081019050610baf565b505050509050019250505060405180910390f35b610c2060048036036020811015610bf457600080fd5b81019080803573ffffffffffffffffffffffffffffffffffffffff169060200190929190505050612cc6565b005b610c6460048036036020811015610c3857600080fd5b81019080803573ffffffffffffffffffffffffffffffffffffffff16906020019092919050505061303e565b005b610ca860048036036020811015610c7c57600080fd5b81019080803573ffffffffffffffffffffffffffffffffffffffff1690602001909291905050506134c2565b005b610e2460048036036080811015610cc057600080fd5b8101908080359060200190929190803573ffffffffffffffffffffffffffffffffffffffff16906020019092919080359060200190640100000000811115610d0757600080fd5b820183602082011115610d1957600080fd5b80359060200191846001830284011164010000000083111715610d3b57600080fd5b91908080601f016020809104026020016040519081016040528093929190818152602001838380828437600081840152601f19601f82011690508083019250505050505050919291929080359060200190640100000000811115610d9e57600080fd5b820183602082011115610db057600080fd5b80359060200191846001830284011164010000000083111715610dd257600080fd5b91908080601f016020809104026020016040519081016040528093929190818152602001838380828437600081840152601f19601f820116905080830192505050505050509192919290505050613931565b005b610e2e613cb7565b6040518082815260200191505060405180910390f35b610e8660048036036020811015610e5a57600080fd5b81019080803573ffffffffffffffffffffffffffffffffffffffff169060200190929190505050613cbd565b005b610f6160048036036040811015610e9e57600080fd5b81019080803573ffffffffffffffffffffffffffffffffffffffff16906020019092919080359060200190640100000000811115610edb57600080fd5b820183602082011115610eed57600080fd5b80359060200191846001830284011164010000000083111715610f0f57600080fd5b91908080601f016020809104026020016040519081016040528093929190818152602001838380828437600081840152601f19601f820116905080830192505050505050509192919290505050613e67565b005b610fa560048036036020811015610f7957600080fd5b81019080803573ffffffffffffffffffffffffffffffffffffffff169060200190929190505050614379565b604051808673ffffffffffffffffffffffffffffffffffffffff168152602001806020018573ffffffffffffffffffffffffffffffffffffffff16815260200184151581526020018315158152602001828103825286818151815260200191508051906020019080838360005b8381101561102d578082015181840152602081019050611012565b50505050905090810190601f16801561105a5780820380516001836020036101000a031916815260200191505b50965050505050505060405180910390f35b6110ae6004803603602081101561108257600080fd5b81019080803573ffffffffffffffffffffffffffffffffffffffff1690602001909291905050506144a1565b005b6110b8614732565b6040518080602001828103825283818151815260200191508051906020019060200280838360005b838110156110fb5780820151818401526020810190506110e0565b505050509050019250505060405180910390f35b61113b6004803603602081101561112557600080fd5b81019080803590602001909291905050506147c0565b604051808273ffffffffffffffffffffffffffffffffffffffff16815260200191505060405180910390f35b6111a96004803603602081101561117d57600080fd5b81019080803573ffffffffffffffffffffffffffffffffffffffff1690602001909291905050506147ff565b604051808673ffffffffffffffffffffffffffffffffffffffff168152602001806020018060200185151581526020018415158152602001838103835287818151815260200191508051906020019080838360005b838110156112195780820151818401526020810190506111fe565b50505050905090810190601f1680156112465780820380516001836020036101000a031916815260200191505b50838103825286818151815260200191508051906020019080838360005b8381101561127f578082015181840152602081019050611264565b50505050905090810190601f1680156112ac5780820380516001836020036101000a031916815260200191505b5097505050505050505060405180910390f35b600560003373ffffffffffffffffffffffffffffffffffffffff1673ffffffffffffffffffffffffffffffffffffffff16815260200190815260200160002060020160159054906101000a900460ff1615611365576040517f08c379a0000000000000000000000000000000000000000000000000000000008152600401808060200182810382526032815260200180614f786032913960400191505060405180910390fd5b6000600560003373ffffffffffffffffffffffffffffffffffffffff1673ffffffffffffffffffffffffffffffffffffffff1681526020019081526020016000209050338160000160006101000a81548173ffffffffffffffffffffffffffffffffffffffff021916908373ffffffffffffffffffffffffffffffffffffffff1602179055508281600101908051906020019061140392919061499f565b50818160020160006101000a81548173ffffffffffffffffffffffffffffffffffffffff021916908373ffffffffffffffffffffffffffffffffffffffff16021790555060018160020160156101000a81548160ff02191690831515021790555060008160020160146101000a81548160ff0219169083151502179055506000339080600181540180825580915050600190039060005260206000200160009091909190916101000a81548173ffffffffffffffffffffffffffffffffffffffff021916908373ffffffffffffffffffffffffffffffffffffffff160217905550600080549050600660003373ffffffffffffffffffffffffffffffffffffffff1673ffffffffffffffffffffffffffffffffffffffff16815260200190815260200160002081905550505050565b600760003373ffffffffffffffffffffffffffffffffffffffff1673ffffffffffffffffffffffffffffffffffffffff16815260200190815260200160002060020160159054906101000a900460ff16156115d8576040517f08c379a0000000000000000000000000000000000000000000000000000000008152600401808060200182810382526031815260200180614e6c6031913960400191505060405180910390fd5b6000600760003373ffffffffffffffffffffffffffffffffffffffff1673ffffffffffffffffffffffffffffffffffffffff1681526020019081526020016000209050338160000160006101000a81548173ffffffffffffffffffffffffffffffffffffffff021916908373ffffffffffffffffffffffffffffffffffffffff1602179055508181600101908051906020019061167692919061499f565b5060018160020160156101000a81548160ff02191690831515021790555060008160020160146101000a81548160ff0219169083151502179055506001339080600181540180825580915050600190039060005260206000200160009091909190916101000a81548173ffffffffffffffffffffffffffffffffffffffff021916908373ffffffffffffffffffffffffffffffffffffffff160217905550600180549050600860003373ffffffffffffffffffffffffffffffffffffffff1673ffffffffffffffffffffffffffffffffffffffff168152602001908152602001600020819055505050565b80600560008273ffffffffffffffffffffffffffffffffffffffff1673ffffffffffffffffffffffffffffffffffffffff16815260200190815260200160002060020160159054906101000a900460ff16611807576040517f08c379a000000000000000000000000000000000000000000000000000000000815260040180806020018281038252603b815260200180614e9d603b913960400191505060405180910390fd5b33600960008273ffffffffffffffffffffffffffffffffffffffff1673ffffffffffffffffffffffffffffffffffffffff16815260200190815260200160002060030160019054906101000a900460ff166118ad576040517f08c379a000000000000000000000000000000000000000000000000000000000815260040180806020018281038252603d815260200180614bf4603d913960400191505060405180910390fd5b600560008473ffffffffffffffffffffffffffffffffffffffff1673ffffffffffffffffffffffffffffffffffffffff16815260200190815260200160002060020160009054906101000a900473ffffffffffffffffffffffffffffffffffffffff1673ffffffffffffffffffffffffffffffffffffffff163373ffffffffffffffffffffffffffffffffffffffff1614611993576040517f08c379a0000000000000000000000000000000000000000000000000000000008152600401808060200182810382526038815260200180614ed86038913960400191505060405180910390fd5b600560008473ffffffffffffffffffffffffffffffffffffffff1673ffffffffffffffffffffffffffffffffffffffff168152602001908152602001600020600080820160006101000a81549073ffffffffffffffffffffffffffffffffffffffff0219169055600182016000611a0a9190614a2d565b6002820160006101000a81549073ffffffffffffffffffffffffffffffffffffffff02191690556002820160146101000a81549060ff02191690556002820160156101000a81549060ff0219169055505060006001600660008673ffffffffffffffffffffffffffffffffffffffff1673ffffffffffffffffffffffffffffffffffffffff16815260200190815260200160002054039050600160008054905003811415611af7576000805480611abd57fe5b6001900381819060005260206000200160006101000a81549073ffffffffffffffffffffffffffffffffffffffff02191690559055611c84565b60008181548110611b0457fe5b9060005260206000200160006101000a81549073ffffffffffffffffffffffffffffffffffffffff0219169055600060016000805490500381548110611b4657fe5b9060005260206000200160009054906101000a900473ffffffffffffffffffffffffffffffffffffffff1660008281548110611b7e57fe5b9060005260206000200160006101000a81548173ffffffffffffffffffffffffffffffffffffffff021916908373ffffffffffffffffffffffffffffffffffffffff1602179055506000805480611bd157fe5b6001900381819060005260206000200160006101000a81549073ffffffffffffffffffffffffffffffffffffffff021916905590556001810160066000808481548110611c1a57fe5b9060005260206000200160009054906101000a900473ffffffffffffffffffffffffffffffffffffffff1673ffffffffffffffffffffffffffffffffffffffff1673ffffffffffffffffffffffffffffffffffffffff168152602001908152602001600020819055505b600660008573ffffffffffffffffffffffffffffffffffffffff1673ffffffffffffffffffffffffffffffffffffffff1681526020019081526020016000206000905550505050565b60086020528060005260406000206000915090505481565b60008181548110611cf557600080fd5b906000526020600020016000915054906101000a900473ffffffffffffffffffffffffffffffffffffffff1681565b60018181548110611d3457600080fd5b906000526020600020016000915054906101000a900473ffffffffffffffffffffffffffffffffffffffff1681565b60056020528060005260406000206000915090508060000160009054906101000a900473ffffffffffffffffffffffffffffffffffffffff1690806001018054600181600116156101000203166002900480601f016020809104026020016040519081016040528092919081815260200182805460018160011615610100020316600290048015611e355780601f10611e0a57610100808354040283529160200191611e35565b820191906000526020600020905b815481529060010190602001808311611e1857829003601f168201915b5050505050908060020160009054906101000a900473ffffffffffffffffffffffffffffffffffffffff16908060020160149054906101000a900460ff16908060020160159054906101000a900460ff16905085565b60066020528060005260406000206000915090505481565b600360009054906101000a900473ffffffffffffffffffffffffffffffffffffffff1681565b60606002805480602002602001604051908101604052809291908181526020018280548015611f4d57602002820191906000526020600020905b8160009054906101000a900473ffffffffffffffffffffffffffffffffffffffff1673ffffffffffffffffffffffffffffffffffffffff1681526020019060010190808311611f03575b5050505050905090565b600b8281548110611f6457fe5b906000526020600020906007020160010160009054906101000a900473ffffffffffffffffffffffffffffffffffffffff16600560008273ffffffffffffffffffffffffffffffffffffffff1673ffffffffffffffffffffffffffffffffffffffff16815260200190815260200160002060020160159054906101000a900460ff1661203b576040517f08c379a000000000000000000000000000000000000000000000000000000000815260040180806020018281038252603b815260200180614e9d603b913960400191505060405180910390fd5b600b838154811061204857fe5b906000526020600020906007020160020160009054906101000a900473ffffffffffffffffffffffffffffffffffffffff16600760008273ffffffffffffffffffffffffffffffffffffffff1673ffffffffffffffffffffffffffffffffffffffff16815260200190815260200160002060020160159054906101000a900460ff1661211f576040517f08c379a000000000000000000000000000000000000000000000000000000000815260040180806020018281038252603a815260200180614dd5603a913960400191505060405180910390fd5b33600960008273ffffffffffffffffffffffffffffffffffffffff1673ffffffffffffffffffffffffffffffffffffffff16815260200190815260200160002060030160019054906101000a900460ff166121c5576040517f08c379a000000000000000000000000000000000000000000000000000000000815260040180806020018281038252603d815260200180614bf4603d913960400191505060405180910390fd5b600260038111156121d257fe5b600b86815481106121df57fe5b906000526020600020906007020160030160149054906101000a900460ff16600381111561220957fe5b1461225f576040517f08c379a000000000000000000000000000000000000000000000000000000000815260040180806020018281038252603e815260200180614c71603e913960400191505060405180910390fd5b60056000600b878154811061227057fe5b906000526020600020906007020160010160009054906101000a900473ffffffffffffffffffffffffffffffffffffffff1673ffffffffffffffffffffffffffffffffffffffff1673ffffffffffffffffffffffffffffffffffffffff16815260200190815260200160002060020160009054906101000a900473ffffffffffffffffffffffffffffffffffffffff1673ffffffffffffffffffffffffffffffffffffffff163373ffffffffffffffffffffffffffffffffffffffff1614612383576040517f08c379a0000000000000000000000000000000000000000000000000000000008152600401808060200182810382526060815260200180614b256060913960600191505060405180910390fd5b6003600b868154811061239257fe5b906000526020600020906007020160030160146101000a81548160ff021916908360038111156123be57fe5b021790555083600b86815481106123d157fe5b906000526020600020906007020160050190805190602001906123f592919061499f565b506004600081548092919060010191905055505050505050565b33600960008273ffffffffffffffffffffffffffffffffffffffff1673ffffffffffffffffffffffffffffffffffffffff16815260200190815260200160002060030160019054906101000a900460ff166124b5576040517f08c379a000000000000000000000000000000000000000000000000000000000815260040180806020018281038252603d815260200180614bf4603d913960400191505060405180910390fd5b600060038111156124c257fe5b600b84815481106124cf57fe5b906000526020600020906007020160030160149054906101000a900460ff1660038111156124f957fe5b1461254f576040517f08c379a0000000000000000000000000000000000000000000000000000000008152600401808060200182810382526048815260200180614d3c6048913960600191505060405180910390fd5b3373ffffffffffffffffffffffffffffffffffffffff16600b848154811061257357fe5b906000526020600020906007020160030160009054906101000a900473ffffffffffffffffffffffffffffffffffffffff1673ffffffffffffffffffffffffffffffffffffffff1614612611576040517f08c379a0000000000000000000000000000000000000000000000000000000008152600401808060200182810382526050815260200180614ad56050913960600191505060405180910390fd5b6001600b848154811061262057fe5b906000526020600020906007020160030160146101000a81548160ff0219169083600381111561264c57fe5b021790555081600b848154811061265f57fe5b9060005260206000209060070201600501908051906020019061268392919061499f565b50505050565b600a6020528060005260406000206000915090505481565b600360009054906101000a900473ffffffffffffffffffffffffffffffffffffffff1673ffffffffffffffffffffffffffffffffffffffff163373ffffffffffffffffffffffffffffffffffffffff1614612747576040517f08c379a0000000000000000000000000000000000000000000000000000000008152600401808060200182810382526038815260200180614e0f6038913960400191505060405180910390fd5b600960008473ffffffffffffffffffffffffffffffffffffffff1673ffffffffffffffffffffffffffffffffffffffff16815260200190815260200160002060030160019054906101000a900460ff161561280a576040517f08c379a000000000000000000000000000000000000000000000000000000000815260040180806020018281038252601f8152602001807f5468697320486f73706974616c20697320616c7265616479206164646564210081525060200191505060405180910390fd5b600960008473ffffffffffffffffffffffffffffffffffffffff1673ffffffffffffffffffffffffffffffffffffffff16815260200190815260200160002060030160009054906101000a900460ff166128af576040517f08c379a000000000000000000000000000000000000000000000000000000000815260040180806020018281038252603d815260200180614faa603d913960400191505060405180910390fd5b6000600960008573ffffffffffffffffffffffffffffffffffffffff1673ffffffffffffffffffffffffffffffffffffffff1681526020019081526020016000209050838160000160006101000a81548173ffffffffffffffffffffffffffffffffffffffff021916908373ffffffffffffffffffffffffffffffffffffffff1602179055508281600101908051906020019061294d92919061499f565b508181600201908051906020019061296692919061499f565b5060018160030160016101000a81548160ff0219169083151502179055506002849080600181540180825580915050600190039060005260206000200160009091909190916101000a81548173ffffffffffffffffffffffffffffffffffffffff021916908373ffffffffffffffffffffffffffffffffffffffff160217905550600280549050600a60008673ffffffffffffffffffffffffffffffffffffffff1673ffffffffffffffffffffffffffffffffffffffff1681526020019081526020016000208190555050505050565b600b8181548110612a4657600080fd5b90600052602060002090600702016000915090508060000154908060010160009054906101000a900473ffffffffffffffffffffffffffffffffffffffff16908060020160009054906101000a900473ffffffffffffffffffffffffffffffffffffffff16908060030160009054906101000a900473ffffffffffffffffffffffffffffffffffffffff16908060030160149054906101000a900460ff1690806004018054600181600116156101000203166002900480601f016020809104026020016040519081016040528092919081815260200182805460018160011615610100020316600290048015612b7d5780601f10612b5257610100808354040283529160200191612b7d565b820191906000526020600020905b815481529060010190602001808311612b6057829003601f168201915b505050505090806005018054600181600116156101000203166002900480601f016020809104026020016040519081016040528092919081815260200182805460018160011615610100020316600290048015612c1b5780601f10612bf057610100808354040283529160200191612c1b565b820191906000526020600020905b815481529060010190602001808311612bfe57829003601f168201915b5050505050908060060160009054906101000a900460ff16905088565b60606001805480602002602001604051908101604052809291908181526020018280548015612cbc57602002820191906000526020600020905b8160009054906101000a900473ffffffffffffffffffffffffffffffffffffffff1673ffffffffffffffffffffffffffffffffffffffff1681526020019060010190808311612c72575b5050505050905090565b33600960008273ffffffffffffffffffffffffffffffffffffffff1673ffffffffffffffffffffffffffffffffffffffff16815260200190815260200160002060030160019054906101000a900460ff16612d6c576040517f08c379a000000000000000000000000000000000000000000000000000000000815260040180806020018281038252603d815260200180614bf4603d913960400191505060405180910390fd5b81600760008273ffffffffffffffffffffffffffffffffffffffff1673ffffffffffffffffffffffffffffffffffffffff16815260200190815260200160002060020160159054906101000a900460ff16612e12576040517f08c379a000000000000000000000000000000000000000000000000000000000815260040180806020018281038252603a815260200180614dd5603a913960400191505060405180910390fd5b600960003373ffffffffffffffffffffffffffffffffffffffff1673ffffffffffffffffffffffffffffffffffffffff16815260200190815260200160002060030160019054906101000a900460ff16612eb7576040517f08c379a0000000000000000000000000000000000000000000000000000000008152600401808060200182810382526048815260200180614cf46048913960600191505060405180910390fd5b600760008473ffffffffffffffffffffffffffffffffffffffff1673ffffffffffffffffffffffffffffffffffffffff16815260200190815260200160002060020160149054906101000a900460ff1615612f5d576040517f08c379a0000000000000000000000000000000000000000000000000000000008152600401808060200182810382526024815260200180614bd06024913960400191505060405180910390fd5b33600760008573ffffffffffffffffffffffffffffffffffffffff1673ffffffffffffffffffffffffffffffffffffffff16815260200190815260200160002060020160006101000a81548173ffffffffffffffffffffffffffffffffffffffff021916908373ffffffffffffffffffffffffffffffffffffffff1602179055506001600760008573ffffffffffffffffffffffffffffffffffffffff1673ffffffffffffffffffffffffffffffffffffffff16815260200190815260200160002060020160146101000a81548160ff021916908315150217905550505050565b80600760008273ffffffffffffffffffffffffffffffffffffffff1673ffffffffffffffffffffffffffffffffffffffff16815260200190815260200160002060020160159054906101000a900460ff166130e4576040517f08c379a000000000000000000000000000000000000000000000000000000000815260040180806020018281038252603a815260200180614dd5603a913960400191505060405180910390fd5b33600960008273ffffffffffffffffffffffffffffffffffffffff1673ffffffffffffffffffffffffffffffffffffffff16815260200190815260200160002060030160019054906101000a900460ff1661318a576040517f08c379a000000000000000000000000000000000000000000000000000000000815260040180806020018281038252603d815260200180614bf4603d913960400191505060405180910390fd5b600760008473ffffffffffffffffffffffffffffffffffffffff1673ffffffffffffffffffffffffffffffffffffffff168152602001908152602001600020600080820160006101000a81549073ffffffffffffffffffffffffffffffffffffffff02191690556001820160006132019190614a2d565b6002820160006101000a81549073ffffffffffffffffffffffffffffffffffffffff02191690556002820160146101000a81549060ff02191690556002820160156101000a81549060ff0219169055505060006001600860008673ffffffffffffffffffffffffffffffffffffffff1673ffffffffffffffffffffffffffffffffffffffff1681526020019081526020016000205403905060018080549050038114156132ed5760018054806132b357fe5b6001900381819060005260206000200160006101000a81549073ffffffffffffffffffffffffffffffffffffffff02191690559055613479565b600181815481106132fa57fe5b9060005260206000200160006101000a81549073ffffffffffffffffffffffffffffffffffffffff02191690556001808080549050038154811061333a57fe5b9060005260206000200160009054906101000a900473ffffffffffffffffffffffffffffffffffffffff166001828154811061337257fe5b9060005260206000200160006101000a81548173ffffffffffffffffffffffffffffffffffffffff021916908373ffffffffffffffffffffffffffffffffffffffff16021790555060018054806133c557fe5b6001900381819060005260206000200160006101000a81549073ffffffffffffffffffffffffffffffffffffffff0219169055905560018101600860006001848154811061340f57fe5b9060005260206000200160009054906101000a900473ffffffffffffffffffffffffffffffffffffffff1673ffffffffffffffffffffffffffffffffffffffff1673ffffffffffffffffffffffffffffffffffffffff168152602001908152602001600020819055505b600860008573ffffffffffffffffffffffffffffffffffffffff1673ffffffffffffffffffffffffffffffffffffffff1681526020019081526020016000206000905550505050565b600360009054906101000a900473ffffffffffffffffffffffffffffffffffffffff1673ffffffffffffffffffffffffffffffffffffffff163373ffffffffffffffffffffffffffffffffffffffff1614613568576040517f08c379a0000000000000000000000000000000000000000000000000000000008152600401808060200182810382526038815260200180614e0f6038913960400191505060405180910390fd5b80600960008273ffffffffffffffffffffffffffffffffffffffff1673ffffffffffffffffffffffffffffffffffffffff16815260200190815260200160002060030160019054906101000a900460ff1661360e576040517f08c379a000000000000000000000000000000000000000000000000000000000815260040180806020018281038252603d815260200180614bf4603d913960400191505060405180910390fd5b600960008373ffffffffffffffffffffffffffffffffffffffff1673ffffffffffffffffffffffffffffffffffffffff168152602001908152602001600020600080820160006101000a81549073ffffffffffffffffffffffffffffffffffffffff02191690556001820160006136859190614a2d565b6002820160006136959190614a2d565b6003820160006101000a81549060ff02191690556003820160016101000a81549060ff0219169055505060006001600a60008573ffffffffffffffffffffffffffffffffffffffff1673ffffffffffffffffffffffffffffffffffffffff1681526020019081526020016000205403905060016002805490500381141561375b57600280548061372157fe5b6001900381819060005260206000200160006101000a81549073ffffffffffffffffffffffffffffffffffffffff021916905590556138e9565b6002818154811061376857fe5b9060005260206000200160006101000a81549073ffffffffffffffffffffffffffffffffffffffff02191690556002600160028054905003815481106137aa57fe5b9060005260206000200160009054906101000a900473ffffffffffffffffffffffffffffffffffffffff16600282815481106137e257fe5b9060005260206000200160006101000a81548173ffffffffffffffffffffffffffffffffffffffff021916908373ffffffffffffffffffffffffffffffffffffffff160217905550600280548061383557fe5b6001900381819060005260206000200160006101000a81549073ffffffffffffffffffffffffffffffffffffffff0219169055905560018101600a60006002848154811061387f57fe5b9060005260206000200160009054906101000a900473ffffffffffffffffffffffffffffffffffffffff1673ffffffffffffffffffffffffffffffffffffffff1673ffffffffffffffffffffffffffffffffffffffff168152602001908152602001600020819055505b600a60008473ffffffffffffffffffffffffffffffffffffffff1673ffffffffffffffffffffffffffffffffffffffff16815260200190815260200160002060009055505050565b6001600381111561393e57fe5b600b858154811061394b57fe5b906000526020600020906007020160030160149054906101000a900460ff16600381111561397557fe5b146139cb576040517f08c379a0000000000000000000000000000000000000000000000000000000008152600401808060200182810382526045815260200180614caf6045913960600191505060405180910390fd5b600560008473ffffffffffffffffffffffffffffffffffffffff1673ffffffffffffffffffffffffffffffffffffffff16815260200190815260200160002060020160159054906101000a900460ff168015613a735750600960003373ffffffffffffffffffffffffffffffffffffffff1673ffffffffffffffffffffffffffffffffffffffff16815260200190815260200160002060030160019054906101000a900460ff165b613ac8576040517f08c379a0000000000000000000000000000000000000000000000000000000008152600401808060200182810382526040815260200180614c316040913960400191505060405180910390fd5b600560008473ffffffffffffffffffffffffffffffffffffffff1673ffffffffffffffffffffffffffffffffffffffff16815260200190815260200160002060020160009054906101000a900473ffffffffffffffffffffffffffffffffffffffff1673ffffffffffffffffffffffffffffffffffffffff163373ffffffffffffffffffffffffffffffffffffffff1614613bae576040517f08c379a0000000000000000000000000000000000000000000000000000000008152600401808060200182810382526060815260200180614b256060913960600191505060405180910390fd5b82600b8581548110613bbc57fe5b906000526020600020906007020160010160006101000a81548173ffffffffffffffffffffffffffffffffffffffff021916908373ffffffffffffffffffffffffffffffffffffffff1602179055506002600b8581548110613c1a57fe5b906000526020600020906007020160030160146101000a81548160ff02191690836003811115613c4657fe5b021790555081600b8581548110613c5957fe5b90600052602060002090600702016005019080519060200190613c7d92919061499f565b5080600b8581548110613c8c57fe5b90600052602060002090600702016004019080519060200190613cb092919061499f565b5050505050565b60045481565b600360009054906101000a900473ffffffffffffffffffffffffffffffffffffffff1673ffffffffffffffffffffffffffffffffffffffff163373ffffffffffffffffffffffffffffffffffffffff1614613d63576040517f08c379a0000000000000000000000000000000000000000000000000000000008152600401808060200182810382526038815260200180614e0f6038913960400191505060405180910390fd5b600960008273ffffffffffffffffffffffffffffffffffffffff1673ffffffffffffffffffffffffffffffffffffffff16815260200190815260200160002060030160009054906101000a900460ff1615613e09576040517f08c379a0000000000000000000000000000000000000000000000000000000008152600401808060200182810382526042815260200180614a936042913960600191505060405180910390fd5b6001600960008373ffffffffffffffffffffffffffffffffffffffff1673ffffffffffffffffffffffffffffffffffffffff16815260200190815260200160002060030160006101000a81548160ff02191690831515021790555050565b81600760008273ffffffffffffffffffffffffffffffffffffffff1673ffffffffffffffffffffffffffffffffffffffff16815260200190815260200160002060020160159054906101000a900460ff16613f0d576040517f08c379a000000000000000000000000000000000000000000000000000000000815260040180806020018281038252603a815260200180614dd5603a913960400191505060405180910390fd5b33600960008273ffffffffffffffffffffffffffffffffffffffff1673ffffffffffffffffffffffffffffffffffffffff16815260200190815260200160002060030160019054906101000a900460ff16613fb3576040517f08c379a000000000000000000000000000000000000000000000000000000000815260040180806020018281038252603d815260200180614bf4603d913960400191505060405180910390fd5b600760008573ffffffffffffffffffffffffffffffffffffffff1673ffffffffffffffffffffffffffffffffffffffff16815260200190815260200160002060020160149054906101000a900460ff16614058576040517f08c379a0000000000000000000000000000000000000000000000000000000008152600401808060200182810382526051815260200180614d846051913960600191505060405180910390fd5b3373ffffffffffffffffffffffffffffffffffffffff16600760008673ffffffffffffffffffffffffffffffffffffffff1673ffffffffffffffffffffffffffffffffffffffff16815260200190815260200160002060020160009054906101000a900473ffffffffffffffffffffffffffffffffffffffff1673ffffffffffffffffffffffffffffffffffffffff161461413e576040517f08c379a000000000000000000000000000000000000000000000000000000000815260040180806020018281038252604b815260200180614b85604b913960600191505060405180910390fd5b6000604051806101000160405280600b805490508152602001600073ffffffffffffffffffffffffffffffffffffffff1681526020018673ffffffffffffffffffffffffffffffffffffffff1681526020013373ffffffffffffffffffffffffffffffffffffffff168152602001600060038111156141b957fe5b8152602001604051806020016040528060008152508152602001858152602001600115158152509050600b8190806001815401808255809150506001900390600052602060002090600702016000909190919091506000820151816000015560208201518160010160006101000a81548173ffffffffffffffffffffffffffffffffffffffff021916908373ffffffffffffffffffffffffffffffffffffffff16021790555060408201518160020160006101000a81548173ffffffffffffffffffffffffffffffffffffffff021916908373ffffffffffffffffffffffffffffffffffffffff16021790555060608201518160030160006101000a81548173ffffffffffffffffffffffffffffffffffffffff021916908373ffffffffffffffffffffffffffffffffffffffff16021790555060808201518160030160146101000a81548160ff0219169083600381111561431157fe5b021790555060a082015181600401908051906020019061433292919061499f565b5060c082015181600501908051906020019061434f92919061499f565b5060e08201518160060160006101000a81548160ff02191690831515021790555050505050505050565b60076020528060005260406000206000915090508060000160009054906101000a900473ffffffffffffffffffffffffffffffffffffffff1690806001018054600181600116156101000203166002900480601f01602080910402602001604051908101604052809291908181526020018280546001816001161561010002031660029004801561444b5780601f106144205761010080835404028352916020019161444b565b820191906000526020600020905b81548152906001019060200180831161442e57829003601f168201915b5050505050908060020160009054906101000a900473ffffffffffffffffffffffffffffffffffffffff16908060020160149054906101000a900460ff16908060020160159054906101000a900460ff16905085565b80600560008273ffffffffffffffffffffffffffffffffffffffff1673ffffffffffffffffffffffffffffffffffffffff16815260200190815260200160002060020160159054906101000a900460ff16614547576040517f08c379a000000000000000000000000000000000000000000000000000000000815260040180806020018281038252603b815260200180614e9d603b913960400191505060405180910390fd5b600560008373ffffffffffffffffffffffffffffffffffffffff1673ffffffffffffffffffffffffffffffffffffffff16815260200190815260200160002060020160009054906101000a900473ffffffffffffffffffffffffffffffffffffffff1673ffffffffffffffffffffffffffffffffffffffff163373ffffffffffffffffffffffffffffffffffffffff161461462d576040517f08c379a0000000000000000000000000000000000000000000000000000000008152600401808060200182810382526068815260200180614f106068913960800191505060405180910390fd5b600560008373ffffffffffffffffffffffffffffffffffffffff1673ffffffffffffffffffffffffffffffffffffffff16815260200190815260200160002060020160149054906101000a900460ff16156146d3576040517f08c379a0000000000000000000000000000000000000000000000000000000008152600401808060200182810382526025815260200180614e476025913960400191505060405180910390fd5b6001600560008473ffffffffffffffffffffffffffffffffffffffff1673ffffffffffffffffffffffffffffffffffffffff16815260200190815260200160002060020160146101000a81548160ff0219169083151502179055505050565b606060008054806020026020016040519081016040528092919081815260200182805480156147b657602002820191906000526020600020905b8160009054906101000a900473ffffffffffffffffffffffffffffffffffffffff1673ffffffffffffffffffffffffffffffffffffffff168152602001906001019080831161476c575b5050505050905090565b600281815481106147d057600080fd5b906000526020600020016000915054906101000a900473ffffffffffffffffffffffffffffffffffffffff1681565b60096020528060005260406000206000915090508060000160009054906101000a900473ffffffffffffffffffffffffffffffffffffffff1690806001018054600181600116156101000203166002900480601f0160208091040260200160405190810160405280929190818152602001828054600181600116156101000203166002900480156148d15780601f106148a6576101008083540402835291602001916148d1565b820191906000526020600020905b8154815290600101906020018083116148b457829003601f168201915b505050505090806002018054600181600116156101000203166002900480601f01602080910402602001604051908101604052809291908181526020018280546001816001161561010002031660029004801561496f5780601f106149445761010080835404028352916020019161496f565b820191906000526020600020905b81548152906001019060200180831161495257829003601f168201915b5050505050908060030160009054906101000a900460ff16908060030160019054906101000a900460ff16905085565b828054600181600116156101000203166002900490600052602060002090601f0160209004810192826149d55760008555614a1c565b82601f106149ee57805160ff1916838001178555614a1c565b82800160010185558215614a1c579182015b82811115614a1b578251825591602001919060010190614a00565b5b509050614a299190614a75565b5090565b50805460018160011615610100020316600290046000825580601f10614a535750614a72565b601f016020900490600052602060002090810190614a719190614a75565b5b50565b5b80821115614a8e576000816000905550600101614a76565b509056fe5468652061757468656e746963697479206f6620686f73706974616c20697320616c726561647920766572696669656420627920506c61736d61204d616e616765724f6e6c7920746865206173736f63696174656420686f73706974616c206861732074686520617574686f7269747920746f206d6f6469667920746865207374617465206f66207472616e667573696f6e546865207472616e73667573696f6e2064657461696c732063616e206f6e6c792062652061646465642062792074686520686f73706974616c20696e207768696368207468652070617469656e74206973206265696e6720747265617465642e446f6e6174696f6e20696e666f726d6174696f6e206d7573742062652061646465642062792074686520686f73706974616c2077686f2076616c6964617465642074686520646f6e6f722e54686520446f6e6f722068617320616c7265616479206265656e2076616c696461746564486f73706974616c20776974682074686520676976656e206164647265737320646f65736e277420657869737420696e20746865206e6574776f726b2e436865636b20616761696e207468617420626f7468207365656b657220616e6420686f73706974616c2061726520616464656420696e746f206e6574776f726b5468652072657175657374206f66207472616e667573696f6e206d75737420626520617070726f766564207072696f7220746f207468697320737465702e4265666f726520676f696e672061686561642077697468207472616e73667573696f6e20706861736520616464207468652073746f7261676520696e666f726d6174696f6e596f75206d757374206265206164646564206173206120686f73706974616c20746f20746865206e6574776f726b20746f20706572666f726d2074686973206f7065726174696f6e4265666f726520676f696e672061686561642077697468207468652073746f72616765207068617365206164642074686520646f6e6174696f6e20696e666f726d6174696f6e2e2046697273742074686520646f6e6f72206e6565647320746f2062652076616c6964617465642062792074686520686f73706974616c20696e206f7264657220746f20616464207472616e73667573696f6e446f6e6f7220776974682074686520676976656e206164647265737320646f65736e277420657869737420696e20746865206e6574776f726b2e596f7520646f206e6f7420686176652074686520617574686f7269747920746f20706572666f726d2074686973206f7065726174696f6e21546865207365656b65722068617320616c7265616479206265656e2076616c6964617465645573657220776974682074686973206164647265737320616c726561647920657869737473206173206120646f6e6f72215365656b657220776974682074686520676976656e206164647265737320646f65736e277420657869737420696e20746865206e6574776f726b2e596f7520646f206e6f7420686176652074686520617574686f7269747920746f20706572666f726d2074686973206f7065726174696f6e2e4163636573732044656e6965642120596f7520646f206e6f7420686176652074686520617574686f7269747920746f2076616c69646174652061732070617469656e74206973206e6f74206173736f6369617465642077697468207468697320686f73706974616c5573657220776974682074686973206164647265737320616c7265616479206578697374732061732061207365656b65722154686520686f73706974616c2068617320796574206e6f74206265656e2076616c6964617465642062792074686520506c61736d61204d616e61676572a2646970667358221220695a338f9ffda2e3f4408b78101aea4aa97b3bfb9fa2e836ce18149520d8cd2c64736f6c63430007060033",
  "immutableReferences": {},
  "source": "// SPDX-License-Identifier: GPL-3.0\r\npragma solidity >=0.7.0 <0.9.0;\r\n\r\ncontract PlasmaDonation{\r\n    \r\n    //Array of addresses that can used to retrieve the entities using map functionality in the frontend.\r\n    address[] public totalSeekers; //array of addresses that keeps the track of total seekers in the system.\r\n    address[] public totalDonors; // array of addresses that keeps the track of total Donors in the system.\r\n    address[] public totalHospitals; //array of addresses that keeps track of total Hospitals in the system.\r\n    \r\n    //state variable that stores address of creator of contract with access of admin level.\r\n    address public plasmaManager; \r\n    \r\n    //enumeration that stores the status of transfusion\r\n    enum status{requestInitiated,requestAdded,requestApproved,requestCompleted} \r\n    \r\n    //State variable that keeps track of successfully completed transfusions\r\n    uint public totalCompletedTransfusions = 0;\r\n    \r\n    //structure to create a new datatype Seeker\r\n    struct Seeker{\r\n        address ethSeeker;\r\n        string hashOfSeekersData;\r\n        address associatedHospital;\r\n        bool isSeekerEligible;\r\n        bool exist;\r\n    }\r\n    \r\n    //mappings that store data of Seeker and the index at which the donor is stored respectively.\r\n    mapping(address => Seeker) public seekers;\r\n    mapping(address => uint) public indexOfSeeker;\r\n       \r\n    //structure to create a new datatype Donor.\r\n    struct Donor{\r\n        address ethDonor;\r\n        string hashOfDonorsData;\r\n        address associatedHospital;\r\n        bool isDonorEligible;\r\n        bool exist;\r\n    }\r\n    \r\n    //mappings that store data of Donor and the index at which the donor is stored respectively.\r\n    mapping(address => Donor) public donors;\r\n    mapping(address => uint) public indexOfDonor;\r\n    \r\n    //structure to create a new datatype Hospital.\r\n    struct Hospital{\r\n        address ethHospital;\r\n        string hospitalName;\r\n        string hashOfHospitalsData;\r\n        bool isHospitalLegitimate;\r\n        bool exist;\r\n    }\r\n    //mappings that store data of Hospital and the index at which the donor is stored respectively.\r\n    mapping(address => Hospital) public hospitals;\r\n    mapping(address => uint) public indexOfHospital;\r\n\r\n    //structure to create a new datatype TransfusionState\r\n    struct TransfusionState{\r\n        uint indexOfTransfusion;\r\n        address ethSeeker;\r\n        address ethDonor;\r\n        address ethHospital;\r\n        status stateOfTransfusion;\r\n        string storageTime;\r\n        string updatedOn;\r\n        bool exist;\r\n    }    \r\n     \r\n    //Array of transfusions;\r\n    TransfusionState[] public transfusions;\r\n    \r\n   //Assures that the function is only invoked by the plasma Manager\r\n    modifier onlyManager(){\r\n        require(msg.sender == plasmaManager,\"You do not have the authority to perform this operation!\");\r\n        _;\r\n    } \r\n    \r\n    //Checks the existence of Seeker in Network.\r\n    modifier checkSeekerExist(address _ethSeeker){\r\n        require(seekers[_ethSeeker].exist,\"Seeker with the given address doesn't exist in the network.\");\r\n        _;\r\n    }\r\n    \r\n    //Checks existence of Donor in the Network.\r\n    modifier checkDonorExist(address _ethDonor){\r\n        require(donors[_ethDonor].exist,\"Donor with the given address doesn't exist in the network.\");\r\n        _;\r\n    }\r\n    \r\n    //Checks existence of Hospital in Network.\r\n    modifier checkHospitalExist(address _ethHospital){\r\n        require(hospitals[_ethHospital].exist,\"Hospital with the given address doesn't exist in the network.\");\r\n        _;\r\n    }\r\n    \r\n    //The constructor assigns the deployer of contract's address to plasmaManager.\r\n    constructor(){\r\n        plasmaManager = msg.sender;\r\n    }\r\n    \r\n    //The hospital with which the seeker is associated validates the seeker and verifies that s/he is eligible or not.\r\n    function validateSeeker(address _ethSeeker) public checkSeekerExist(_ethSeeker) \r\n    {\r\n        require(msg.sender == seekers[_ethSeeker].associatedHospital,\"Access Denied! You do not have the authority to validate as patient is not associated with this hospital\");\r\n        require(!seekers[_ethSeeker].isSeekerEligible,\"The seeker has already been validated\");\r\n        seekers[_ethSeeker].isSeekerEligible = true;\r\n    }\r\n    \r\n    //Adds the seeker data onto the network.\r\n    function addSeeker(string memory _hashOfSeekersData,address _associatedHospital) public \r\n    {\r\n        //checks whether the seeker is already added or not.\r\n        require(!seekers[msg.sender].exist, \"User with this address already exists as a seeker!\");\r\n        Seeker storage seeker = seekers[msg.sender];\r\n        seeker.ethSeeker = msg.sender;\r\n        seeker.hashOfSeekersData = _hashOfSeekersData;\r\n        seeker.associatedHospital = _associatedHospital;\r\n        seeker.exist = true; //Indicates that the seeker is now a part of the network.\r\n        seeker.isSeekerEligible = false;\r\n        \r\n        totalSeekers.push(msg.sender);  //Adding seeker's address.     \r\n        indexOfSeeker[msg.sender] = totalSeekers.length; //store the index on which seeker is added. \r\n    }\r\n   \r\n    // Donor is added to the network.\r\n    function addDonor(string memory _hashOfDonorsData) public\r\n    {\r\n        //checks whether the donor is already added or not.\r\n        require(!donors[msg.sender].exist, \"User with this address already exists as a donor!\");\r\n        Donor storage donor = donors[msg.sender];\r\n        donor.ethDonor = msg.sender;\r\n        donor.hashOfDonorsData = _hashOfDonorsData;\r\n        donor.exist = true; //Indicates that the donor is now a part of the network.\r\n        donor.isDonorEligible = false;\r\n        \r\n        totalDonors.push(msg.sender); //Adding donors address.   \r\n        indexOfDonor[msg.sender] = totalDonors.length; //store the index on which donor is added.\r\n    }\r\n   \r\n    // The Hospital is validated by Plasma Manager.\r\n    function validateHospital(address _ethHospital) public onlyManager {\r\n        require(!hospitals[_ethHospital].isHospitalLegitimate,\"The authenticity of hospital is already verified by Plasma Manager\");\r\n        hospitals[_ethHospital].isHospitalLegitimate = true;\r\n    }\r\n    \r\n    // Hospital is added to the network.\r\n    function addHospital(address _ethHospital, string memory _hospitalName, string memory _hashOfHospitalsData) onlyManager public\r\n    {   \r\n        //checks whether the hospital is already added or not.\r\n        require(!hospitals[_ethHospital].exist,\"This Hospital is already added!\");\r\n        //The hospital can be added only after verification by plasmaManager.\r\n        require(hospitals[_ethHospital].isHospitalLegitimate,\"The hospital has yet not been validated by the Plasma Manager\");\r\n        \r\n        Hospital storage hospital = hospitals[_ethHospital];\r\n        hospital.ethHospital = _ethHospital;\r\n        hospital.hospitalName = _hospitalName;\r\n        hospital.hashOfHospitalsData = _hashOfHospitalsData;\r\n        hospital.exist = true; //Indicates that the hospital is now a part of the network.\r\n        \r\n        totalHospitals.push(_ethHospital); //After adding hospital to the network increments the statevariable to keep track of total Hospitals in the system.\r\n        indexOfHospital[_ethHospital] = totalHospitals.length;\r\n    }\r\n   \r\n    //removes the seeker if S/he turns out to be malicious. This operation can only be performed by the hospital.\r\n    function removeSeeker(address _ethSeeker) public checkSeekerExist(_ethSeeker) checkHospitalExist(msg.sender){\r\n        \r\n        require(msg.sender == seekers[_ethSeeker].associatedHospital,\"You do not have the authority to perform this operation.\");\r\n        delete seekers[_ethSeeker]; // deletes the information of seeker from mappings seeker.\r\n        uint index = indexOfSeeker[_ethSeeker] - 1; // get the index on which the seeker with the address _ethSeeker is stored.\r\n        if(index == totalSeekers.length - 1) {\r\n            totalSeekers.pop(); // if the seeker is present at the last index just perform pop operation.\r\n        } else{\r\n             delete totalSeekers[index]; //deleting that address from array totolSeekers.\r\n             totalSeekers[index] = totalSeekers[totalSeekers.length - 1]; //copying the last element to the deleted element index.\r\n             totalSeekers.pop(); // pop the redundant last element.\r\n             indexOfSeeker[totalSeekers[index]] = index + 1; //set the index value of the last element in mapping.\r\n        }\r\n        delete indexOfSeeker[_ethSeeker]; //deleting the seeker from the mapping.\r\n    }\r\n    \r\n    //removes the donor if S/he turns out to be malicious. This operation can only be performed by any Hospital.\r\n    function removeDonor(address _ethDonor) public checkDonorExist(_ethDonor) checkHospitalExist(msg.sender){\r\n        \r\n        delete donors[_ethDonor];\r\n        uint index = indexOfDonor[_ethDonor] - 1;  //get the index on which the donor with the address _ethDonor is stored.\r\n        if(index == totalDonors.length - 1){\r\n            totalDonors.pop();\r\n        } else{\r\n            delete totalDonors[index];  //deleting that address from array totalDonors.\r\n            totalDonors[index] = totalDonors[totalDonors.length - 1]; //copying the last element to the deleted element's index.\r\n            totalDonors.pop(); // removing the last element.\r\n            indexOfDonor[totalDonors[index]] = index + 1; //updating the index value of that last element.\r\n        }\r\n        delete indexOfDonor[_ethDonor]; //deleting the donor from the mapping.\r\n    }\r\n  \r\n    //removes the hospital if it turns out to be malicious. This operation can only be performed by Manager.\r\n    function removeHospital(address _ethHospital) onlyManager checkHospitalExist(_ethHospital) public{\r\n       \r\n        delete hospitals[_ethHospital];\r\n        uint index = indexOfHospital[_ethHospital] - 1; //get the index on which the hospital with address _ethHospital is stored.\r\n        if(index == totalHospitals.length - 1){\r\n            totalHospitals.pop();\r\n        } else{\r\n            delete totalHospitals[index]; //deleting that address from array totalHospitals.\r\n            totalHospitals[index] = totalHospitals[totalHospitals.length-1];//copying the last eelement to the deleted element's index.\r\n            totalHospitals.pop(); //poping the last redundant element.\r\n            indexOfHospital[totalHospitals[index]] = index + 1; //setting the index of the last element\r\n        }\r\n        delete indexOfHospital[_ethHospital]; //deleting the hospital from the mapping.\r\n    }\r\n    \r\n    //Hospital validates the Donor before collecting Plasma.\r\n    function validateDonor(address _ethDonor) public checkHospitalExist(msg.sender) checkDonorExist(_ethDonor){\r\n       require(hospitals[msg.sender].exist,\"You must be added as a hospital to the network to perform this operation\");    \r\n       require(!donors[_ethDonor].isDonorEligible,\"The Donor has already been validated\");\r\n       donors[_ethDonor].associatedHospital = msg.sender;\r\n       donors[_ethDonor].isDonorEligible = true;\r\n    }\r\n    \r\n    //Information about the Donation when the plasma is collected from the donor before transfusing it to any patient.\r\n    function Donation(address _ethDonor, string memory _updatedOn)public checkDonorExist(_ethDonor) checkHospitalExist(msg.sender){\r\n        require(donors[_ethDonor].isDonorEligible,\r\n        \"First the donor needs to be validated by the hospital in order to add transfusion\");\r\n        require(donors[_ethDonor].associatedHospital == msg.sender,\r\n        \"Donation information must be added by the hospital who validated the donor.\");\r\n        \r\n        TransfusionState memory newTransfusion = TransfusionState({\r\n            indexOfTransfusion : transfusions.length,\r\n            //As the plasma is not transfused yet, initializing seekers address.\r\n            ethSeeker : 0x0000000000000000000000000000000000000000,\r\n            ethDonor : _ethDonor,\r\n            ethHospital : msg.sender,\r\n            stateOfTransfusion : status.requestInitiated,\r\n            storageTime : \"\", //initializing the storage time \r\n            updatedOn : _updatedOn, //adding the donation timestamp to the array timeStamps.\r\n            exist : true\r\n        });\r\n        transfusions.push(newTransfusion);\r\n    }\r\n    \r\n    //Adding the storage phase information.\r\n    function Storage(uint index, string memory _updatedOn) public checkHospitalExist(msg.sender)\r\n    {\r\n        require(transfusions[index].stateOfTransfusion == status.requestInitiated,\r\n        \"Before going ahead with the storage phase add the donation information. \");\r\n        require(transfusions[index].ethHospital == msg.sender,\r\n        \"Only the associated hospital has the authority to modify the state of tranfusion\");\r\n        \r\n        transfusions[index].stateOfTransfusion = status.requestAdded;\r\n        transfusions[index].updatedOn = _updatedOn;\r\n\r\n    }\r\n    \r\n    //Associating the patient that is transfused with the donor's Plasma.\r\n    function Tranfusion(uint index, address _ethSeeker, string memory _updatedOn, string memory _storageTime) public\r\n    {\r\n        require(transfusions[index].stateOfTransfusion == status.requestAdded,\r\n        \"Before going ahead with transfusion phase add the storage information\");\r\n        require(seekers[_ethSeeker].exist && hospitals[msg.sender].exist,\r\n        \"Check again that both seeker and hospital are added into network\");\r\n        require(msg.sender == seekers[_ethSeeker].associatedHospital,\r\n        \"The transfusion details can only be added by the hospital in which the patient is being treated.\");\r\n        \r\n        transfusions[index].ethSeeker = _ethSeeker;\r\n        transfusions[index].stateOfTransfusion = status.requestApproved;\r\n        transfusions[index].updatedOn = _updatedOn;\r\n        transfusions[index].storageTime = _storageTime;\r\n    }\r\n    \r\n    //The Tranfusion completed successfully.\r\n    function Complete(uint index, string memory _updatedOn) public checkSeekerExist(transfusions[index].ethSeeker) \r\n    checkDonorExist(transfusions[index].ethDonor) checkHospitalExist(msg.sender)\r\n    {\r\n       require(transfusions[index].stateOfTransfusion == status.requestApproved,\r\n       \"The request of tranfusion must be approved prior to this step.\");\r\n        require(msg.sender == seekers[transfusions[index].ethSeeker].associatedHospital,\r\n        \"The transfusion details can only be added by the hospital in which the patient is being treated.\");\r\n      \r\n       transfusions[index].stateOfTransfusion = status.requestCompleted;\r\n       transfusions[index].updatedOn = _updatedOn;\r\n       totalCompletedTransfusions++;\r\n    }\r\n    \r\n    //Obtaining all the addresses of entities added to the system so in the front end.\r\n    //We can obtain all the data using map functionality.\r\n    function viewAllSeekers() public view returns (address[] memory){\r\n        return totalSeekers;\r\n    }\r\n    \r\n    function viewAllDonors() public view returns (address[] memory){\r\n        return totalDonors;\r\n    }\r\n    \r\n    function viewAllHospitals() public view returns (address[] memory){\r\n        return totalHospitals;\r\n    }\r\n    /* Note : For viewing all the transfusions just use mapping on the transfusions array*/\r\n}",
  "sourcePath": "C:/Users/Dell/Desktop/Plasma Donation/contracts/PlasmaDonation.sol",
  "compiler": {
    "name": "solc",
    "version": "0.7.6+commit.7338295f.Emscripten.clang"
  },
  "schemaVersion": "3.3.4",
  "updatedAt": "2021-03-27T08:13:47.099Z",
  "networkType": "ethereum",
  "devdoc": {
    "kind": "dev",
    "methods": {},
    "version": 1
  },
  "userdoc": {
    "kind": "user",
    "methods": {},
    "version": 1
  }
}