{
  "contractName": "PlasmaDonation",
  "abi": [
    {
      "inputs": [],
      "stateMutability": "nonpayable",
      "type": "constructor"
    },
    {
      "inputs": [
        {
          "internalType": "address",
          "name": "",
          "type": "address"
        }
      ],
      "name": "donors",
      "outputs": [
        {
          "internalType": "address",
          "name": "ethDonor",
          "type": "address"
        },
        {
          "internalType": "string",
          "name": "hashOfDonorsData",
          "type": "string"
        },
        {
          "internalType": "address",
          "name": "associatedHospital",
          "type": "address"
        },
        {
          "internalType": "bool",
          "name": "isDonorEligible",
          "type": "bool"
        },
        {
          "internalType": "bool",
          "name": "exist",
          "type": "bool"
        }
      ],
      "stateMutability": "view",
      "type": "function",
      "constant": true
    },
    {
      "inputs": [
        {
          "internalType": "address",
          "name": "",
          "type": "address"
        }
      ],
      "name": "hospitals",
      "outputs": [
        {
          "internalType": "address",
          "name": "ethHospital",
          "type": "address"
        },
        {
          "internalType": "string",
          "name": "hospitalName",
          "type": "string"
        },
        {
          "internalType": "string",
          "name": "hashOfHospitalsData",
          "type": "string"
        },
        {
          "internalType": "bool",
          "name": "exist",
          "type": "bool"
        }
      ],
      "stateMutability": "view",
      "type": "function",
      "constant": true
    },
    {
      "inputs": [
        {
          "internalType": "address",
          "name": "",
          "type": "address"
        }
      ],
      "name": "indexOfDonor",
      "outputs": [
        {
          "internalType": "uint256",
          "name": "",
          "type": "uint256"
        }
      ],
      "stateMutability": "view",
      "type": "function",
      "constant": true
    },
    {
      "inputs": [
        {
          "internalType": "address",
          "name": "",
          "type": "address"
        }
      ],
      "name": "indexOfHospital",
      "outputs": [
        {
          "internalType": "uint256",
          "name": "",
          "type": "uint256"
        }
      ],
      "stateMutability": "view",
      "type": "function",
      "constant": true
    },
    {
      "inputs": [
        {
          "internalType": "address",
          "name": "",
          "type": "address"
        }
      ],
      "name": "indexOfSeeker",
      "outputs": [
        {
          "internalType": "uint256",
          "name": "",
          "type": "uint256"
        }
      ],
      "stateMutability": "view",
      "type": "function",
      "constant": true
    },
    {
      "inputs": [],
      "name": "plasmaManager",
      "outputs": [
        {
          "internalType": "address",
          "name": "",
          "type": "address"
        }
      ],
      "stateMutability": "view",
      "type": "function",
      "constant": true
    },
    {
      "inputs": [
        {
          "internalType": "address",
          "name": "",
          "type": "address"
        }
      ],
      "name": "seekers",
      "outputs": [
        {
          "internalType": "address",
          "name": "ethSeeker",
          "type": "address"
        },
        {
          "internalType": "string",
          "name": "hashOfSeekersData",
          "type": "string"
        },
        {
          "internalType": "address",
          "name": "associatedHospital",
          "type": "address"
        },
        {
          "internalType": "bool",
          "name": "isSeekerEligible",
          "type": "bool"
        },
        {
          "internalType": "bool",
          "name": "exist",
          "type": "bool"
        }
      ],
      "stateMutability": "view",
      "type": "function",
      "constant": true
    },
    {
      "inputs": [],
      "name": "totalCompletedTransfusions",
      "outputs": [
        {
          "internalType": "uint256",
          "name": "",
          "type": "uint256"
        }
      ],
      "stateMutability": "view",
      "type": "function",
      "constant": true
    },
    {
      "inputs": [
        {
          "internalType": "uint256",
          "name": "",
          "type": "uint256"
        }
      ],
      "name": "totalDonors",
      "outputs": [
        {
          "internalType": "address",
          "name": "",
          "type": "address"
        }
      ],
      "stateMutability": "view",
      "type": "function",
      "constant": true
    },
    {
      "inputs": [
        {
          "internalType": "uint256",
          "name": "",
          "type": "uint256"
        }
      ],
      "name": "totalHospitals",
      "outputs": [
        {
          "internalType": "address",
          "name": "",
          "type": "address"
        }
      ],
      "stateMutability": "view",
      "type": "function",
      "constant": true
    },
    {
      "inputs": [
        {
          "internalType": "uint256",
          "name": "",
          "type": "uint256"
        }
      ],
      "name": "totalSeekers",
      "outputs": [
        {
          "internalType": "address",
          "name": "",
          "type": "address"
        }
      ],
      "stateMutability": "view",
      "type": "function",
      "constant": true
    },
    {
      "inputs": [
        {
          "internalType": "uint256",
          "name": "",
          "type": "uint256"
        }
      ],
      "name": "transfusions",
      "outputs": [
        {
          "internalType": "uint256",
          "name": "indexOfTransfusion",
          "type": "uint256"
        },
        {
          "internalType": "address",
          "name": "ethSeeker",
          "type": "address"
        },
        {
          "internalType": "address",
          "name": "ethDonor",
          "type": "address"
        },
        {
          "internalType": "address",
          "name": "ethHospital",
          "type": "address"
        },
        {
          "internalType": "enum PlasmaDonation.status",
          "name": "stateOfTransfusion",
          "type": "uint8"
        },
        {
          "internalType": "string",
          "name": "storageTime",
          "type": "string"
        },
        {
          "internalType": "string",
          "name": "updatedOn",
          "type": "string"
        },
        {
          "internalType": "bool",
          "name": "exist",
          "type": "bool"
        }
      ],
      "stateMutability": "view",
      "type": "function",
      "constant": true
    },
    {
      "inputs": [
        {
          "internalType": "address",
          "name": "_ethSeeker",
          "type": "address"
        }
      ],
      "name": "validateSeeker",
      "outputs": [],
      "stateMutability": "nonpayable",
      "type": "function"
    },
    {
      "inputs": [
        {
          "internalType": "string",
          "name": "_hashOfSeekersData",
          "type": "string"
        },
        {
          "internalType": "address",
          "name": "_associatedHospital",
          "type": "address"
        }
      ],
      "name": "addSeeker",
      "outputs": [],
      "stateMutability": "nonpayable",
      "type": "function"
    },
    {
      "inputs": [
        {
          "internalType": "string",
          "name": "_hashOfDonorsData",
          "type": "string"
        }
      ],
      "name": "addDonor",
      "outputs": [],
      "stateMutability": "nonpayable",
      "type": "function"
    },
    {
      "inputs": [
        {
          "internalType": "address",
          "name": "_ethHospital",
          "type": "address"
        },
        {
          "internalType": "string",
          "name": "_hospitalName",
          "type": "string"
        },
        {
          "internalType": "string",
          "name": "_hashOfHospitalsData",
          "type": "string"
        }
      ],
      "name": "addHospital",
      "outputs": [],
      "stateMutability": "nonpayable",
      "type": "function"
    },
    {
      "inputs": [
        {
          "internalType": "address",
          "name": "_ethSeeker",
          "type": "address"
        }
      ],
      "name": "removeSeeker",
      "outputs": [],
      "stateMutability": "nonpayable",
      "type": "function"
    },
    {
      "inputs": [
        {
          "internalType": "address",
          "name": "_ethDonor",
          "type": "address"
        }
      ],
      "name": "removeDonor",
      "outputs": [],
      "stateMutability": "nonpayable",
      "type": "function"
    },
    {
      "inputs": [
        {
          "internalType": "address",
          "name": "_ethHospital",
          "type": "address"
        }
      ],
      "name": "removeHospital",
      "outputs": [],
      "stateMutability": "nonpayable",
      "type": "function"
    },
    {
      "inputs": [
        {
          "internalType": "address",
          "name": "_ethDonor",
          "type": "address"
        }
      ],
      "name": "validateDonor",
      "outputs": [],
      "stateMutability": "nonpayable",
      "type": "function"
    },
    {
      "inputs": [
        {
          "internalType": "address",
          "name": "_ethDonor",
          "type": "address"
        },
        {
          "internalType": "string",
          "name": "_updatedOn",
          "type": "string"
        }
      ],
      "name": "Donation",
      "outputs": [],
      "stateMutability": "nonpayable",
      "type": "function"
    },
    {
      "inputs": [
        {
          "internalType": "uint256",
          "name": "index",
          "type": "uint256"
        },
        {
          "internalType": "string",
          "name": "_updatedOn",
          "type": "string"
        }
      ],
      "name": "Storage",
      "outputs": [],
      "stateMutability": "nonpayable",
      "type": "function"
    },
    {
      "inputs": [
        {
          "internalType": "uint256",
          "name": "index",
          "type": "uint256"
        },
        {
          "internalType": "address",
          "name": "_ethSeeker",
          "type": "address"
        },
        {
          "internalType": "string",
          "name": "_updatedOn",
          "type": "string"
        },
        {
          "internalType": "string",
          "name": "_storageTime",
          "type": "string"
        }
      ],
      "name": "Tranfusion",
      "outputs": [],
      "stateMutability": "nonpayable",
      "type": "function"
    },
    {
      "inputs": [
        {
          "internalType": "uint256",
          "name": "index",
          "type": "uint256"
        },
        {
          "internalType": "string",
          "name": "_updatedOn",
          "type": "string"
        }
      ],
      "name": "Complete",
      "outputs": [],
      "stateMutability": "nonpayable",
      "type": "function"
    },
    {
      "inputs": [],
      "name": "viewAllSeekers",
      "outputs": [
        {
          "internalType": "address[]",
          "name": "",
          "type": "address[]"
        }
      ],
      "stateMutability": "view",
      "type": "function",
      "constant": true
    },
    {
      "inputs": [],
      "name": "viewAllDonors",
      "outputs": [
        {
          "internalType": "address[]",
          "name": "",
          "type": "address[]"
        }
      ],
      "stateMutability": "view",
      "type": "function",
      "constant": true
    },
    {
      "inputs": [],
      "name": "viewAllHospitals",
      "outputs": [
        {
          "internalType": "address[]",
          "name": "",
          "type": "address[]"
        }
      ],
      "stateMutability": "view",
      "type": "function",
      "constant": true
    }
  ],
  "bytecode": "0x6080604052600060045534801561001557600080fd5b5033600360006101000a81548173ffffffffffffffffffffffffffffffffffffffff021916908373ffffffffffffffffffffffffffffffffffffffff160217905550614cbf806100666000396000f3fe608060405234801561001057600080fd5b50600436106101a95760003560e01c8063828566fc116100f9578063aedfcf9511610097578063cf98cab811610071578063cf98cab81461100d578063d1e5c63314611051578063eeb920b7146110b0578063f093cf8014611108576101a9565b8063aedfcf9514610e0b578063c3c72d8614610e29578063ca0cdea814610f04576101a9565b80639f5e05b0116100d35780639f5e05b014610bc3578063a7f77f6614610c07578063a969890614610c4b578063a9c7ad5a14610c8f576101a9565b8063828566fc146108665780638775b6a7146109d85780639e6c344714610b64576101a9565b8063491a5af3116101665780636f3f0de3116101405780636f3f0de3146106255780637425429014610684578063782b5186146107495780638121d25d1461080e576101a9565b8063491a5af31461049057806361001ac614610599578063686f625e146105f1576101a9565b8063073c560f146101ae5780631865b87f146102895780632a5ff5f61461034457806330629cdf1461038857806330af783a146103e05780633d8af0d514610438575b600080fd5b610287600480360360408110156101c457600080fd5b81019080803590602001906401000000008111156101e157600080fd5b8201836020820111156101f357600080fd5b8035906020019184600183028401116401000000008311171561021557600080fd5b91908080601f016020809104026020016040519081016040528093929190818152602001838380828437600081840152601f19601f820116905080830192505050505050509192919290803573ffffffffffffffffffffffffffffffffffffffff169060200190929190505050611257565b005b6103426004803603602081101561029f57600080fd5b81019080803590602001906401000000008111156102bc57600080fd5b8201836020820111156102ce57600080fd5b803590602001918460018302840111640100000000831117156102f057600080fd5b91908080601f016020809104026020016040519081016040528093929190818152602001838380828437600081840152601f19601f8201169050808301925050505050505091929192905050506114ca565b005b6103866004803603602081101561035a57600080fd5b81019080803573ffffffffffffffffffffffffffffffffffffffff1690602001909291905050506116f9565b005b6103ca6004803603602081101561039e57600080fd5b81019080803573ffffffffffffffffffffffffffffffffffffffff169060200190929190505050611c65565b6040518082815260200191505060405180910390f35b61040c600480360360208110156103f657600080fd5b8101908080359060200190929190505050611c7d565b604051808273ffffffffffffffffffffffffffffffffffffffff16815260200191505060405180910390f35b6104646004803603602081101561044e57600080fd5b8101908080359060200190929190505050611cbc565b604051808273ffffffffffffffffffffffffffffffffffffffff16815260200191505060405180910390f35b6104d2600480360360208110156104a657600080fd5b81019080803573ffffffffffffffffffffffffffffffffffffffff169060200190929190505050611cfb565b604051808673ffffffffffffffffffffffffffffffffffffffff168152602001806020018573ffffffffffffffffffffffffffffffffffffffff16815260200184151581526020018315158152602001828103825286818151815260200191508051906020019080838360005b8381101561055a57808201518184015260208101905061053f565b50505050905090810190601f1680156105875780820380516001836020036101000a031916815260200191505b50965050505050505060405180910390f35b6105db600480360360208110156105af57600080fd5b81019080803573ffffffffffffffffffffffffffffffffffffffff169060200190929190505050611e23565b6040518082815260200191505060405180910390f35b6105f9611e3b565b604051808273ffffffffffffffffffffffffffffffffffffffff16815260200191505060405180910390f35b61062d611e61565b6040518080602001828103825283818151815260200191508051906020019060200280838360005b83811015610670578082015181840152602081019050610655565b505050509050019250505060405180910390f35b6107476004803603604081101561069a57600080fd5b8101908080359060200190929190803590602001906401000000008111156106c157600080fd5b8201836020820111156106d357600080fd5b803590602001918460018302840111640100000000831117156106f557600080fd5b91908080601f016020809104026020016040519081016040528093929190818152602001838380828437600081840152601f19601f820116905080830192505050505050509192919290505050611eef565b005b61080c6004803603604081101561075f57600080fd5b81019080803590602001909291908035906020019064010000000081111561078657600080fd5b82018360208201111561079857600080fd5b803590602001918460018302840111640100000000831117156107ba57600080fd5b91908080601f016020809104026020016040519081016040528093929190818152602001838380828437600081840152601f19601f8201169050808301925050505050505091929192905050506123a7565b005b6108506004803603602081101561082457600080fd5b81019080803573ffffffffffffffffffffffffffffffffffffffff169060200190929190505050612621565b6040518082815260200191505060405180910390f35b6109d66004803603606081101561087c57600080fd5b81019080803573ffffffffffffffffffffffffffffffffffffffff169060200190929190803590602001906401000000008111156108b957600080fd5b8201836020820111156108cb57600080fd5b803590602001918460018302840111640100000000831117156108ed57600080fd5b91908080601f016020809104026020016040519081016040528093929190818152602001838380828437600081840152601f19601f8201169050808301925050505050505091929192908035906020019064010000000081111561095057600080fd5b82018360208201111561096257600080fd5b8035906020019184600183028401116401000000008311171561098457600080fd5b91908080601f016020809104026020016040519081016040528093929190818152602001838380828437600081840152601f19601f820116905080830192505050505050509192919290505050612639565b005b610a04600480360360208110156109ee57600080fd5b8101908080359060200190929190505050612929565b604051808981526020018873ffffffffffffffffffffffffffffffffffffffff1681526020018773ffffffffffffffffffffffffffffffffffffffff1681526020018673ffffffffffffffffffffffffffffffffffffffff168152602001856003811115610a6e57fe5b815260200180602001806020018415158152602001838103835286818151815260200191508051906020019080838360005b83811015610abb578082015181840152602081019050610aa0565b50505050905090810190601f168015610ae85780820380516001836020036101000a031916815260200191505b50838103825285818151815260200191508051906020019080838360005b83811015610b21578082015181840152602081019050610b06565b50505050905090810190601f168015610b4e5780820380516001836020036101000a031916815260200191505b509a505050505050505050505060405180910390f35b610b6c612b2b565b6040518080602001828103825283818151815260200191508051906020019060200280838360005b83811015610baf578082015181840152602081019050610b94565b505050509050019250505060405180910390f35b610c0560048036036020811015610bd957600080fd5b81019080803573ffffffffffffffffffffffffffffffffffffffff169060200190929190505050612bb9565b005b610c4960048036036020811015610c1d57600080fd5b81019080803573ffffffffffffffffffffffffffffffffffffffff169060200190929190505050612f31565b005b610c8d60048036036020811015610c6157600080fd5b81019080803573ffffffffffffffffffffffffffffffffffffffff1690602001909291905050506133b5565b005b610e0960048036036080811015610ca557600080fd5b8101908080359060200190929190803573ffffffffffffffffffffffffffffffffffffffff16906020019092919080359060200190640100000000811115610cec57600080fd5b820183602082011115610cfe57600080fd5b80359060200191846001830284011164010000000083111715610d2057600080fd5b91908080601f016020809104026020016040519081016040528093929190818152602001838380828437600081840152601f19601f82011690508083019250505050505050919291929080359060200190640100000000811115610d8357600080fd5b820183602082011115610d9557600080fd5b80359060200191846001830284011164010000000083111715610db757600080fd5b91908080601f016020809104026020016040519081016040528093929190818152602001838380828437600081840152601f19601f820116905080830192505050505050509192919290505050613810565b005b610e13613b96565b6040518082815260200191505060405180910390f35b610f0260048036036040811015610e3f57600080fd5b81019080803573ffffffffffffffffffffffffffffffffffffffff16906020019092919080359060200190640100000000811115610e7c57600080fd5b820183602082011115610e8e57600080fd5b80359060200191846001830284011164010000000083111715610eb057600080fd5b91908080601f016020809104026020016040519081016040528093929190818152602001838380828437600081840152601f19601f820116905080830192505050505050509192919290505050613b9c565b005b610f4660048036036020811015610f1a57600080fd5b81019080803573ffffffffffffffffffffffffffffffffffffffff1690602001909291905050506140ae565b604051808673ffffffffffffffffffffffffffffffffffffffff168152602001806020018573ffffffffffffffffffffffffffffffffffffffff16815260200184151581526020018315158152602001828103825286818151815260200191508051906020019080838360005b83811015610fce578082015181840152602081019050610fb3565b50505050905090810190601f168015610ffb5780820380516001836020036101000a031916815260200191505b50965050505050505060405180910390f35b61104f6004803603602081101561102357600080fd5b81019080803573ffffffffffffffffffffffffffffffffffffffff1690602001909291905050506141d6565b005b611059614467565b6040518080602001828103825283818151815260200191508051906020019060200280838360005b8381101561109c578082015181840152602081019050611081565b505050509050019250505060405180910390f35b6110dc600480360360208110156110c657600080fd5b81019080803590602001909291905050506144f5565b604051808273ffffffffffffffffffffffffffffffffffffffff16815260200191505060405180910390f35b61114a6004803603602081101561111e57600080fd5b81019080803573ffffffffffffffffffffffffffffffffffffffff169060200190929190505050614534565b604051808573ffffffffffffffffffffffffffffffffffffffff16815260200180602001806020018415158152602001838103835286818151815260200191508051906020019080838360005b838110156111b2578082015181840152602081019050611197565b50505050905090810190601f1680156111df5780820380516001836020036101000a031916815260200191505b50838103825285818151815260200191508051906020019080838360005b838110156112185780820151818401526020810190506111fd565b50505050905090810190601f1680156112455780820380516001836020036101000a031916815260200191505b50965050505050505060405180910390f35b600560003373ffffffffffffffffffffffffffffffffffffffff1673ffffffffffffffffffffffffffffffffffffffff16815260200190815260200160002060020160159054906101000a900460ff16156112fd576040517f08c379a0000000000000000000000000000000000000000000000000000000008152600401808060200182810382526032815260200180614c586032913960400191505060405180910390fd5b6000600560003373ffffffffffffffffffffffffffffffffffffffff1673ffffffffffffffffffffffffffffffffffffffff1681526020019081526020016000209050338160000160006101000a81548173ffffffffffffffffffffffffffffffffffffffff021916908373ffffffffffffffffffffffffffffffffffffffff1602179055508281600101908051906020019061139b9291906146c1565b50818160020160006101000a81548173ffffffffffffffffffffffffffffffffffffffff021916908373ffffffffffffffffffffffffffffffffffffffff16021790555060018160020160156101000a81548160ff02191690831515021790555060008160020160146101000a81548160ff0219169083151502179055506000339080600181540180825580915050600190039060005260206000200160009091909190916101000a81548173ffffffffffffffffffffffffffffffffffffffff021916908373ffffffffffffffffffffffffffffffffffffffff160217905550600080549050600660003373ffffffffffffffffffffffffffffffffffffffff1673ffffffffffffffffffffffffffffffffffffffff16815260200190815260200160002081905550505050565b600760003373ffffffffffffffffffffffffffffffffffffffff1673ffffffffffffffffffffffffffffffffffffffff16815260200190815260200160002060020160159054906101000a900460ff1615611570576040517f08c379a0000000000000000000000000000000000000000000000000000000008152600401808060200182810382526031815260200180614b4c6031913960400191505060405180910390fd5b6000600760003373ffffffffffffffffffffffffffffffffffffffff1673ffffffffffffffffffffffffffffffffffffffff1681526020019081526020016000209050338160000160006101000a81548173ffffffffffffffffffffffffffffffffffffffff021916908373ffffffffffffffffffffffffffffffffffffffff1602179055508181600101908051906020019061160e9291906146c1565b5060018160020160156101000a81548160ff02191690831515021790555060008160020160146101000a81548160ff0219169083151502179055506001339080600181540180825580915050600190039060005260206000200160009091909190916101000a81548173ffffffffffffffffffffffffffffffffffffffff021916908373ffffffffffffffffffffffffffffffffffffffff160217905550600180549050600860003373ffffffffffffffffffffffffffffffffffffffff1673ffffffffffffffffffffffffffffffffffffffff168152602001908152602001600020819055505050565b80600560008273ffffffffffffffffffffffffffffffffffffffff1673ffffffffffffffffffffffffffffffffffffffff16815260200190815260200160002060020160159054906101000a900460ff1661179f576040517f08c379a000000000000000000000000000000000000000000000000000000000815260040180806020018281038252603b815260200180614b7d603b913960400191505060405180910390fd5b33600960008273ffffffffffffffffffffffffffffffffffffffff1673ffffffffffffffffffffffffffffffffffffffff16815260200190815260200160002060030160009054906101000a900460ff16611845576040517f08c379a000000000000000000000000000000000000000000000000000000000815260040180806020018281038252603d8152602001806148d4603d913960400191505060405180910390fd5b600560008473ffffffffffffffffffffffffffffffffffffffff1673ffffffffffffffffffffffffffffffffffffffff16815260200190815260200160002060020160009054906101000a900473ffffffffffffffffffffffffffffffffffffffff1673ffffffffffffffffffffffffffffffffffffffff163373ffffffffffffffffffffffffffffffffffffffff161461192b576040517f08c379a0000000000000000000000000000000000000000000000000000000008152600401808060200182810382526038815260200180614bb86038913960400191505060405180910390fd5b600560008473ffffffffffffffffffffffffffffffffffffffff1673ffffffffffffffffffffffffffffffffffffffff168152602001908152602001600020600080820160006101000a81549073ffffffffffffffffffffffffffffffffffffffff02191690556001820160006119a2919061474f565b6002820160006101000a81549073ffffffffffffffffffffffffffffffffffffffff02191690556002820160146101000a81549060ff02191690556002820160156101000a81549060ff0219169055505060006001600660008673ffffffffffffffffffffffffffffffffffffffff1673ffffffffffffffffffffffffffffffffffffffff16815260200190815260200160002054039050600160008054905003811415611a8f576000805480611a5557fe5b6001900381819060005260206000200160006101000a81549073ffffffffffffffffffffffffffffffffffffffff02191690559055611c1c565b60008181548110611a9c57fe5b9060005260206000200160006101000a81549073ffffffffffffffffffffffffffffffffffffffff0219169055600060016000805490500381548110611ade57fe5b9060005260206000200160009054906101000a900473ffffffffffffffffffffffffffffffffffffffff1660008281548110611b1657fe5b9060005260206000200160006101000a81548173ffffffffffffffffffffffffffffffffffffffff021916908373ffffffffffffffffffffffffffffffffffffffff1602179055506000805480611b6957fe5b6001900381819060005260206000200160006101000a81549073ffffffffffffffffffffffffffffffffffffffff021916905590556001810160066000808481548110611bb257fe5b9060005260206000200160009054906101000a900473ffffffffffffffffffffffffffffffffffffffff1673ffffffffffffffffffffffffffffffffffffffff1673ffffffffffffffffffffffffffffffffffffffff168152602001908152602001600020819055505b600660008573ffffffffffffffffffffffffffffffffffffffff1673ffffffffffffffffffffffffffffffffffffffff1681526020019081526020016000206000905550505050565b60086020528060005260406000206000915090505481565b60008181548110611c8d57600080fd5b906000526020600020016000915054906101000a900473ffffffffffffffffffffffffffffffffffffffff1681565b60018181548110611ccc57600080fd5b906000526020600020016000915054906101000a900473ffffffffffffffffffffffffffffffffffffffff1681565b60056020528060005260406000206000915090508060000160009054906101000a900473ffffffffffffffffffffffffffffffffffffffff1690806001018054600181600116156101000203166002900480601f016020809104026020016040519081016040528092919081815260200182805460018160011615610100020316600290048015611dcd5780601f10611da257610100808354040283529160200191611dcd565b820191906000526020600020905b815481529060010190602001808311611db057829003601f168201915b5050505050908060020160009054906101000a900473ffffffffffffffffffffffffffffffffffffffff16908060020160149054906101000a900460ff16908060020160159054906101000a900460ff16905085565b60066020528060005260406000206000915090505481565b600360009054906101000a900473ffffffffffffffffffffffffffffffffffffffff1681565b60606002805480602002602001604051908101604052809291908181526020018280548015611ee557602002820191906000526020600020905b8160009054906101000a900473ffffffffffffffffffffffffffffffffffffffff1673ffffffffffffffffffffffffffffffffffffffff1681526020019060010190808311611e9b575b5050505050905090565b600b8281548110611efc57fe5b906000526020600020906007020160010160009054906101000a900473ffffffffffffffffffffffffffffffffffffffff16600560008273ffffffffffffffffffffffffffffffffffffffff1673ffffffffffffffffffffffffffffffffffffffff16815260200190815260200160002060020160159054906101000a900460ff16611fd3576040517f08c379a000000000000000000000000000000000000000000000000000000000815260040180806020018281038252603b815260200180614b7d603b913960400191505060405180910390fd5b600b8381548110611fe057fe5b906000526020600020906007020160020160009054906101000a900473ffffffffffffffffffffffffffffffffffffffff16600760008273ffffffffffffffffffffffffffffffffffffffff1673ffffffffffffffffffffffffffffffffffffffff16815260200190815260200160002060020160159054906101000a900460ff166120b7576040517f08c379a000000000000000000000000000000000000000000000000000000000815260040180806020018281038252603a815260200180614ab5603a913960400191505060405180910390fd5b33600960008273ffffffffffffffffffffffffffffffffffffffff1673ffffffffffffffffffffffffffffffffffffffff16815260200190815260200160002060030160009054906101000a900460ff1661215d576040517f08c379a000000000000000000000000000000000000000000000000000000000815260040180806020018281038252603d8152602001806148d4603d913960400191505060405180910390fd5b6002600381111561216a57fe5b600b868154811061217757fe5b906000526020600020906007020160030160149054906101000a900460ff1660038111156121a157fe5b146121f7576040517f08c379a000000000000000000000000000000000000000000000000000000000815260040180806020018281038252603e815260200180614951603e913960400191505060405180910390fd5b60056000600b878154811061220857fe5b906000526020600020906007020160010160009054906101000a900473ffffffffffffffffffffffffffffffffffffffff1673ffffffffffffffffffffffffffffffffffffffff1673ffffffffffffffffffffffffffffffffffffffff16815260200190815260200160002060020160009054906101000a900473ffffffffffffffffffffffffffffffffffffffff1673ffffffffffffffffffffffffffffffffffffffff163373ffffffffffffffffffffffffffffffffffffffff161461231b576040517f08c379a00000000000000000000000000000000000000000000000000000000081526004018080602001828103825260608152602001806148056060913960600191505060405180910390fd5b6003600b868154811061232a57fe5b906000526020600020906007020160030160146101000a81548160ff0219169083600381111561235657fe5b021790555083600b868154811061236957fe5b9060005260206000209060070201600501908051906020019061238d9291906146c1565b506004600081548092919060010191905055505050505050565b33600960008273ffffffffffffffffffffffffffffffffffffffff1673ffffffffffffffffffffffffffffffffffffffff16815260200190815260200160002060030160009054906101000a900460ff1661244d576040517f08c379a000000000000000000000000000000000000000000000000000000000815260040180806020018281038252603d8152602001806148d4603d913960400191505060405180910390fd5b6000600381111561245a57fe5b600b848154811061246757fe5b906000526020600020906007020160030160149054906101000a900460ff16600381111561249157fe5b146124e7576040517f08c379a0000000000000000000000000000000000000000000000000000000008152600401808060200182810382526048815260200180614a1c6048913960600191505060405180910390fd5b3373ffffffffffffffffffffffffffffffffffffffff16600b848154811061250b57fe5b906000526020600020906007020160030160009054906101000a900473ffffffffffffffffffffffffffffffffffffffff1673ffffffffffffffffffffffffffffffffffffffff16146125a9576040517f08c379a00000000000000000000000000000000000000000000000000000000081526004018080602001828103825260508152602001806147b56050913960600191505060405180910390fd5b6001600b84815481106125b857fe5b906000526020600020906007020160030160146101000a81548160ff021916908360038111156125e457fe5b021790555081600b84815481106125f757fe5b9060005260206000209060070201600501908051906020019061261b9291906146c1565b50505050565b600a6020528060005260406000206000915090505481565b600360009054906101000a900473ffffffffffffffffffffffffffffffffffffffff1673ffffffffffffffffffffffffffffffffffffffff163373ffffffffffffffffffffffffffffffffffffffff16146126df576040517f08c379a0000000000000000000000000000000000000000000000000000000008152600401808060200182810382526038815260200180614aef6038913960400191505060405180910390fd5b600960008473ffffffffffffffffffffffffffffffffffffffff1673ffffffffffffffffffffffffffffffffffffffff16815260200190815260200160002060030160009054906101000a900460ff16156127a2576040517f08c379a000000000000000000000000000000000000000000000000000000000815260040180806020018281038252601f8152602001807f5468697320486f73706974616c20697320616c7265616479206164646564210081525060200191505060405180910390fd5b6000600960008573ffffffffffffffffffffffffffffffffffffffff1673ffffffffffffffffffffffffffffffffffffffff1681526020019081526020016000209050838160000160006101000a81548173ffffffffffffffffffffffffffffffffffffffff021916908373ffffffffffffffffffffffffffffffffffffffff160217905550828160010190805190602001906128409291906146c1565b50818160020190805190602001906128599291906146c1565b5060018160030160006101000a81548160ff0219169083151502179055506002849080600181540180825580915050600190039060005260206000200160009091909190916101000a81548173ffffffffffffffffffffffffffffffffffffffff021916908373ffffffffffffffffffffffffffffffffffffffff160217905550600280549050600a60008673ffffffffffffffffffffffffffffffffffffffff1673ffffffffffffffffffffffffffffffffffffffff1681526020019081526020016000208190555050505050565b600b818154811061293957600080fd5b90600052602060002090600702016000915090508060000154908060010160009054906101000a900473ffffffffffffffffffffffffffffffffffffffff16908060020160009054906101000a900473ffffffffffffffffffffffffffffffffffffffff16908060030160009054906101000a900473ffffffffffffffffffffffffffffffffffffffff16908060030160149054906101000a900460ff1690806004018054600181600116156101000203166002900480601f016020809104026020016040519081016040528092919081815260200182805460018160011615610100020316600290048015612a705780601f10612a4557610100808354040283529160200191612a70565b820191906000526020600020905b815481529060010190602001808311612a5357829003601f168201915b505050505090806005018054600181600116156101000203166002900480601f016020809104026020016040519081016040528092919081815260200182805460018160011615610100020316600290048015612b0e5780601f10612ae357610100808354040283529160200191612b0e565b820191906000526020600020905b815481529060010190602001808311612af157829003601f168201915b5050505050908060060160009054906101000a900460ff16905088565b60606001805480602002602001604051908101604052809291908181526020018280548015612baf57602002820191906000526020600020905b8160009054906101000a900473ffffffffffffffffffffffffffffffffffffffff1673ffffffffffffffffffffffffffffffffffffffff1681526020019060010190808311612b65575b5050505050905090565b33600960008273ffffffffffffffffffffffffffffffffffffffff1673ffffffffffffffffffffffffffffffffffffffff16815260200190815260200160002060030160009054906101000a900460ff16612c5f576040517f08c379a000000000000000000000000000000000000000000000000000000000815260040180806020018281038252603d8152602001806148d4603d913960400191505060405180910390fd5b81600760008273ffffffffffffffffffffffffffffffffffffffff1673ffffffffffffffffffffffffffffffffffffffff16815260200190815260200160002060020160159054906101000a900460ff16612d05576040517f08c379a000000000000000000000000000000000000000000000000000000000815260040180806020018281038252603a815260200180614ab5603a913960400191505060405180910390fd5b600960003373ffffffffffffffffffffffffffffffffffffffff1673ffffffffffffffffffffffffffffffffffffffff16815260200190815260200160002060030160009054906101000a900460ff16612daa576040517f08c379a00000000000000000000000000000000000000000000000000000000081526004018080602001828103825260488152602001806149d46048913960600191505060405180910390fd5b600760008473ffffffffffffffffffffffffffffffffffffffff1673ffffffffffffffffffffffffffffffffffffffff16815260200190815260200160002060020160149054906101000a900460ff1615612e50576040517f08c379a00000000000000000000000000000000000000000000000000000000081526004018080602001828103825260248152602001806148b06024913960400191505060405180910390fd5b33600760008573ffffffffffffffffffffffffffffffffffffffff1673ffffffffffffffffffffffffffffffffffffffff16815260200190815260200160002060020160006101000a81548173ffffffffffffffffffffffffffffffffffffffff021916908373ffffffffffffffffffffffffffffffffffffffff1602179055506001600760008573ffffffffffffffffffffffffffffffffffffffff1673ffffffffffffffffffffffffffffffffffffffff16815260200190815260200160002060020160146101000a81548160ff021916908315150217905550505050565b80600760008273ffffffffffffffffffffffffffffffffffffffff1673ffffffffffffffffffffffffffffffffffffffff16815260200190815260200160002060020160159054906101000a900460ff16612fd7576040517f08c379a000000000000000000000000000000000000000000000000000000000815260040180806020018281038252603a815260200180614ab5603a913960400191505060405180910390fd5b33600960008273ffffffffffffffffffffffffffffffffffffffff1673ffffffffffffffffffffffffffffffffffffffff16815260200190815260200160002060030160009054906101000a900460ff1661307d576040517f08c379a000000000000000000000000000000000000000000000000000000000815260040180806020018281038252603d8152602001806148d4603d913960400191505060405180910390fd5b600760008473ffffffffffffffffffffffffffffffffffffffff1673ffffffffffffffffffffffffffffffffffffffff168152602001908152602001600020600080820160006101000a81549073ffffffffffffffffffffffffffffffffffffffff02191690556001820160006130f4919061474f565b6002820160006101000a81549073ffffffffffffffffffffffffffffffffffffffff02191690556002820160146101000a81549060ff02191690556002820160156101000a81549060ff0219169055505060006001600860008673ffffffffffffffffffffffffffffffffffffffff1673ffffffffffffffffffffffffffffffffffffffff1681526020019081526020016000205403905060018080549050038114156131e05760018054806131a657fe5b6001900381819060005260206000200160006101000a81549073ffffffffffffffffffffffffffffffffffffffff0219169055905561336c565b600181815481106131ed57fe5b9060005260206000200160006101000a81549073ffffffffffffffffffffffffffffffffffffffff02191690556001808080549050038154811061322d57fe5b9060005260206000200160009054906101000a900473ffffffffffffffffffffffffffffffffffffffff166001828154811061326557fe5b9060005260206000200160006101000a81548173ffffffffffffffffffffffffffffffffffffffff021916908373ffffffffffffffffffffffffffffffffffffffff16021790555060018054806132b857fe5b6001900381819060005260206000200160006101000a81549073ffffffffffffffffffffffffffffffffffffffff0219169055905560018101600860006001848154811061330257fe5b9060005260206000200160009054906101000a900473ffffffffffffffffffffffffffffffffffffffff1673ffffffffffffffffffffffffffffffffffffffff1673ffffffffffffffffffffffffffffffffffffffff168152602001908152602001600020819055505b600860008573ffffffffffffffffffffffffffffffffffffffff1673ffffffffffffffffffffffffffffffffffffffff1681526020019081526020016000206000905550505050565b600360009054906101000a900473ffffffffffffffffffffffffffffffffffffffff1673ffffffffffffffffffffffffffffffffffffffff163373ffffffffffffffffffffffffffffffffffffffff161461345b576040517f08c379a0000000000000000000000000000000000000000000000000000000008152600401808060200182810382526038815260200180614aef6038913960400191505060405180910390fd5b80600960008273ffffffffffffffffffffffffffffffffffffffff1673ffffffffffffffffffffffffffffffffffffffff16815260200190815260200160002060030160009054906101000a900460ff16613501576040517f08c379a000000000000000000000000000000000000000000000000000000000815260040180806020018281038252603d8152602001806148d4603d913960400191505060405180910390fd5b600960008373ffffffffffffffffffffffffffffffffffffffff1673ffffffffffffffffffffffffffffffffffffffff168152602001908152602001600020600080820160006101000a81549073ffffffffffffffffffffffffffffffffffffffff0219169055600182016000613578919061474f565b600282016000613588919061474f565b6003820160006101000a81549060ff0219169055505060006001600a60008573ffffffffffffffffffffffffffffffffffffffff1673ffffffffffffffffffffffffffffffffffffffff1681526020019081526020016000205403905060016002805490500381141561363a57600280548061360057fe5b6001900381819060005260206000200160006101000a81549073ffffffffffffffffffffffffffffffffffffffff021916905590556137c8565b6002818154811061364757fe5b9060005260206000200160006101000a81549073ffffffffffffffffffffffffffffffffffffffff021916905560026001600280549050038154811061368957fe5b9060005260206000200160009054906101000a900473ffffffffffffffffffffffffffffffffffffffff16600282815481106136c157fe5b9060005260206000200160006101000a81548173ffffffffffffffffffffffffffffffffffffffff021916908373ffffffffffffffffffffffffffffffffffffffff160217905550600280548061371457fe5b6001900381819060005260206000200160006101000a81549073ffffffffffffffffffffffffffffffffffffffff0219169055905560018101600a60006002848154811061375e57fe5b9060005260206000200160009054906101000a900473ffffffffffffffffffffffffffffffffffffffff1673ffffffffffffffffffffffffffffffffffffffff1673ffffffffffffffffffffffffffffffffffffffff168152602001908152602001600020819055505b600a60008473ffffffffffffffffffffffffffffffffffffffff1673ffffffffffffffffffffffffffffffffffffffff16815260200190815260200160002060009055505050565b6001600381111561381d57fe5b600b858154811061382a57fe5b906000526020600020906007020160030160149054906101000a900460ff16600381111561385457fe5b146138aa576040517f08c379a000000000000000000000000000000000000000000000000000000000815260040180806020018281038252604581526020018061498f6045913960600191505060405180910390fd5b600560008473ffffffffffffffffffffffffffffffffffffffff1673ffffffffffffffffffffffffffffffffffffffff16815260200190815260200160002060020160159054906101000a900460ff1680156139525750600960003373ffffffffffffffffffffffffffffffffffffffff1673ffffffffffffffffffffffffffffffffffffffff16815260200190815260200160002060030160009054906101000a900460ff165b6139a7576040517f08c379a00000000000000000000000000000000000000000000000000000000081526004018080602001828103825260408152602001806149116040913960400191505060405180910390fd5b600560008473ffffffffffffffffffffffffffffffffffffffff1673ffffffffffffffffffffffffffffffffffffffff16815260200190815260200160002060020160009054906101000a900473ffffffffffffffffffffffffffffffffffffffff1673ffffffffffffffffffffffffffffffffffffffff163373ffffffffffffffffffffffffffffffffffffffff1614613a8d576040517f08c379a00000000000000000000000000000000000000000000000000000000081526004018080602001828103825260608152602001806148056060913960600191505060405180910390fd5b82600b8581548110613a9b57fe5b906000526020600020906007020160010160006101000a81548173ffffffffffffffffffffffffffffffffffffffff021916908373ffffffffffffffffffffffffffffffffffffffff1602179055506002600b8581548110613af957fe5b906000526020600020906007020160030160146101000a81548160ff02191690836003811115613b2557fe5b021790555081600b8581548110613b3857fe5b90600052602060002090600702016005019080519060200190613b5c9291906146c1565b5080600b8581548110613b6b57fe5b90600052602060002090600702016004019080519060200190613b8f9291906146c1565b5050505050565b60045481565b81600760008273ffffffffffffffffffffffffffffffffffffffff1673ffffffffffffffffffffffffffffffffffffffff16815260200190815260200160002060020160159054906101000a900460ff16613c42576040517f08c379a000000000000000000000000000000000000000000000000000000000815260040180806020018281038252603a815260200180614ab5603a913960400191505060405180910390fd5b33600960008273ffffffffffffffffffffffffffffffffffffffff1673ffffffffffffffffffffffffffffffffffffffff16815260200190815260200160002060030160009054906101000a900460ff16613ce8576040517f08c379a000000000000000000000000000000000000000000000000000000000815260040180806020018281038252603d8152602001806148d4603d913960400191505060405180910390fd5b600760008573ffffffffffffffffffffffffffffffffffffffff1673ffffffffffffffffffffffffffffffffffffffff16815260200190815260200160002060020160149054906101000a900460ff16613d8d576040517f08c379a0000000000000000000000000000000000000000000000000000000008152600401808060200182810382526051815260200180614a646051913960600191505060405180910390fd5b3373ffffffffffffffffffffffffffffffffffffffff16600760008673ffffffffffffffffffffffffffffffffffffffff1673ffffffffffffffffffffffffffffffffffffffff16815260200190815260200160002060020160009054906101000a900473ffffffffffffffffffffffffffffffffffffffff1673ffffffffffffffffffffffffffffffffffffffff1614613e73576040517f08c379a000000000000000000000000000000000000000000000000000000000815260040180806020018281038252604b815260200180614865604b913960600191505060405180910390fd5b6000604051806101000160405280600b805490508152602001600073ffffffffffffffffffffffffffffffffffffffff1681526020018673ffffffffffffffffffffffffffffffffffffffff1681526020013373ffffffffffffffffffffffffffffffffffffffff16815260200160006003811115613eee57fe5b8152602001604051806020016040528060008152508152602001858152602001600115158152509050600b8190806001815401808255809150506001900390600052602060002090600702016000909190919091506000820151816000015560208201518160010160006101000a81548173ffffffffffffffffffffffffffffffffffffffff021916908373ffffffffffffffffffffffffffffffffffffffff16021790555060408201518160020160006101000a81548173ffffffffffffffffffffffffffffffffffffffff021916908373ffffffffffffffffffffffffffffffffffffffff16021790555060608201518160030160006101000a81548173ffffffffffffffffffffffffffffffffffffffff021916908373ffffffffffffffffffffffffffffffffffffffff16021790555060808201518160030160146101000a81548160ff0219169083600381111561404657fe5b021790555060a08201518160040190805190602001906140679291906146c1565b5060c08201518160050190805190602001906140849291906146c1565b5060e08201518160060160006101000a81548160ff02191690831515021790555050505050505050565b60076020528060005260406000206000915090508060000160009054906101000a900473ffffffffffffffffffffffffffffffffffffffff1690806001018054600181600116156101000203166002900480601f0160208091040260200160405190810160405280929190818152602001828054600181600116156101000203166002900480156141805780601f1061415557610100808354040283529160200191614180565b820191906000526020600020905b81548152906001019060200180831161416357829003601f168201915b5050505050908060020160009054906101000a900473ffffffffffffffffffffffffffffffffffffffff16908060020160149054906101000a900460ff16908060020160159054906101000a900460ff16905085565b80600560008273ffffffffffffffffffffffffffffffffffffffff1673ffffffffffffffffffffffffffffffffffffffff16815260200190815260200160002060020160159054906101000a900460ff1661427c576040517f08c379a000000000000000000000000000000000000000000000000000000000815260040180806020018281038252603b815260200180614b7d603b913960400191505060405180910390fd5b600560008373ffffffffffffffffffffffffffffffffffffffff1673ffffffffffffffffffffffffffffffffffffffff16815260200190815260200160002060020160009054906101000a900473ffffffffffffffffffffffffffffffffffffffff1673ffffffffffffffffffffffffffffffffffffffff163373ffffffffffffffffffffffffffffffffffffffff1614614362576040517f08c379a0000000000000000000000000000000000000000000000000000000008152600401808060200182810382526068815260200180614bf06068913960800191505060405180910390fd5b600560008373ffffffffffffffffffffffffffffffffffffffff1673ffffffffffffffffffffffffffffffffffffffff16815260200190815260200160002060020160149054906101000a900460ff1615614408576040517f08c379a0000000000000000000000000000000000000000000000000000000008152600401808060200182810382526025815260200180614b276025913960400191505060405180910390fd5b6001600560008473ffffffffffffffffffffffffffffffffffffffff1673ffffffffffffffffffffffffffffffffffffffff16815260200190815260200160002060020160146101000a81548160ff0219169083151502179055505050565b606060008054806020026020016040519081016040528092919081815260200182805480156144eb57602002820191906000526020600020905b8160009054906101000a900473ffffffffffffffffffffffffffffffffffffffff1673ffffffffffffffffffffffffffffffffffffffff16815260200190600101908083116144a1575b5050505050905090565b6002818154811061450557600080fd5b906000526020600020016000915054906101000a900473ffffffffffffffffffffffffffffffffffffffff1681565b60096020528060005260406000206000915090508060000160009054906101000a900473ffffffffffffffffffffffffffffffffffffffff1690806001018054600181600116156101000203166002900480601f0160208091040260200160405190810160405280929190818152602001828054600181600116156101000203166002900480156146065780601f106145db57610100808354040283529160200191614606565b820191906000526020600020905b8154815290600101906020018083116145e957829003601f168201915b505050505090806002018054600181600116156101000203166002900480601f0160208091040260200160405190810160405280929190818152602001828054600181600116156101000203166002900480156146a45780601f10614679576101008083540402835291602001916146a4565b820191906000526020600020905b81548152906001019060200180831161468757829003601f168201915b5050505050908060030160009054906101000a900460ff16905084565b828054600181600116156101000203166002900490600052602060002090601f0160209004810192826146f7576000855561473e565b82601f1061471057805160ff191683800117855561473e565b8280016001018555821561473e579182015b8281111561473d578251825591602001919060010190614722565b5b50905061474b9190614797565b5090565b50805460018160011615610100020316600290046000825580601f106147755750614794565b601f0160209004906000526020600020908101906147939190614797565b5b50565b5b808211156147b0576000816000905550600101614798565b509056fe4f6e6c7920746865206173736f63696174656420686f73706974616c206861732074686520617574686f7269747920746f206d6f6469667920746865207374617465206f66207472616e667573696f6e546865207472616e73667573696f6e2064657461696c732063616e206f6e6c792062652061646465642062792074686520686f73706974616c20696e207768696368207468652070617469656e74206973206265696e6720747265617465642e446f6e6174696f6e20696e666f726d6174696f6e206d7573742062652061646465642062792074686520686f73706974616c2077686f2076616c6964617465642074686520646f6e6f722e54686520446f6e6f722068617320616c7265616479206265656e2076616c696461746564486f73706974616c20776974682074686520676976656e206164647265737320646f65736e277420657869737420696e20746865206e6574776f726b2e436865636b20616761696e207468617420626f7468207365656b657220616e6420686f73706974616c2061726520616464656420696e746f206e6574776f726b5468652072657175657374206f66207472616e667573696f6e206d75737420626520617070726f766564207072696f7220746f207468697320737465702e4265666f726520676f696e672061686561642077697468207472616e73667573696f6e20706861736520616464207468652073746f7261676520696e666f726d6174696f6e596f75206d757374206265206164646564206173206120686f73706974616c20746f20746865206e6574776f726b20746f20706572666f726d2074686973206f7065726174696f6e4265666f726520676f696e672061686561642077697468207468652073746f72616765207068617365206164642074686520646f6e6174696f6e20696e666f726d6174696f6e2e2046697273742074686520646f6e6f72206e6565647320746f2062652076616c6964617465642062792074686520686f73706974616c20696e206f7264657220746f20616464207472616e73667573696f6e446f6e6f7220776974682074686520676976656e206164647265737320646f65736e277420657869737420696e20746865206e6574776f726b2e596f7520646f206e6f7420686176652074686520617574686f7269747920746f20706572666f726d2074686973206f7065726174696f6e21546865207365656b65722068617320616c7265616479206265656e2076616c6964617465645573657220776974682074686973206164647265737320616c726561647920657869737473206173206120646f6e6f72215365656b657220776974682074686520676976656e206164647265737320646f65736e277420657869737420696e20746865206e6574776f726b2e596f7520646f206e6f7420686176652074686520617574686f7269747920746f20706572666f726d2074686973206f7065726174696f6e2e4163636573732044656e6965642120596f7520646f206e6f7420686176652074686520617574686f7269747920746f2076616c69646174652061732070617469656e74206973206e6f74206173736f6369617465642077697468207468697320686f73706974616c5573657220776974682074686973206164647265737320616c7265616479206578697374732061732061207365656b657221a2646970667358221220865f84d03da1747e0406d76faa4ea8268256ffe09ec2efd0adf06eca84bce12164736f6c63430007060033",
  "immutableReferences": {},
  "source": "// SPDX-License-Identifier: GPL-3.0\r\npragma solidity >=0.7.0 <0.9.0;\r\n\r\ncontract PlasmaDonation{\r\n    \r\n    //Array of addresses that can used to retrieve the entities using map functionality in the frontend.\r\n    address[] public totalSeekers; //array of addresses that keeps the track of total seekers in the system.\r\n    address[] public totalDonors; // array of addresses that keeps the track of total Donors in the system.\r\n    address[] public totalHospitals; //array of addresses that keeps track of total Hospitals in the system.\r\n    \r\n    //state variable that stores address of creator of contract with access of admin level.\r\n    address public plasmaManager; \r\n    \r\n    //enumeration that stores the status of transfusion\r\n    enum status{requestInitiated,requestAdded,requestApproved,requestCompleted} \r\n    \r\n    //State variable that keeps track of successfully completed transfusions\r\n    uint public totalCompletedTransfusions = 0;\r\n    \r\n    //structure to create a new datatype Seeker\r\n    struct Seeker{\r\n        address ethSeeker;\r\n        string hashOfSeekersData;\r\n        address associatedHospital;\r\n        bool isSeekerEligible;\r\n        bool exist;\r\n    }\r\n    \r\n    //mappings that store data of Seeker and the index at which the donor is stored respectively.\r\n    mapping(address => Seeker) public seekers;\r\n    mapping(address => uint) public indexOfSeeker;\r\n       \r\n    //structure to create a new datatype Donor.\r\n    struct Donor{\r\n        address ethDonor;\r\n        string hashOfDonorsData;\r\n        address associatedHospital;\r\n        bool isDonorEligible;\r\n        bool exist;\r\n    }\r\n    \r\n    //mappings that store data of Donor and the index at which the donor is stored respectively.\r\n    mapping(address => Donor) public donors;\r\n    mapping(address => uint) public indexOfDonor;\r\n    \r\n    //structure to create a new datatype Hospital.\r\n    struct Hospital{\r\n        address ethHospital;\r\n        string hospitalName;\r\n        string hashOfHospitalsData;\r\n        bool exist;\r\n    }\r\n    //mappings that store data of Hospital and the index at which the donor is stored respectively.\r\n    mapping(address => Hospital) public hospitals;\r\n    mapping(address => uint) public indexOfHospital;\r\n\r\n    //structure to create a new datatype TransfusionState\r\n    struct TransfusionState{\r\n        uint indexOfTransfusion;\r\n        address ethSeeker;\r\n        address ethDonor;\r\n        address ethHospital;\r\n        status stateOfTransfusion;\r\n        string storageTime;\r\n        string updatedOn;\r\n        bool exist;\r\n    }    \r\n     \r\n    //Array of transfusions;\r\n    TransfusionState[] public transfusions;\r\n    \r\n   //Assures that the function is only invoked by the plasma Manager\r\n    modifier onlyManager(){\r\n        require(msg.sender == plasmaManager,\"You do not have the authority to perform this operation!\");\r\n        _;\r\n    } \r\n    \r\n    //Checks the existence of Seeker in Network.\r\n    modifier checkSeekerExist(address _ethSeeker){\r\n        require(seekers[_ethSeeker].exist,\"Seeker with the given address doesn't exist in the network.\");\r\n        _;\r\n    }\r\n    \r\n    //Checks existence of Donor in the Network.\r\n    modifier checkDonorExist(address _ethDonor){\r\n        require(donors[_ethDonor].exist,\"Donor with the given address doesn't exist in the network.\");\r\n        _;\r\n    }\r\n    \r\n    //Checks existence of Hospital in Network.\r\n    modifier checkHospitalExist(address _ethHospital){\r\n        require(hospitals[_ethHospital].exist,\"Hospital with the given address doesn't exist in the network.\");\r\n        _;\r\n    }\r\n    \r\n    //The constructor assigns the deployer of contract's address to plasmaManager.\r\n    constructor(){\r\n        plasmaManager = msg.sender;\r\n    }\r\n    \r\n    //The hospital with which the seeker is associated validates the seeker and verifies that s/he is eligible or not.\r\n    function validateSeeker(address _ethSeeker) public checkSeekerExist(_ethSeeker) \r\n    {\r\n        require(msg.sender == seekers[_ethSeeker].associatedHospital,\"Access Denied! You do not have the authority to validate as patient is not associated with this hospital\");\r\n        require(!seekers[_ethSeeker].isSeekerEligible,\"The seeker has already been validated\");\r\n        seekers[_ethSeeker].isSeekerEligible = true;\r\n    }\r\n    \r\n    //Adds the seeker data onto the network.\r\n    function addSeeker(string memory _hashOfSeekersData,address _associatedHospital) public \r\n    {\r\n        //checks whether the seeker is already added or not.\r\n        require(!seekers[msg.sender].exist, \"User with this address already exists as a seeker!\");\r\n        Seeker storage seeker = seekers[msg.sender];\r\n        seeker.ethSeeker = msg.sender;\r\n        seeker.hashOfSeekersData = _hashOfSeekersData;\r\n        seeker.associatedHospital = _associatedHospital;\r\n        seeker.exist = true; //Indicates that the seeker is now a part of the network.\r\n        seeker.isSeekerEligible = false;\r\n        \r\n        totalSeekers.push(msg.sender);  //Adding seeker's address.     \r\n        indexOfSeeker[msg.sender] = totalSeekers.length; //store the index on which seeker is added. \r\n    }\r\n   \r\n    // Donor is added to the network.\r\n    function addDonor(string memory _hashOfDonorsData) public\r\n    {\r\n        //checks whether the donor is already added or not.\r\n        require(!donors[msg.sender].exist, \"User with this address already exists as a donor!\");\r\n        Donor storage donor = donors[msg.sender];\r\n        donor.ethDonor = msg.sender;\r\n        donor.hashOfDonorsData = _hashOfDonorsData;\r\n        donor.exist = true; //Indicates that the donor is now a part of the network.\r\n        donor.isDonorEligible = false;\r\n        \r\n        totalDonors.push(msg.sender); //Adding donors address.   \r\n        indexOfDonor[msg.sender] = totalDonors.length; //store the index on which donor is added.\r\n    }\r\n   \r\n    // Hospital is added to the network.\r\n    function addHospital(address _ethHospital, string memory _hospitalName, string memory _hashOfHospitalsData) onlyManager public\r\n    {   \r\n        //checks whether the hospital is already added or not.\r\n        require(!hospitals[_ethHospital].exist,\"This Hospital is already added!\");\r\n        \r\n        Hospital storage hospital = hospitals[_ethHospital];\r\n        hospital.ethHospital = _ethHospital;\r\n        hospital.hospitalName = _hospitalName;\r\n        hospital.hashOfHospitalsData = _hashOfHospitalsData;\r\n        hospital.exist = true; //Indicates that the hospital is now a part of the network.\r\n        \r\n        totalHospitals.push(_ethHospital); //After adding hospital to the network increments the statevariable to keep track of total Hospitals in the system.\r\n        indexOfHospital[_ethHospital] = totalHospitals.length;\r\n    }\r\n   \r\n    //removes the seeker if S/he turns out to be malicious. This operation can only be performed by the hospital.\r\n    function removeSeeker(address _ethSeeker) public checkSeekerExist(_ethSeeker) checkHospitalExist(msg.sender){\r\n        \r\n        require(msg.sender == seekers[_ethSeeker].associatedHospital,\"You do not have the authority to perform this operation.\");\r\n        delete seekers[_ethSeeker]; // deletes the information of seeker from mappings seeker.\r\n        uint index = indexOfSeeker[_ethSeeker] - 1; // get the index on which the seeker with the address _ethSeeker is stored.\r\n        if(index == totalSeekers.length - 1) {\r\n            totalSeekers.pop(); // if the seeker is present at the last index just perform pop operation.\r\n        } else{\r\n             delete totalSeekers[index]; //deleting that address from array totolSeekers.\r\n             totalSeekers[index] = totalSeekers[totalSeekers.length - 1]; //copying the last element to the deleted element index.\r\n             totalSeekers.pop(); // pop the redundant last element.\r\n             indexOfSeeker[totalSeekers[index]] = index + 1; //set the index value of the last element in mapping.\r\n        }\r\n        delete indexOfSeeker[_ethSeeker]; //deleting the seeker from the mapping.\r\n    }\r\n    \r\n    //removes the donor if S/he turns out to be malicious. This operation can only be performed by any Hospital.\r\n    function removeDonor(address _ethDonor) public checkDonorExist(_ethDonor) checkHospitalExist(msg.sender){\r\n        \r\n        delete donors[_ethDonor];\r\n        uint index = indexOfDonor[_ethDonor] - 1;  //get the index on which the donor with the address _ethDonor is stored.\r\n        if(index == totalDonors.length - 1){\r\n            totalDonors.pop();\r\n        } else{\r\n            delete totalDonors[index];  //deleting that address from array totalDonors.\r\n            totalDonors[index] = totalDonors[totalDonors.length - 1]; //copying the last element to the deleted element's index.\r\n            totalDonors.pop(); // removing the last element.\r\n            indexOfDonor[totalDonors[index]] = index + 1; //updating the index value of that last element.\r\n        }\r\n        delete indexOfDonor[_ethDonor]; //deleting the donor from the mapping.\r\n    }\r\n  \r\n    //removes the hospital if it turns out to be malicious. This operation can only be performed by Manager.\r\n    function removeHospital(address _ethHospital) onlyManager checkHospitalExist(_ethHospital) public{\r\n       \r\n        delete hospitals[_ethHospital];\r\n        uint index = indexOfHospital[_ethHospital] - 1; //get the index on which the hospital with address _ethHospital is stored.\r\n        if(index == totalHospitals.length - 1){\r\n            totalHospitals.pop();\r\n        } else{\r\n            delete totalHospitals[index]; //deleting that address from array totalHospitals.\r\n            totalHospitals[index] = totalHospitals[totalHospitals.length-1];//copying the last eelement to the deleted element's index.\r\n            totalHospitals.pop(); //poping the last redundant element.\r\n            indexOfHospital[totalHospitals[index]] = index + 1; //setting the index of the last element\r\n        }\r\n        delete indexOfHospital[_ethHospital]; //deleting the hospital from the mapping.\r\n    }\r\n    \r\n    //Hospital validates the Donor before collecting Plasma.\r\n    function validateDonor(address _ethDonor) public checkHospitalExist(msg.sender) checkDonorExist(_ethDonor){\r\n       require(hospitals[msg.sender].exist,\"You must be added as a hospital to the network to perform this operation\");    \r\n       require(!donors[_ethDonor].isDonorEligible,\"The Donor has already been validated\");\r\n       donors[_ethDonor].associatedHospital = msg.sender;\r\n       donors[_ethDonor].isDonorEligible = true;\r\n    }\r\n    \r\n    //Information about the Donation when the plasma is collected from the donor before transfusing it to any patient.\r\n    function Donation(address _ethDonor, string memory _updatedOn)public checkDonorExist(_ethDonor) checkHospitalExist(msg.sender){\r\n        require(donors[_ethDonor].isDonorEligible,\r\n        \"First the donor needs to be validated by the hospital in order to add transfusion\");\r\n        require(donors[_ethDonor].associatedHospital == msg.sender,\r\n        \"Donation information must be added by the hospital who validated the donor.\");\r\n        \r\n        TransfusionState memory newTransfusion = TransfusionState({\r\n            indexOfTransfusion : transfusions.length,\r\n            //As the plasma is not transfused yet, initializing seekers address.\r\n            ethSeeker : 0x0000000000000000000000000000000000000000,\r\n            ethDonor : _ethDonor,\r\n            ethHospital : msg.sender,\r\n            stateOfTransfusion : status.requestInitiated,\r\n            storageTime : \"\", //initializing the storage time \r\n            updatedOn : _updatedOn, //adding the donation timestamp to the array timeStamps.\r\n            exist : true\r\n        });\r\n        transfusions.push(newTransfusion);\r\n    }\r\n    \r\n    //Adding the storage phase information.\r\n    function Storage(uint index, string memory _updatedOn) public checkHospitalExist(msg.sender)\r\n    {\r\n        require(transfusions[index].stateOfTransfusion == status.requestInitiated,\r\n        \"Before going ahead with the storage phase add the donation information. \");\r\n        require(transfusions[index].ethHospital == msg.sender,\r\n        \"Only the associated hospital has the authority to modify the state of tranfusion\");\r\n        \r\n        transfusions[index].stateOfTransfusion = status.requestAdded;\r\n        transfusions[index].updatedOn = _updatedOn;\r\n\r\n    }\r\n    \r\n    //Associating the patient that is transfused with the donor's Plasma.\r\n    function Tranfusion(uint index, address _ethSeeker, string memory _updatedOn, string memory _storageTime) public\r\n    {\r\n        require(transfusions[index].stateOfTransfusion == status.requestAdded,\r\n        \"Before going ahead with transfusion phase add the storage information\");\r\n        require(seekers[_ethSeeker].exist && hospitals[msg.sender].exist,\r\n        \"Check again that both seeker and hospital are added into network\");\r\n        require(msg.sender == seekers[_ethSeeker].associatedHospital,\r\n        \"The transfusion details can only be added by the hospital in which the patient is being treated.\");\r\n        \r\n        transfusions[index].ethSeeker = _ethSeeker;\r\n        transfusions[index].stateOfTransfusion = status.requestApproved;\r\n        transfusions[index].updatedOn = _updatedOn;\r\n        transfusions[index].storageTime = _storageTime;\r\n    }\r\n    \r\n    //The Tranfusion completed successfully.\r\n    function Complete(uint index, string memory _updatedOn) public checkSeekerExist(transfusions[index].ethSeeker) \r\n    checkDonorExist(transfusions[index].ethDonor) checkHospitalExist(msg.sender)\r\n    {\r\n       require(transfusions[index].stateOfTransfusion == status.requestApproved,\r\n       \"The request of tranfusion must be approved prior to this step.\");\r\n        require(msg.sender == seekers[transfusions[index].ethSeeker].associatedHospital,\r\n        \"The transfusion details can only be added by the hospital in which the patient is being treated.\");\r\n      \r\n       transfusions[index].stateOfTransfusion = status.requestCompleted;\r\n       transfusions[index].updatedOn = _updatedOn;\r\n       totalCompletedTransfusions++;\r\n    }\r\n    \r\n    //Obtaining all the addresses of entities added to the system so in the front end.\r\n    //We can obtain all the data using map functionality.\r\n    function viewAllSeekers() public view returns (address[] memory){\r\n        return totalSeekers;\r\n    }\r\n    \r\n    function viewAllDonors() public view returns (address[] memory){\r\n        return totalDonors;\r\n    }\r\n    \r\n    function viewAllHospitals() public view returns (address[] memory){\r\n        return totalHospitals;\r\n    }\r\n    /* Note : For viewing all the transfusions just use mapping on the transfusions array*/\r\n}",
  "sourcePath": "C:/Users/Dell/Desktop/Plasma Donation/contracts/PlasmaDonation.sol",
  "compiler": {
    "name": "solc",
    "version": "0.7.6+commit.7338295f.Emscripten.clang"
  },
  "schemaVersion": "3.3.4",
  "updatedAt": "2021-04-04T13:46:44.129Z",
  "networkType": "ethereum",
  "devdoc": {
    "kind": "dev",
    "methods": {},
    "version": 1
  },
  "userdoc": {
    "kind": "user",
    "methods": {},
    "version": 1
  }
}